{
  "transactions": [
    {
      "hash": "0xd8d115a4db56a74fc7ee96569eab806bbd88ea3007bb23076fcee65d02cf3a1c",
      "transactionType": "CREATE",
      "contractName": "ConfidentialWrapperV3",
      "contractAddress": "0xa85233c63b9ee964add6f2cffe00fd84eb32338f",
      "function": null,
      "arguments": null,
      "transaction": {
        "from": "0xf39fd6e51aad88f6f4ce6ab8827279cfffb92266",
        "to": null,
        "value": "0x0",
        "input": "0x60a060405230608052348015610013575f5ffd5b5061001c610021565b6100d3565b7ff0c57e16840df040f15088dc2f81fe391c3923bec73e23a9662efc9c229c6a00805468010000000000000000900460ff16156100715760405163f92ee8a960e01b815260040160405180910390fd5b80546001600160401b03908116146100d05780546001600160401b0319166001600160401b0390811782556040519081527fc7f505b2f371ae2175ee4913f4499e1f2633a7b5936321eed1cdaeb6115181d29060200160405180910390a15b50565b6080516142536100f95f395f81816118700152818161189901526119d401526142535ff3fe608060405260043610610275575f3560e01c80638927b0301161014a578063d8061806116100be578063e8c15fd411610078578063e8c15fd41461072f578063eb3155b51461074e578063eee8a0e81461076d578063f2fde38b1461078c578063f89d30b1146107ab578063fbac3951146107bf575f5ffd5b8063d80618061461068d578063de642119146106ac578063e064b9bb146106cb578063e30c3978146106ea578063e3179426146106fe578063e8a3d4851461071b575f5ffd5b8063b6363cf21161010f578063b6363cf2146105de578063bf376c7a146105fd578063c41158741461061c578063c7b8a75e14610630578063d4febb961461064f578063d6d0faee1461066e575f5ffd5b80638927b030146105535780638da5cb5b1461056757806395d89b411461057b578063ad3cb1cc1461058f578063b1af281e146105bf575f5ffd5b806352d1902d116101ec5780636aaafe4e116101a65780636aaafe4e1461047f5780636f307dc3146104b3578063715018a6146104d457806372219998146104e857806379ba50971461050757806388a7ca5c1461051b575f5ffd5b806352d1902d146103db578063537d3c50146103ef578063540952271461040e5780635bb67a05146104225780635bebed7e146104415780635bf4ef0614610460575f5ffd5b8063313ce5671161023d578063313ce56714610324578063344ff1011461034a57806334c457431461036957806339d319e5146103885780633da01325146103a95780634f1ef286146103c8575f5ffd5b806301ffc9a71461027957806306fdde03146102ad5780632ab4d052146102ce5780632c4e722e146102f15780632fb74e6214610305575b5f5ffd5b348015610284575f5ffd5b506102986102933660046135f0565b6107de565b60405190151581526020015b60405180910390f35b3480156102b8575f5ffd5b506102c1610823565b6040516102a49190613637565b3480156102d9575f5ffd5b506001600160401b035b6040519081526020016102a4565b3480156102fc575f5ffd5b506102e36108c1565b348015610310575f5ffd5b506102e361031f36600461369a565b6108d5565b34801561032f575f5ffd5b50610338610928565b60405160ff90911681526020016102a4565b348015610355575f5ffd5b506102e36103643660046136f1565b610943565b348015610374575f5ffd5b506102e361038336600461370c565b61096c565b348015610393575f5ffd5b506103a76103a23660046136f1565b610a08565b005b3480156103b4575f5ffd5b506103a76103c33660046136f1565b610a1c565b6103a76103d6366004613843565b610a2d565b3480156103e6575f5ffd5b506102e3610a4c565b3480156103fa575f5ffd5b506102e361040936600461369a565b610a67565b348015610419575f5ffd5b506102e3610ab9565b34801561042d575f5ffd5b506103a761043c3660046138ae565b610acd565b34801561044c575f5ffd5b506102e361045b3660046138eb565b610b97565b34801561046b575f5ffd5b506102e361047a366004613915565b610bd9565b34801561048a575f5ffd5b50610493610c2d565b6040805192151583526001600160e01b03199091166020830152016102a4565b3480156104be575f5ffd5b506104c7610c55565b6040516102a49190613982565b3480156104df575f5ffd5b506103a7610c6f565b3480156104f3575f5ffd5b506103a76105023660046139ae565b610c82565b348015610512575f5ffd5b506103a7610d92565b348015610526575f5ffd5b5061053a610535366004613915565b610dce565b6040516001600160e01b031990911681526020016102a4565b34801561055e575f5ffd5b506102e3610e07565b348015610572575f5ffd5b506104c7610e15565b348015610586575f5ffd5b506102c1610e3d565b34801561059a575f5ffd5b506102c1604051806040016040528060058152602001640352e302e360dc1b81525081565b3480156105ca575f5ffd5b506103a76105d93660046138ae565b610e59565b3480156105e9575f5ffd5b506102986105f8366004613a82565b610f4c565b348015610608575f5ffd5b506102e36106173660046138eb565b610fae565b348015610627575f5ffd5b506103a7610fc2565b34801561063b575f5ffd5b506102e361064a366004613915565b611060565b34801561065a575f5ffd5b506103a7610669366004613ab9565b6110e2565b348015610679575f5ffd5b506103a7610688366004613b0d565b6110ed565b348015610698575f5ffd5b506103a76106a7366004613bbf565b6111f9565b3480156106b7575f5ffd5b506102e36106c6366004613bd6565b611261565b3480156106d6575f5ffd5b506102e36106e5366004613915565b6112bd565b3480156106f5575f5ffd5b506104c7611331565b348015610709575f5ffd5b506102e3610718366004613bbf565b90565b348015610726575f5ffd5b506102c161133b565b34801561073a575f5ffd5b506102e3610749366004613c5f565b611357565b348015610759575f5ffd5b506102e3610768366004613c5f565b611392565b348015610778575f5ffd5b506104c7610787366004613bbf565b611410565b348015610797575f5ffd5b506103a76107a63660046136f1565b611437565b3480156107b6575f5ffd5b506102e36114a7565b3480156107ca575f5ffd5b506102986107d93660046136f1565b61152c565b5f6001600160e01b03198216630f8e315960e11b148061080e57506001600160e01b03198216632229f29760e21b145b8061081d575061081d82611556565b92915050565b60605f61082e61158a565b905080600301805461083f90613c9d565b80601f016020809104026020016040519081016040528092919081815260200182805461086b90613c9d565b80156108b65780601f1061088d576101008083540402835291602001916108b6565b820191905f5260205f20905b81548152906001019060200180831161089957829003601f168201915b505050505091505090565b5f5f6108cb6115ae565b6001015492915050565b5f61091f338661091a8787878080601f0160208091040260200160405190810160405280939291908181526020018383808284375f920191909152506115d292505050565b611633565b95945050505050565b5f5f6109326115ae565b54600160a01b900460ff1692915050565b5f5f61094d61158a565b6001600160a01b039093165f9081526020939093525050604090205490565b5f6109778833610f4c565b883390916109a357604051630f3e596760e31b815260040161099a929190613cd5565b60405180910390fd5b50506109f088886109e98989898080601f0160208091040260200160405190810160405280939291908181526020018383808284375f920191909152506115d292505050565b8686611693565b90506109fc81336116ea565b50979650505050505050565b610a1061170d565b610a198161173f565b50565b610a2461170d565b610a19816117d0565b610a35611865565b610a3e82611909565b610a488282611911565b5050565b5f610a556119c9565b505f5160206141fe5f395f51905f5290565b5f610a728433611a12565b84339091610a95576040516367cfe80560e01b815260040161099a929190613cef565b5050610aa43386868686611693565b9050610ab081336116ea565b50949350505050565b5f5f610ac361158a565b6002015492915050565b610ade610ad985611410565b611a1d565b5f610ae7611bb1565b5f86815260018083016020908152604092839020835180850190945280546001600160a01b0390811680865291909301549092169083015291925090610b2c90611a1d565b80602001516001600160a01b0316815f01516001600160a01b031614610b5957610b598160200151611a1d565b5f8681526001808401602052604090912080546001600160a01b03199081168255910180549091169055610b8f86868686611bd5565b505050505050565b5f610ba28233611a12565b82339091610bc5576040516367cfe80560e01b815260040161099a929190613cef565b5050610bd2338484611633565b9392505050565b5f610c238686610c1e8787878080601f0160208091040260200160405190810160405280939291908181526020018383808284375f920191909152506115d292505050565b611d6b565b9695505050505050565b5f5f5f610c38611bb1565b6002015460ff6401000000008204169460e09190911b9350915050565b5f5f610c5f6115ae565b546001600160a01b031692915050565b610c7761170d565b610c805f611ded565b565b60035f610c8d611e0f565b8054909150600160401b900460ff1680610cb4575080546001600160401b03808416911610155b15610cd25760405163f92ee8a960e01b815260040160405180910390fd5b805468ffffffffffffffffff19166001600160401b03831617600160401b17815584515f5b81811015610d2957610d21878281518110610d1457610d14613d06565b60200260200101516117d0565b600101610cf7565b505f610d33611bb1565b600201805460e088901c64ffffffffff1990911617640100000000871515021790555050805460ff60401b191681556040516001600160401b03831681525f5160206141de5f395f51905f529060200160405180910390a15050505050565b3380610d9c611331565b6001600160a01b031614610dc5578060405163118cdaa760e01b815260040161099a9190613982565b610a1981611ded565b5f610dd885611a1d565b846001600160a01b0316866001600160a01b031614610dfa57610dfa86611a1d565b610c238686868686611e33565b5f610e10611f43565b905090565b5f807f9016d09d72d40fdae2fd8ceac6b6234c7706214fd39c1cd1e609a0528c199300610c5f565b60605f610e4861158a565b905080600401805461083f90613c9d565b6040805160018082528183019092525f916020808301908036833701905050905084815f81518110610e8d57610e8d613d06565b6020026020010181815250505f84604051602001610eba91906001600160401b0391909116815260200190565b60408051601f198184030181526020601f87018190048102840181019092528583529250610f0691849184919088908890819084018382808284375f92019190915250611f7792505050565b6040516001600160401b038616815286907f83bbbc07896439e5d950a6cead04cbc676180af7a61cecf43f5296475057f5719060200160405180910390a2505050505050565b5f5f610f5661158a565b9050826001600160a01b0316846001600160a01b03161480610fa657506001600160a01b038085165f90815260018301602090815260408083209387168352929052205465ffffffffffff164211155b949350505050565b5f610fb833611a1d565b610bd28383611fe2565b60025f610fcd611e0f565b8054909150600160401b900460ff1680610ff4575080546001600160401b03808416911610155b156110125760405163f92ee8a960e01b815260040160405180910390fd5b805468ffffffffffffffffff19166001600160401b038316908117600160401b1760ff60401b191682556040519081525f5160206141de5f395f51905f529060200160405180910390a15050565b5f61106b8433611a12565b8433909161108e576040516367cfe80560e01b815260040161099a929190613cef565b505061109a8633610f4c565b863390916110bd57604051630f3e596760e31b815260040161099a929190613cd5565b50506110cc8686868686611693565b90506110d881336116ea565b5095945050505050565b610a4833838361208b565b5f6110f6611e0f565b805490915060ff600160401b82041615906001600160401b03165f8115801561111c5750825b90505f826001600160401b031660011480156111375750303b155b905081158015611145575080155b156111635760405163f92ee8a960e01b815260040160405180910390fd5b845467ffffffffffffffff19166001178555831561118d57845460ff60401b1916600160401b1785555b6111988a8a8a612115565b6111a187612128565b6111a9612139565b6111b286612149565b6111ba61215a565b83156111ed57845460ff60401b19168555604051600181525f5160206141de5f395f51905f529060200160405180910390a15b50505050505050505050565b6112038133611a12565b81339091611226576040516367cfe80560e01b815260040161099a929190613cef565b505061123181612162565b50604051339082907f189c3bfae2e5ce7726b29d57bb6ed0f1a7ebcd153a863ff5ecb6cd998064c98c905f90a350565b5f6112a633886109e98989898080601f0160208091040260200160405190810160405280939291908181526020018383808284375f920191909152506115d292505050565b90506112b281336116ea565b509695505050505050565b5f6112c88633610f4c565b863390916112eb57604051630f3e596760e31b815260040161099a929190613cd5565b50506110cc868661091a8787878080601f0160208091040260200160405190810160405280939291908181526020018383808284375f920191909152506115d292505050565b5f5f610c5f612181565b60605f61134661158a565b905080600501805461083f90613c9d565b5f6113628233611a12565b82339091611385576040516367cfe80560e01b815260040161099a929190613cef565b5050610fa6848484611d6b565b5f61139d8233611a12565b823390916113c0576040516367cfe80560e01b815260040161099a929190613cef565b50506113cc8433610f4c565b843390916113ef57604051630f3e596760e31b815260040161099a929190613cd5565b50506113fc848484611633565b905061140881336116ea565b509392505050565b5f5f61141a6115ae565b5f938452600201602052505060409020546001600160a01b031690565b61143f61170d565b5f611448612181565b80546001600160a01b0319166001600160a01b038416908117825590915061146e610e15565b6001600160a01b03167f38d16b8cac22d99fc7c124b9cd0de2d3fa1faef420bfe791d8c362d765e2270060405160405180910390a35050565b5f6114b06108c1565b6114b8610c55565b6001600160a01b03166370a08231306040518263ffffffff1660e01b81526004016114e39190613982565b602060405180830381865afa1580156114fe573d5f5f3e3d5ffd5b505050506040513d601f19601f820116820180604052508101906115229190613d1a565b610e109190613d59565b5f611535611bb1565b6001600160a01b039092165f90815260209290925250604090205460ff1690565b5f6001600160e01b031982166312563ca960e21b148061081d57506301ffc9a760e01b6001600160e01b031983161461081d565b7fabe6faf3f1b202c971f9850194a6389c7b24dbc9035a913f45a1f82a5d968c0090565b7f789981291a45bfde11e7ba326d04f33e2215f03c85dfc0acebcc6167a592470090565b5f81515f146115ee576115e7838360056121a5565b905061081d565b825f819003611608576116005f61228f565b91505061081d565b61161281336122a4565b6115e7578033604051630276b5d960e01b815260040161099a929190613cef565b5f806001600160a01b03851661165d5760405163ee457ebf60e01b815260040161099a9190613982565b505f6001600160a01b03841661168757604051638d51880160e01b815260040161099a9190613982565b50610fa684848461231f565b5f5f6116a0878787611633565b90505f6116b1338989858989612356565b90505f6116d1888a6116cc856116c65f61228f565b8861244f565b61231f565b90506116dd838261248e565b9998505050505050505050565b5f826116fc576116f95f61228f565b92505b61170683836124bc565b5090919050565b33611716610e15565b6001600160a01b031614610c80573360405163118cdaa760e01b815260040161099a9190613982565b5f611748611bb1565b6001600160a01b0383165f90815260208290526040902054909150829060ff166117865760405163dba8fc3d60e01b815260040161099a9190613982565b506001600160a01b0382165f81815260208390526040808220805460ff19169055517f798117ec059ab8d319461ef2502b1f9d8a47cd966bfd1f3e23b6f26c30bebb779190a25050565b5f6117d9611bb1565b6001600160a01b0383165f90815260208290526040902054909150829060ff16156118185760405163ee26295d60e01b815260040161099a9190613982565b506001600160a01b0382165f81815260208390526040808220805460ff19166001179055517fca86d8c91ca6d00afd863578cc633a0901fad724592f89649629fe65f61410d29190a25050565b306001600160a01b037f00000000000000000000000000000000000000000000000000000000000000001614806118eb57507f00000000000000000000000000000000000000000000000000000000000000006001600160a01b03166118df5f5160206141fe5f395f51905f52546001600160a01b031690565b6001600160a01b031614155b15610c805760405163703e46dd60e11b815260040160405180910390fd5b610a1961170d565b816001600160a01b03166352d1902d6040518163ffffffff1660e01b8152600401602060405180830381865afa92505050801561196b575060408051601f3d908101601f1916820190925261196891810190613d1a565b60015b61198a5781604051634c9c8ce360e01b815260040161099a9190613982565b5f5160206141fe5f395f51905f5281146119ba57604051632a87526960e21b81526004810182905260240161099a565b6119c48383612529565b505050565b306001600160a01b037f00000000000000000000000000000000000000000000000000000000000000001614610c805760405163703e46dd60e11b815260040160405180910390fd5b5f610bd283836122a4565b6001600160a01b038116611a2e5750565b611a378161152c565b158190611a585760405163256570c760e11b815260040161099a9190613982565b505f611a62611bb1565b6002810154909150640100000000900460ff1615610a48575f5f611a84610c55565b6001600160a01b0316836002015f9054906101000a900460e01b85604051602401611aaf9190613982565b60408051601f198184030181529181526020820180516001600160e01b03166001600160e01b0319909416939093179092529051611aed9190613d6c565b5f60405180830381855afa9150503d805f8114611b25576040519150601f19603f3d011682016040523d82523d5f602084013e611b2a565b606091505b509150915081611b4d57604051630df2238f60e21b815260040160405180910390fd5b8051602014611b6f5760405163264d1f9f60e01b815260040160405180910390fd5b5f81806020019051810190611b849190613d82565b9050801515600103611baa578460405162b1830760e61b815260040161099a9190613982565b5050505050565b7ffbb2c4771bcc77528b8fd58eedad6a4f84fdaf9eea4a56a2752391a0c87eee0090565b5f611bdf85611410565b9050846001600160a01b038216611c0c576040516368b187c760e11b815260040161099a91815260200190565b50845f611c176115ae565b5f88815260028201602052604080822080546001600160a01b03191690558051600180825281830190925292935090919081602001602082028036833701905050905082815f81518110611c6d57611c6d613d06565b6020026020010181815250505f87604051602001611c9a91906001600160401b0391909116815260200190565b60408051601f198184030181526020601f8a018190048102840181019092528883529250611ce69184918491908b908b90819084018382808284375f92019190915250611f7792505050565b611d12611cf1610c55565b86611cfa6108c1565b611d0d906001600160401b038d16613d9d565b61257e565b604080518581526001600160401b038a1660208201528a916001600160a01b038816917f87061fd1a5b3714805472c94c9eb8a6b8491992ee77791aa2594be67b92fd962910160405180910390a3505050505050505050565b5f611d7583611a1d565b5f611d7e611bb1565b90505f611d8c8686866125dd565b6040805180820182526001600160a01b03808a1682523360208084019182525f868152600198890190915293909320915182549082166001600160a01b03199182161783559251919095018054919095169116179092555090509392505050565b5f611df6612181565b80546001600160a01b03191681559050610a48826126fa565b7ff0c57e16840df040f15088dc2f81fe391c3923bec73e23a9662efc9c229c6a0090565b5f33611e3d610c55565b6001600160a01b0316143390611e675760405163782c6ffd60e01b815260040161099a9190613982565b505f60148310611e8357611e7b8385613db4565b60601c611e85565b855b90505f611eb382611eae611ea9611e9a6108c1565b611ea4908b613d59565b61276a565b61228f565b61279f565b90505f611ebe6108c1565b611ec89088613df7565b90508015611ee257611ee2611edb610c55565b898361257e565b6001600160a01b0383167fcda691c81d2fd787d8c209adb4ae8b138f857d7575adf7669195ed05482e701b611f17838a613e0a565b60408051918252602082018690520160405180910390a250632229f29760e21b98975050505050505050565b5f46600103611f525750600190565b4662aa36a703611f63575061271190565b46617a6903611f7257505f1990565b505f90565b5f611f838484846127d5565b905080611fa35760405163cf6c44e960e01b815260040160405180910390fd5b7fc6366bab028b8d033cb362cfd1f2f3457ef4e92fc738b6788b90d5a7846367a08484604051611fd4929190613e57565b60405180910390a150505050565b5f5f611fec6108c1565b611ff69084613df7565b6120009084613e0a565b905061201561200d610c55565b333084612856565b5f61203285611eae611ea96120286108c1565b611ea49089613d59565b905061203e81336116ea565b5060408051838152602081018390526001600160a01b038716917fcda691c81d2fd787d8c209adb4ae8b138f857d7575adf7669195ed05482e701b910160405180910390a2949350505050565b5f61209461158a565b6001600160a01b038581165f818152600184016020908152604080832094891680845294825291829020805465ffffffffffff191665ffffffffffff89169081179091559151918252939450919290917f921a218a75d18e8ec5704851e6b234a85725b21a2521ce889622c35dedc1fa12910160405180910390a350505050565b61211d612895565b6119c48383836128ba565b612130612895565b610a19816128f9565b612141612895565b610c80612997565b612151612895565b610a19816129af565b610c80612895565b5f81612174576121715f61228f565b91505b61217d826129e0565b5090565b7f237e158222e3e6968b72b9db0d8043aacf074ad9f650f0d1606b4d82ee432c0090565b5f5f6121af612a5b565b600181015460405163045fc19560e11b81529192506001600160a01b0316906308bf832a906121e8908890339089908990600401613e9b565b6020604051808303815f875af1158015612204573d5f5f3e3d5ffd5b505050506040513d601f19601f820116820180604052508101906122289190613d1a565b8154604051630f8e573b60e21b81529193506001600160a01b031690633e395cec9061225a9085903390600401613cef565b5f604051808303815f87803b158015612271575f5ffd5b505af1158015612283573d5f5f3e3d5ffd5b50505050509392505050565b5f61081d826001600160401b03166005612a7f565b5f5f6122ae612a5b565b80546040516382027b6d60e01b81529192506001600160a01b0316906382027b6d906122e09087908790600401613cef565b602060405180830381865afa1580156122fb573d5f5f3e3d5ffd5b505050506040513d601f19601f82011682018060405250810190610fa69190613d82565b5f336001600160a01b038516146123395761233933611a1d565b61234284611a1d565b61234b83611a1d565b610fa6848484612afe565b5f6001600160a01b0385163b1561243a576040516346083bfd60e01b81526001600160a01b038616906346083bfd9061239b908a908a90899089908990600401613ed3565b6020604051808303815f875af19250505080156123d5575060408051601f3d908101601f191682019092526123d291810190613d1a565b60015b612433573d808015612402576040519150601f19603f3d011682016040523d82523d5f602084013e612407565b606091505b5080515f0361242b5785604051638d51880160e01b815260040161099a9190613982565b805181602001fd5b9050610c23565b6124446001612b20565b979650505050505050565b5f836124615761245e5f612b20565b93505b826124725761246f5f61228f565b92505b81612483576124805f61228f565b91505b610fa6848484612b3b565b5f826124a05761249d5f61228f565b92505b816124b1576124ae5f61228f565b91505b610bd283835f612bc2565b5f6124c5612a5b565b8054604051630f8e573b60e21b81529192506001600160a01b031690633e395cec906124f79086908690600401613cef565b5f604051808303815f87803b15801561250e575f5ffd5b505af1158015612520573d5f5f3e3d5ffd5b50505050505050565b61253282612c58565b6040516001600160a01b038316907fbc7cd75a20ee27fd9adebab32041f755214dbc6bffa90cc0225b39da2e5c2d3b905f90a2805115612576576119c48282612cb2565b610a48612d1b565b6040516001600160a01b038381166024830152604482018390526119c491859182169063a9059cbb906064015b604051602081830303815290604052915060e01b6020820180516001600160e01b038381831617835250505050612d3a565b5f826001600160a01b03811661260757604051638d51880160e01b815260040161099a9190613982565b506001600160a01b03841633148061262457506126248433610f4c565b8433909161264757604051630f3e596760e31b815260040161099a929190613cd5565b50505f6126548584612d9d565b905061265f81612162565b505f61266a82611410565b6001600160a01b03161461268057612680613f23565b5f6126896115ae565b5f83815260028201602090815260409182902080546001600160a01b0319166001600160a01b038a16908117909155915185815292935084928392917f4b1bfb262557cf08a74ddeefb8aef086b81deb08484bdc1820b9f420cdd1aa0e910160405180910390a39695505050505050565b7f9016d09d72d40fdae2fd8ceac6b6234c7706214fd39c1cd1e609a0528c19930080546001600160a01b031981166001600160a01b03848116918217845560405192169182907f8be0079c531659141344cd1fd0a4f28419497f9722a3daafe3b4186f6b6457e0905f90a3505050565b5f6001600160401b0382111561217d57604080516306dfcc6560e41b815260048101919091526024810183905260440161099a565b5f806001600160a01b0384166127c957604051638d51880160e01b815260040161099a9190613982565b50610bd25f848461231f565b5f5f6127df612a5b565b60028101546040516378542ead60e01b81529192506001600160a01b0316906378542ead9061281690889088908890600401613f37565b6020604051808303815f875af1158015612832573d5f5f3e3d5ffd5b505050506040513d601f19601f8201168201806040525081019061091f9190613d82565b6040516001600160a01b03848116602483015283811660448301526064820183905261288f9186918216906323b872dd906084016125ab565b50505050565b61289d612dd3565b610c8057604051631afcd79f60e31b815260040160405180910390fd5b6128c2612895565b5f6128cb61158a565b9050600381016128db8582613fb3565b50600481016128ea8482613fb3565b5060058101611baa8382613fb3565b612901612895565b5f61290a6115ae565b80546001600160a01b0319166001600160a01b03841617815590505f61292f83612dec565b9050600660ff821681101561297357825460ff60a01b1916600160a01b60ff83160217835561295e818361406d565b61296990600a614169565b600184015561288f565b825460ff8316600160a01b0260ff60a01b1990911617835560018084015550505050565b61299f612895565b610c806129aa612ea1565b612ef5565b6129b7612895565b6001600160a01b038116610dc5575f604051631e4fbdf760e01b815260040161099a9190613982565b5f6129e9612a5b565b6040805160018082528183019092529192505f91906020808301908036833701905050905082815f81518110612a2157612a21613d06565b60209081029190910101528154604051637d6e912360e11b81526001600160a01b039091169063fadd2246906124f7908490600401614177565b7f9e7b61f58c47dc699ac88507c4f5bb9f121c03808c5676a8078fe583e464970090565b5f5f612a89612a5b565b6001810154604051639cd07acb60e01b81529192506001600160a01b031690639cd07acb90612abe9087908790600401614189565b6020604051808303815f875af1158015612ada573d5f5f3e3d5ffd5b505050506040513d601f19601f82011682018060405250810190610fa69190613d1a565b5f6001600160a01b038416612b1557612b15612efe565b610fa6848484612f2d565b5f61081d82612b2f575f612b32565b60015b60ff165f612a7f565b5f5f612b45612a5b565b6001810154604051637702dcff60e01b81526004810188905260248101879052604481018690529192506001600160a01b031690637702dcff906064016020604051808303815f875af1158015612b9e573d5f5f3e3d5ffd5b505050506040513d601f19601f8201168201806040525081019061091f9190613d1a565b5f5f8215612bd55750600160f81b612bd8565b505f5b5f612be1612a5b565b60018101546040516303056db360e31b81529192506001600160a01b03169063182b6d9890612c189089908990879060040161419d565b6020604051808303815f875af1158015612c34573d5f5f3e3d5ffd5b505050506040513d601f19601f82011682018060405250810190610c239190613d1a565b806001600160a01b03163b5f03612c845780604051634c9c8ce360e01b815260040161099a9190613982565b5f5160206141fe5f395f51905f5280546001600160a01b0319166001600160a01b0392909216919091179055565b60605f5f846001600160a01b031684604051612cce9190613d6c565b5f60405180830381855af49150503d805f8114612d06576040519150601f19603f3d011682016040523d82523d5f602084013e612d0b565b606091505b509150915061091f858383613113565b3415610c805760405163b398979f60e01b815260040160405180910390fd5b5f5f60205f8451602086015f885af180612d59576040513d5f823e3d81fd5b50505f513d91508115612d70578060011415612d7d565b6001600160a01b0384163b155b1561288f5783604051635274afe760e01b815260040161099a9190613982565b5f806001600160a01b038416612dc75760405163ee457ebf60e01b815260040161099a9190613982565b50610bd2835f8461231f565b5f612ddc611e0f565b54600160401b900460ff16919050565b60408051600481526024810182526020810180516001600160e01b031663313ce56760e01b17905290515f91829182916001600160a01b03861691612e319190613d6c565b5f60405180830381855afa9150503d805f8114612e69576040519150601f19603f3d011682016040523d82523d5f602084013e612e6e565b606091505b5091509150818015612e81575080516020145b15612e9a5780806020019051810190610fa691906141bd565b6012610fa6565b612ea96135b5565b46600103612eb957610e10613166565b4662aa36a703612ecb57610e106131c9565b46617a6903612edc57610e1061322c565b6040516373cac13b60e01b815260040160405180910390fd5b610a198161328f565b6001600160401b03612f0e6114a7565b1115610c805760405163a9e53fc360e01b815260040160405180910390fd5b5f5f612f3761158a565b90505f806001600160a01b038716612f7257612f578360020154866132e5565b9092509050612f658161332f565b5060028301819055612feb565b6001600160a01b0387165f908152602084905260409020548781612faa576040516317fe473760e21b815260040161099a9190613982565b50612fb5818761334b565b9093509150612fc38261332f565b50612fce82896133b0565b50506001600160a01b0387165f9081526020849052604090208190555b612ffe8286612ff95f61228f565b61244f565b93506001600160a01b0386166130345761301c83600201548561248e565b90506130278161332f565b5060028301819055613088565b6001600160a01b0386165f9081526020849052604090205461305690856133cc565b90506130618161332f565b5061306c81876133b0565b506001600160a01b0386165f9081526020849052604090208190555b6001600160a01b038716156130a3576130a184886133b0565b505b6001600160a01b038616156130be576130bc84876133b0565b505b6130c78461332f565b5083866001600160a01b0316886001600160a01b03167f67500e8d0ed826d2194f514dd0d8124f35648ab6e3fb5e6ed867134cffe661e960405160405180910390a45050509392505050565b60608261312857613123826133fa565b610bd2565b815115801561313f57506001600160a01b0384163b155b1561315f5783604051639996b31560e01b815260040161099a9190613982565b5080610bd2565b61316e6135b5565b506040805160608101825273ca2e8f1f656cd25c01f05d0b243ab1ecd4a8ffb6815273d82385dada1ae3e969447f20a3164f6213100e7560208201527377627828a55156b04ac0dc0eb30467f1a552bb039181019190915290565b6131d16135b5565b506040805160608101825273f0ffdc93b7e186bc2f8cb3daa75d86d1930a433d81527392c920834ec8941d2c77d188936e1f7a6f49c127602082015273be0e383937d564d7ff0bc3b46c51f0bf8d5c311a9181019190915290565b6132346135b5565b50604080516060810182527350157cffd6bbfa2dece204a89ec419c23ef5755d815273e3a9105a3a932253a70f126eb1e3b589c643dd24602082015273901f8942346f7ab3a01f6d7613119bca447bb0309181019190915290565b5f613298612a5b565b825181546001600160a01b03199081166001600160a01b03928316178355602085015160018401805483169184169190911790556040909401516002909201805490941691161790915550565b5f8083613300576132f66001612b20565b8391509150613328565b5f61330b85856133cc565b90506133178186613423565b925061332483828761244f565b9150505b9250929050565b5f816133415761333e5f61228f565b91505b61217d8230613451565b5f8083613387578261336b576133616001612b20565b8491509150613328565b613375835f61348c565b61337e5f61228f565b91509150613328565b6133918484613423565b91506133a7826133a1868661248e565b8661244f565b90509250929050565b5f826133c2576133bf5f61228f565b92505b6117068383613451565b5f826133de576133db5f61228f565b92505b816133ef576133ec5f61228f565b91505b610bd283835f6134b3565b80511561340a5780518082602001fd5b60405163d6bda27560e01b815260040160405180910390fd5b5f82613435576134325f61228f565b92505b81613446576134435f61228f565b91505b610bd283835f613509565b5f61345a612a5b565b8054604051635ca4b5b160e11b81529192506001600160a01b03169063b9496b62906124f79086908690600401613cef565b5f8261349e5761349b5f61228f565b92505b610bd2836001600160401b038416600161355f565b5f5f82156134c65750600160f81b6134c9565b505f5b5f6134d2612a5b565b600181015460405163022f65e760e31b81529192506001600160a01b03169063117b2f3890612c189089908990879060040161419d565b5f5f821561351c5750600160f81b61351f565b505f5b5f613528612a5b565b6001810154604051631391547f60e01b81529192506001600160a01b031690631391547f90612c189089908990879060040161419d565b5f5f82156135725750600160f81b613575565b505f5b5f61357e612a5b565b600181015460405163f77f3f1d60e01b81529192506001600160a01b03169063f77f3f1d90612c189089908990879060040161419d565b604080516060810182525f808252602082018190529181019190915290565b80356001600160e01b0319811681146135eb575f5ffd5b919050565b5f60208284031215613600575f5ffd5b610bd2826135d4565b5f81518084528060208401602086015e5f602082860101526020601f19601f83011685010191505092915050565b602081525f610bd26020830184613609565b6001600160a01b0381168114610a19575f5ffd5b5f5f83601f84011261366d575f5ffd5b5081356001600160401b03811115613683575f5ffd5b602083019150836020828501011115613328575f5ffd5b5f5f5f5f606085870312156136ad575f5ffd5b84356136b881613649565b93506020850135925060408501356001600160401b038111156136d9575f5ffd5b6136e58782880161365d565b95989497509550505050565b5f60208284031215613701575f5ffd5b8135610bd281613649565b5f5f5f5f5f5f5f60a0888a031215613722575f5ffd5b873561372d81613649565b9650602088013561373d81613649565b95506040880135945060608801356001600160401b0381111561375e575f5ffd5b61376a8a828b0161365d565b90955093505060808801356001600160401b03811115613788575f5ffd5b6137948a828b0161365d565b989b979a50959850939692959293505050565b634e487b7160e01b5f52604160045260245ffd5b604051601f8201601f191681016001600160401b03811182821017156137e3576137e36137a7565b604052919050565b5f5f6001600160401b03841115613804576138046137a7565b50601f8301601f1916602001613819816137bb565b91505082815283838301111561382d575f5ffd5b828260208301375f602084830101529392505050565b5f5f60408385031215613854575f5ffd5b823561385f81613649565b915060208301356001600160401b03811115613879575f5ffd5b8301601f81018513613889575f5ffd5b613324858235602084016137eb565b80356001600160401b03811681146135eb575f5ffd5b5f5f5f5f606085870312156138c1575f5ffd5b843593506138d160208601613898565b925060408501356001600160401b038111156136d9575f5ffd5b5f5f604083850312156138fc575f5ffd5b823561390781613649565b946020939093013593505050565b5f5f5f5f5f60808688031215613929575f5ffd5b853561393481613649565b9450602086013561394481613649565b93506040860135925060608601356001600160401b03811115613965575f5ffd5b6139718882890161365d565b969995985093965092949392505050565b6001600160a01b0391909116815260200190565b8015158114610a19575f5ffd5b80356135eb81613996565b5f5f5f606084860312156139c0575f5ffd5b83356001600160401b038111156139d5575f5ffd5b8401601f810186136139e5575f5ffd5b80356001600160401b038111156139fe576139fe6137a7565b8060051b613a0e602082016137bb565b91825260208184018101929081019089841115613a29575f5ffd5b6020850194505b83851015613a575784359250613a4583613649565b82825260209485019490910190613a30565b8097505050505050613a6b602085016135d4565b9150613a79604085016139a3565b90509250925092565b5f5f60408385031215613a93575f5ffd5b8235613a9e81613649565b91506020830135613aae81613649565b809150509250929050565b5f5f60408385031215613aca575f5ffd5b8235613ad581613649565b9150602083013565ffffffffffff81168114613aae575f5ffd5b5f82601f830112613afe575f5ffd5b610bd2838335602085016137eb565b5f5f5f5f5f60a08688031215613b21575f5ffd5b85356001600160401b03811115613b36575f5ffd5b613b4288828901613aef565b95505060208601356001600160401b03811115613b5d575f5ffd5b613b6988828901613aef565b94505060408601356001600160401b03811115613b84575f5ffd5b613b9088828901613aef565b9350506060860135613ba181613649565b91506080860135613bb181613649565b809150509295509295909350565b5f60208284031215613bcf575f5ffd5b5035919050565b5f5f5f5f5f5f60808789031215613beb575f5ffd5b8635613bf681613649565b95506020870135945060408701356001600160401b03811115613c17575f5ffd5b613c2389828a0161365d565b90955093505060608701356001600160401b03811115613c41575f5ffd5b613c4d89828a0161365d565b979a9699509497509295939492505050565b5f5f5f60608486031215613c71575f5ffd5b8335613c7c81613649565b92506020840135613c8c81613649565b929592945050506040919091013590565b600181811c90821680613cb157607f821691505b602082108103613ccf57634e487b7160e01b5f52602260045260245ffd5b50919050565b6001600160a01b0392831681529116602082015260400190565b9182526001600160a01b0316602082015260400190565b634e487b7160e01b5f52603260045260245ffd5b5f60208284031215613d2a575f5ffd5b5051919050565b634e487b7160e01b5f52601260045260245ffd5b634e487b7160e01b5f52601160045260245ffd5b5f82613d6757613d67613d31565b500490565b5f82518060208501845e5f920191825250919050565b5f60208284031215613d92575f5ffd5b8151610bd281613996565b808202811582820484141761081d5761081d613d45565b80356bffffffffffffffffffffffff198116906014841015613df0576001600160601b03196001600160601b03198560140360031b1b82161691505b5092915050565b5f82613e0557613e05613d31565b500690565b8181038181111561081d5761081d613d45565b5f8151808452602084019350602083015f5b82811015613e4d578151865260209586019590910190600101613e2f565b5093949350505050565b604081525f613e696040830185613e1d565b828103602084015261091f8185613609565b60548110613e9757634e487b7160e01b5f52602160045260245ffd5b9052565b8481526001600160a01b03841660208201526080604082018190525f90613ec490830185613609565b905061091f6060830184613e7b565b6001600160a01b03868116825285166020820152604081018490526080606082018190528101829052818360a08301375f81830160a090810191909152601f909201601f19160101949350505050565b634e487b7160e01b5f52600160045260245ffd5b606081525f613f496060830186613e1d565b8281036020840152613f5b8186613609565b90508281036040840152610c238185613609565b601f8211156119c457805f5260205f20601f840160051c81016020851015613f945750805b601f840160051c820191505b81811015611baa575f8155600101613fa0565b81516001600160401b03811115613fcc57613fcc6137a7565b613fe081613fda8454613c9d565b84613f6f565b6020601f821160018114614012575f8315613ffb5750848201515b5f19600385901b1c1916600184901b178455611baa565b5f84815260208120601f198516915b828110156140415787850151825560209485019460019092019101614021565b508482101561405e57868401515f19600387901b60f8161c191681555b50505050600190811b01905550565b60ff828116828216039081111561081d5761081d613d45565b6001815b60018411156140c1578085048111156140a5576140a5613d45565b60018416156140b357908102905b60019390931c92800261408a565b935093915050565b5f826140d75750600161081d565b816140e357505f61081d565b81600181146140f957600281146141035761411f565b600191505061081d565b60ff84111561411457614114613d45565b50506001821b61081d565b5060208310610133831016604e8410600b8410161715614142575081810a61081d565b61414e5f198484614086565b805f190482111561416157614161613d45565b029392505050565b5f610bd260ff8416836140c9565b602081525f610bd26020830184613e1d565b82815260408101610bd26020830184613e7b565b92835260208301919091526001600160f81b031916604082015260600190565b5f602082840312156141cd575f5ffd5b815160ff81168114610bd2575f5ffdfec7f505b2f371ae2175ee4913f4499e1f2633a7b5936321eed1cdaeb6115181d2360894a13ba1a3210667c828492db98dca3e2076cc3735a920a3ca505d382bbca26469706673582212200c58aa516e98cf0d030ac162e2d84eb80fa7014fabc5271cde0543f9f5db35e164736f6c634300081b0033",
        "nonce": "0x18",
        "chainId": "0x7a69"
      },
      "additionalContracts": [],
      "isFixedGasLimit": false
    },
    {
      "hash": "0xe2065d331df24feddf23a78a4f4ce2920eeff3b70c1bfc2ce14acc21035322d8",
      "transactionType": "CREATE",
      "contractName": "TestERC20",
      "contractAddress": "0x4a679253410272dd5232b3ff7cf5dbb88f295319",
      "function": null,
      "arguments": [
        "ERC20 Token",
        "ERC20",
        "6"
      ],
      "transaction": {
        "from": "0xf39fd6e51aad88f6f4ce6ab8827279cfffb92266",
        "to": null,
        "value": "0x0",
        "input": "0x608060405234801561000f575f5ffd5b50604051610a35380380610a3583398101604081905261002e91610106565b8282600361003c8382610207565b5060046100498282610207565b50506005805460ff191660ff9390931692909217909155506102c1915050565b634e487b7160e01b5f52604160045260245ffd5b5f82601f83011261008c575f5ffd5b81516001600160401b038111156100a5576100a5610069565b604051601f8201601f19908116603f011681016001600160401b03811182821017156100d3576100d3610069565b6040528181528382016020018510156100ea575f5ffd5b8160208501602083015e5f918101602001919091529392505050565b5f5f5f60608486031215610118575f5ffd5b83516001600160401b0381111561012d575f5ffd5b6101398682870161007d565b602086015190945090506001600160401b03811115610156575f5ffd5b6101628682870161007d565b925050604084015160ff81168114610178575f5ffd5b809150509250925092565b600181811c9082168061019757607f821691505b6020821081036101b557634e487b7160e01b5f52602260045260245ffd5b50919050565b601f82111561020257805f5260205f20601f840160051c810160208510156101e05750805b601f840160051c820191505b818110156101ff575f81556001016101ec565b50505b505050565b81516001600160401b0381111561022057610220610069565b6102348161022e8454610183565b846101bb565b6020601f821160018114610266575f831561024f5750848201515b5f19600385901b1c1916600184901b1784556101ff565b5f84815260208120601f198516915b828110156102955787850151825560209485019460019092019101610275565b50848210156102b257868401515f19600387901b60f8161c191681555b50505050600190811b01905550565b610767806102ce5f395ff3fe608060405234801561000f575f5ffd5b50600436106100a6575f3560e01c806332424aa31161006e57806332424aa31461012957806340c10f191461013657806370a082311461014b57806395d89b4114610173578063a9059cbb1461017b578063dd62ed3e1461018e575f5ffd5b806306fdde03146100aa578063095ea7b3146100c857806318160ddd146100eb57806323b872dd146100fd578063313ce56714610110575b5f5ffd5b6100b26101a1565b6040516100bf91906105a2565b60405180910390f35b6100db6100d63660046105f2565b610231565b60405190151581526020016100bf565b6002545b6040519081526020016100bf565b6100db61010b36600461061a565b61024a565b60055460ff165b60405160ff90911681526020016100bf565b6005546101179060ff1681565b6101496101443660046105f2565b61026d565b005b6100ef610159366004610654565b6001600160a01b03165f9081526020819052604090205490565b6100b261027b565b6100db6101893660046105f2565b61028a565b6100ef61019c366004610674565b610297565b6060600380546101b0906106a5565b80601f01602080910402602001604051908101604052809291908181526020018280546101dc906106a5565b80156102275780601f106101fe57610100808354040283529160200191610227565b820191905f5260205f20905b81548152906001019060200180831161020a57829003601f168201915b5050505050905090565b5f3361023e8185856102c1565b60019150505b92915050565b5f336102578582856102d3565b61026285858561032c565b506001949350505050565b6102778282610389565b5050565b6060600480546101b0906106a5565b5f3361023e81858561032c565b6001600160a01b039182165f90815260016020908152604080832093909416825291909152205490565b6102ce83838360016103bd565b505050565b5f6102de8484610297565b90505f198114610326578181101561031857828183604051637dc7a0d960e11b815260040161030f939291906106dd565b60405180910390fd5b61032684848484035f6103bd565b50505050565b6001600160a01b038316610355575f604051634b637e8f60e11b815260040161030f91906106fe565b6001600160a01b03821661037e575f60405163ec442f0560e01b815260040161030f91906106fe565b6102ce83838361048f565b6001600160a01b0382166103b2575f60405163ec442f0560e01b815260040161030f91906106fe565b6102775f838361048f565b6001600160a01b0384166103e6575f60405163e602df0560e01b815260040161030f91906106fe565b6001600160a01b03831661040f575f604051634a1406b160e11b815260040161030f91906106fe565b6001600160a01b038085165f908152600160209081526040808320938716835292905220829055801561032657826001600160a01b0316846001600160a01b03167f8c5be1e5ebec7d5bd14f71427d1e84f3dd0314c0f7b2291e5b200ac8c7c3b9258460405161048191815260200190565b60405180910390a350505050565b6001600160a01b0383166104b9578060025f8282546104ae9190610712565b909155506105169050565b6001600160a01b0383165f90815260208190526040902054818110156104f85783818360405163391434e360e21b815260040161030f939291906106dd565b6001600160a01b0384165f9081526020819052604090209082900390555b6001600160a01b03821661053257600280548290039055610550565b6001600160a01b0382165f9081526020819052604090208054820190555b816001600160a01b0316836001600160a01b03167fddf252ad1be2c89b69c2b068fc378daa952ba7f163c4a11628f55a4df523b3ef8360405161059591815260200190565b60405180910390a3505050565b602081525f82518060208401528060208501604085015e5f604082850101526040601f19601f83011684010191505092915050565b80356001600160a01b03811681146105ed575f5ffd5b919050565b5f5f60408385031215610603575f5ffd5b61060c836105d7565b946020939093013593505050565b5f5f5f6060848603121561062c575f5ffd5b610635846105d7565b9250610643602085016105d7565b929592945050506040919091013590565b5f60208284031215610664575f5ffd5b61066d826105d7565b9392505050565b5f5f60408385031215610685575f5ffd5b61068e836105d7565b915061069c602084016105d7565b90509250929050565b600181811c908216806106b957607f821691505b6020821081036106d757634e487b7160e01b5f52602260045260245ffd5b50919050565b6001600160a01b039390931683526020830191909152604082015260600190565b6001600160a01b0391909116815260200190565b8082018082111561024457634e487b7160e01b5f52601160045260245ffdfea2646970667358221220fa93f442e6cdfd16841b542207c829e1e553bc4dfb8af01b858b93fabf6e4e1a64736f6c634300081b0033000000000000000000000000000000000000000000000000000000000000006000000000000000000000000000000000000000000000000000000000000000a00000000000000000000000000000000000000000000000000000000000000006000000000000000000000000000000000000000000000000000000000000000b455243323020546f6b656e00000000000000000000000000000000000000000000000000000000000000000000000000000000000000000000000000000000054552433230000000000000000000000000000000000000000000000000000000",
        "nonce": "0x19",
        "chainId": "0x7a69"
      },
      "additionalContracts": [],
      "isFixedGasLimit": false
    },
    {
      "hash": "0x2126a334705071e37db950ef627dd144bdbc3b971ea45fa68ad212f163f0efdd",
      "transactionType": "CREATE",
      "contractName": "TestERC20",
      "contractAddress": "0x7a2088a1bfc9d81c55368ae168c2c02570cb814f",
      "function": null,
      "arguments": [
        "Tether USD",
        "USDT",
        "6"
      ],
      "transaction": {
        "from": "0xf39fd6e51aad88f6f4ce6ab8827279cfffb92266",
        "to": null,
        "value": "0x0",
        "input": "0x608060405234801561000f575f5ffd5b50604051610a35380380610a3583398101604081905261002e91610106565b8282600361003c8382610207565b5060046100498282610207565b50506005805460ff191660ff9390931692909217909155506102c1915050565b634e487b7160e01b5f52604160045260245ffd5b5f82601f83011261008c575f5ffd5b81516001600160401b038111156100a5576100a5610069565b604051601f8201601f19908116603f011681016001600160401b03811182821017156100d3576100d3610069565b6040528181528382016020018510156100ea575f5ffd5b8160208501602083015e5f918101602001919091529392505050565b5f5f5f60608486031215610118575f5ffd5b83516001600160401b0381111561012d575f5ffd5b6101398682870161007d565b602086015190945090506001600160401b03811115610156575f5ffd5b6101628682870161007d565b925050604084015160ff81168114610178575f5ffd5b809150509250925092565b600181811c9082168061019757607f821691505b6020821081036101b557634e487b7160e01b5f52602260045260245ffd5b50919050565b601f82111561020257805f5260205f20601f840160051c810160208510156101e05750805b601f840160051c820191505b818110156101ff575f81556001016101ec565b50505b505050565b81516001600160401b0381111561022057610220610069565b6102348161022e8454610183565b846101bb565b6020601f821160018114610266575f831561024f5750848201515b5f19600385901b1c1916600184901b1784556101ff565b5f84815260208120601f198516915b828110156102955787850151825560209485019460019092019101610275565b50848210156102b257868401515f19600387901b60f8161c191681555b50505050600190811b01905550565b610767806102ce5f395ff3fe608060405234801561000f575f5ffd5b50600436106100a6575f3560e01c806332424aa31161006e57806332424aa31461012957806340c10f191461013657806370a082311461014b57806395d89b4114610173578063a9059cbb1461017b578063dd62ed3e1461018e575f5ffd5b806306fdde03146100aa578063095ea7b3146100c857806318160ddd146100eb57806323b872dd146100fd578063313ce56714610110575b5f5ffd5b6100b26101a1565b6040516100bf91906105a2565b60405180910390f35b6100db6100d63660046105f2565b610231565b60405190151581526020016100bf565b6002545b6040519081526020016100bf565b6100db61010b36600461061a565b61024a565b60055460ff165b60405160ff90911681526020016100bf565b6005546101179060ff1681565b6101496101443660046105f2565b61026d565b005b6100ef610159366004610654565b6001600160a01b03165f9081526020819052604090205490565b6100b261027b565b6100db6101893660046105f2565b61028a565b6100ef61019c366004610674565b610297565b6060600380546101b0906106a5565b80601f01602080910402602001604051908101604052809291908181526020018280546101dc906106a5565b80156102275780601f106101fe57610100808354040283529160200191610227565b820191905f5260205f20905b81548152906001019060200180831161020a57829003601f168201915b5050505050905090565b5f3361023e8185856102c1565b60019150505b92915050565b5f336102578582856102d3565b61026285858561032c565b506001949350505050565b6102778282610389565b5050565b6060600480546101b0906106a5565b5f3361023e81858561032c565b6001600160a01b039182165f90815260016020908152604080832093909416825291909152205490565b6102ce83838360016103bd565b505050565b5f6102de8484610297565b90505f198114610326578181101561031857828183604051637dc7a0d960e11b815260040161030f939291906106dd565b60405180910390fd5b61032684848484035f6103bd565b50505050565b6001600160a01b038316610355575f604051634b637e8f60e11b815260040161030f91906106fe565b6001600160a01b03821661037e575f60405163ec442f0560e01b815260040161030f91906106fe565b6102ce83838361048f565b6001600160a01b0382166103b2575f60405163ec442f0560e01b815260040161030f91906106fe565b6102775f838361048f565b6001600160a01b0384166103e6575f60405163e602df0560e01b815260040161030f91906106fe565b6001600160a01b03831661040f575f604051634a1406b160e11b815260040161030f91906106fe565b6001600160a01b038085165f908152600160209081526040808320938716835292905220829055801561032657826001600160a01b0316846001600160a01b03167f8c5be1e5ebec7d5bd14f71427d1e84f3dd0314c0f7b2291e5b200ac8c7c3b9258460405161048191815260200190565b60405180910390a350505050565b6001600160a01b0383166104b9578060025f8282546104ae9190610712565b909155506105169050565b6001600160a01b0383165f90815260208190526040902054818110156104f85783818360405163391434e360e21b815260040161030f939291906106dd565b6001600160a01b0384165f9081526020819052604090209082900390555b6001600160a01b03821661053257600280548290039055610550565b6001600160a01b0382165f9081526020819052604090208054820190555b816001600160a01b0316836001600160a01b03167fddf252ad1be2c89b69c2b068fc378daa952ba7f163c4a11628f55a4df523b3ef8360405161059591815260200190565b60405180910390a3505050565b602081525f82518060208401528060208501604085015e5f604082850101526040601f19601f83011684010191505092915050565b80356001600160a01b03811681146105ed575f5ffd5b919050565b5f5f60408385031215610603575f5ffd5b61060c836105d7565b946020939093013593505050565b5f5f5f6060848603121561062c575f5ffd5b610635846105d7565b9250610643602085016105d7565b929592945050506040919091013590565b5f60208284031215610664575f5ffd5b61066d826105d7565b9392505050565b5f5f60408385031215610685575f5ffd5b61068e836105d7565b915061069c602084016105d7565b90509250929050565b600181811c908216806106b957607f821691505b6020821081036106d757634e487b7160e01b5f52602260045260245ffd5b50919050565b6001600160a01b039390931683526020830191909152604082015260600190565b6001600160a01b0391909116815260200190565b8082018082111561024457634e487b7160e01b5f52601160045260245ffdfea2646970667358221220fa93f442e6cdfd16841b542207c829e1e553bc4dfb8af01b858b93fabf6e4e1a64736f6c634300081b0033000000000000000000000000000000000000000000000000000000000000006000000000000000000000000000000000000000000000000000000000000000a00000000000000000000000000000000000000000000000000000000000000006000000000000000000000000000000000000000000000000000000000000000a546574686572205553440000000000000000000000000000000000000000000000000000000000000000000000000000000000000000000000000000000000045553445400000000000000000000000000000000000000000000000000000000",
        "nonce": "0x1a",
        "chainId": "0x7a69"
      },
      "additionalContracts": [],
      "isFixedGasLimit": false
    },
    {
      "hash": "0x26ff69a4c5ae5f2220aec30eab5b057538047fbd153d2cf0a4fed8cb694add4e",
      "transactionType": "CREATE",
      "contractName": "ERC1967Proxy",
      "contractAddress": "0x09635f643e140090a9a8dcd712ed6285858cebef",
      "function": null,
      "arguments": [
        "0xa85233C63b9Ee964Add6F2cffe00Fd84eb32338f",
        "0xd6d0faee00000000000000000000000000000000000000000000000000000000000000a000000000000000000000000000000000000000000000000000000000000000e000000000000000000000000000000000000000000000000000000000000001200000000000000000000000004a679253410272dd5232b3ff7cf5dbb88f295319000000000000000000000000f39fd6e51aad88f6f4ce6ab8827279cfffb922660000000000000000000000000000000000000000000000000000000000000018436f6e666964656e7469616c20455243323020546f6b656e0000000000000000000000000000000000000000000000000000000000000000000000000000000663455243323000000000000000000000000000000000000000000000000000000000000000000000000000000000000000000000000000000000000000000050646174613a6170706c69636174696f6e2f6a736f6e3b757466382c7b226e616d65223a22436f6e666964656e7469616c20455243323020546f6b656e222c2273796d626f6c223a22634552433230227d00000000000000000000000000000000"
      ],
      "transaction": {
        "from": "0xf39fd6e51aad88f6f4ce6ab8827279cfffb92266",
        "to": null,
        "value": "0x0",
        "input": "0x60806040526040516103d03803806103d08339810160408190526100229161023c565b61002c8282610033565b5050610321565b61003c82610091565b6040516001600160a01b038316907fbc7cd75a20ee27fd9adebab32041f755214dbc6bffa90cc0225b39da2e5c2d3b905f90a280511561008557610080828261010c565b505050565b61008d61017f565b5050565b806001600160a01b03163b5f036100cb57604051634c9c8ce360e01b81526001600160a01b03821660048201526024015b60405180910390fd5b7f360894a13ba1a3210667c828492db98dca3e2076cc3735a920a3ca505d382bbc80546001600160a01b0319166001600160a01b0392909216919091179055565b60605f5f846001600160a01b031684604051610128919061030b565b5f60405180830381855af49150503d805f8114610160576040519150601f19603f3d011682016040523d82523d5f602084013e610165565b606091505b5090925090506101768583836101a0565b95945050505050565b341561019e5760405163b398979f60e01b815260040160405180910390fd5b565b6060826101b5576101b0826101ff565b6101f8565b81511580156101cc57506001600160a01b0384163b155b156101f557604051639996b31560e01b81526001600160a01b03851660048201526024016100c2565b50805b9392505050565b80511561020f5780518082602001fd5b60405163d6bda27560e01b815260040160405180910390fd5b634e487b7160e01b5f52604160045260245ffd5b5f5f6040838503121561024d575f5ffd5b82516001600160a01b0381168114610263575f5ffd5b60208401519092506001600160401b0381111561027e575f5ffd5b8301601f8101851361028e575f5ffd5b80516001600160401b038111156102a7576102a7610228565b604051601f8201601f19908116603f011681016001600160401b03811182821017156102d5576102d5610228565b6040528181528282016020018710156102ec575f5ffd5b8160208401602083015e5f602083830101528093505050509250929050565b5f82518060208501845e5f920191825250919050565b60a38061032d5f395ff3fe6080604052600a600c565b005b60186014601a565b6050565b565b5f604b7f360894a13ba1a3210667c828492db98dca3e2076cc3735a920a3ca505d382bbc546001600160a01b031690565b905090565b365f5f375f5f365f845af43d5f5f3e8080156069573d5ff35b3d5ffdfea26469706673582212209592a4cfaff650a15bbf011408a9aa356fb215f69c30920d1bd9e629d57f69de64736f6c634300081b0033000000000000000000000000a85233c63b9ee964add6f2cffe00fd84eb32338f000000000000000000000000000000000000000000000000000000000000004000000000000000000000000000000000000000000000000000000000000001a4d6d0faee00000000000000000000000000000000000000000000000000000000000000a000000000000000000000000000000000000000000000000000000000000000e000000000000000000000000000000000000000000000000000000000000001200000000000000000000000004a679253410272dd5232b3ff7cf5dbb88f295319000000000000000000000000f39fd6e51aad88f6f4ce6ab8827279cfffb922660000000000000000000000000000000000000000000000000000000000000018436f6e666964656e7469616c20455243323020546f6b656e0000000000000000000000000000000000000000000000000000000000000000000000000000000663455243323000000000000000000000000000000000000000000000000000000000000000000000000000000000000000000000000000000000000000000050646174613a6170706c69636174696f6e2f6a736f6e3b757466382c7b226e616d65223a22436f6e666964656e7469616c20455243323020546f6b656e222c2273796d626f6c223a22634552433230227d0000000000000000000000000000000000000000000000000000000000000000000000000000000000000000",
        "nonce": "0x1b",
        "chainId": "0x7a69"
      },
      "additionalContracts": [],
      "isFixedGasLimit": false
    },
    {
      "hash": "0x8f712e8f2b42d75eb7cc98c31462a0993413fb33fc0506df02f054f68d8fc591",
      "transactionType": "CREATE",
      "contractName": "ERC1967Proxy",
      "contractAddress": "0xc5a5c42992decbae36851359345fe25997f5c42d",
      "function": null,
      "arguments": [
        "0xa85233C63b9Ee964Add6F2cffe00Fd84eb32338f",
        "0xd6d0faee00000000000000000000000000000000000000000000000000000000000000a000000000000000000000000000000000000000000000000000000000000000e000000000000000000000000000000000000000000000000000000000000001200000000000000000000000007a2088a1bfc9d81c55368ae168c2c02570cb814f000000000000000000000000f39fd6e51aad88f6f4ce6ab8827279cfffb922660000000000000000000000000000000000000000000000000000000000000017436f6e666964656e7469616c205465746865722055534400000000000000000000000000000000000000000000000000000000000000000000000000000000056355534454000000000000000000000000000000000000000000000000000000000000000000000000000000000000000000000000000000000000000000004e646174613a6170706c69636174696f6e2f6a736f6e3b757466382c7b226e616d65223a22436f6e666964656e7469616c2054657468657220555344222c2273796d626f6c223a226355534454227d000000000000000000000000000000000000"
      ],
      "transaction": {
        "from": "0xf39fd6e51aad88f6f4ce6ab8827279cfffb92266",
        "to": null,
        "value": "0x0",
        "input": "0x60806040526040516103d03803806103d08339810160408190526100229161023c565b61002c8282610033565b5050610321565b61003c82610091565b6040516001600160a01b038316907fbc7cd75a20ee27fd9adebab32041f755214dbc6bffa90cc0225b39da2e5c2d3b905f90a280511561008557610080828261010c565b505050565b61008d61017f565b5050565b806001600160a01b03163b5f036100cb57604051634c9c8ce360e01b81526001600160a01b03821660048201526024015b60405180910390fd5b7f360894a13ba1a3210667c828492db98dca3e2076cc3735a920a3ca505d382bbc80546001600160a01b0319166001600160a01b0392909216919091179055565b60605f5f846001600160a01b031684604051610128919061030b565b5f60405180830381855af49150503d805f8114610160576040519150601f19603f3d011682016040523d82523d5f602084013e610165565b606091505b5090925090506101768583836101a0565b95945050505050565b341561019e5760405163b398979f60e01b815260040160405180910390fd5b565b6060826101b5576101b0826101ff565b6101f8565b81511580156101cc57506001600160a01b0384163b155b156101f557604051639996b31560e01b81526001600160a01b03851660048201526024016100c2565b50805b9392505050565b80511561020f5780518082602001fd5b60405163d6bda27560e01b815260040160405180910390fd5b634e487b7160e01b5f52604160045260245ffd5b5f5f6040838503121561024d575f5ffd5b82516001600160a01b0381168114610263575f5ffd5b60208401519092506001600160401b0381111561027e575f5ffd5b8301601f8101851361028e575f5ffd5b80516001600160401b038111156102a7576102a7610228565b604051601f8201601f19908116603f011681016001600160401b03811182821017156102d5576102d5610228565b6040528181528282016020018710156102ec575f5ffd5b8160208401602083015e5f602083830101528093505050509250929050565b5f82518060208501845e5f920191825250919050565b60a38061032d5f395ff3fe6080604052600a600c565b005b60186014601a565b6050565b565b5f604b7f360894a13ba1a3210667c828492db98dca3e2076cc3735a920a3ca505d382bbc546001600160a01b031690565b905090565b365f5f375f5f365f845af43d5f5f3e8080156069573d5ff35b3d5ffdfea26469706673582212209592a4cfaff650a15bbf011408a9aa356fb215f69c30920d1bd9e629d57f69de64736f6c634300081b0033000000000000000000000000a85233c63b9ee964add6f2cffe00fd84eb32338f000000000000000000000000000000000000000000000000000000000000004000000000000000000000000000000000000000000000000000000000000001a4d6d0faee00000000000000000000000000000000000000000000000000000000000000a000000000000000000000000000000000000000000000000000000000000000e000000000000000000000000000000000000000000000000000000000000001200000000000000000000000007a2088a1bfc9d81c55368ae168c2c02570cb814f000000000000000000000000f39fd6e51aad88f6f4ce6ab8827279cfffb922660000000000000000000000000000000000000000000000000000000000000017436f6e666964656e7469616c205465746865722055534400000000000000000000000000000000000000000000000000000000000000000000000000000000056355534454000000000000000000000000000000000000000000000000000000000000000000000000000000000000000000000000000000000000000000004e646174613a6170706c69636174696f6e2f6a736f6e3b757466382c7b226e616d65223a22436f6e666964656e7469616c2054657468657220555344222c2273796d626f6c223a226355534454227d00000000000000000000000000000000000000000000000000000000000000000000000000000000000000000000",
        "nonce": "0x1c",
        "chainId": "0x7a69"
      },
      "additionalContracts": [],
      "isFixedGasLimit": false
    },
    {
      "hash": "0xadc49948fb8e0ead03240d088b7b78ea0bc722628880394c3858860fc730ca21",
      "transactionType": "CREATE",
      "contractName": "TestERC1363",
      "contractAddress": "0x67d269191c92caf3cd7723f116c85e6e9bf55933",
      "function": null,
      "arguments": [
        "ERC1363 Token",
        "ERC1363",
        "6"
      ],
      "transaction": {
        "from": "0xf39fd6e51aad88f6f4ce6ab8827279cfffb92266",
        "to": null,
        "value": "0x0",
        "input": "0x608060405234801561000f575f5ffd5b506040516110b63803806110b683398101604081905261002e91610106565b8282600361003c8382610207565b5060046100498282610207565b50506005805460ff191660ff9390931692909217909155506102c1915050565b634e487b7160e01b5f52604160045260245ffd5b5f82601f83011261008c575f5ffd5b81516001600160401b038111156100a5576100a5610069565b604051601f8201601f19908116603f011681016001600160401b03811182821017156100d3576100d3610069565b6040528181528382016020018510156100ea575f5ffd5b8160208501602083015e5f918101602001919091529392505050565b5f5f5f60608486031215610118575f5ffd5b83516001600160401b0381111561012d575f5ffd5b6101398682870161007d565b602086015190945090506001600160401b03811115610156575f5ffd5b6101628682870161007d565b925050604084015160ff81168114610178575f5ffd5b809150509250925092565b600181811c9082168061019757607f821691505b6020821081036101b557634e487b7160e01b5f52602260045260245ffd5b50919050565b601f82111561020257805f5260205f20601f840160051c810160208510156101e05750805b601f840160051c820191505b818110156101ff575f81556001016101ec565b50505b505050565b81516001600160401b0381111561022057610220610069565b6102348161022e8454610183565b846101bb565b6020601f821160018114610266575f831561024f5750848201515b5f19600385901b1c1916600184901b1784556101ff565b5f84815260208120601f198516915b828110156102955787850151825560209485019460019092019101610275565b50848210156102b257868401515f19600387901b60f8161c191681555b50505050600190811b01905550565b610de8806102ce5f395ff3fe608060405234801561000f575f5ffd5b50600436106100e8575f3560e01c80634000aea01161008f5780634000aea01461019c57806340c10f19146101af57806370a08231146101c457806395d89b41146101ec578063a9059cbb146101f4578063c1d34b8914610207578063cae9ca511461021a578063d8fbe9941461022d578063dd62ed3e14610240575f5ffd5b806301ffc9a7146100ec57806306fdde0314610114578063095ea7b3146101295780631296ee621461013c57806318160ddd1461014f57806323b872dd14610161578063313ce567146101745780633177029f14610189575b5f5ffd5b6100ff6100fa366004610a28565b610253565b60405190151581526020015b60405180910390f35b61011c610289565b60405161010b9190610a71565b6100ff610137366004610a9e565b610319565b6100ff61014a366004610a9e565b610330565b6002545b60405190815260200161010b565b6100ff61016f366004610ac6565b610351565b60055460405160ff909116815260200161010b565b6100ff610197366004610a9e565b610374565b6100ff6101aa366004610b9f565b61038e565b6101c26101bd366004610a9e565b6103da565b005b6101536101d2366004610bf2565b6001600160a01b03165f9081526020819052604090205490565b61011c6103e8565b6100ff610202366004610a9e565b6103f7565b6100ff610215366004610c0b565b610404565b6100ff610228366004610b9f565b610454565b6100ff61023b366004610ac6565b61049a565b61015361024e366004610c6f565b6104bd565b5f6001600160e01b0319821663b0202a1160e01b148061028357506301ffc9a760e01b6001600160e01b03198316145b92915050565b60606003805461029890610ca0565b80601f01602080910402602001604051908101604052809291908181526020018280546102c490610ca0565b801561030f5780601f106102e65761010080835404028352916020019161030f565b820191905f5260205f20905b8154815290600101906020018083116102f257829003601f168201915b5050505050905090565b5f336103268185856104e7565b5060019392505050565b5f61034a838360405180602001604052805f81525061038e565b9392505050565b5f3361035e8582856104f9565b610369858585610549565b506001949350505050565b5f61034a838360405180602001604052805f815250610454565b5f61039984846103f7565b6103cd5760405163118d81d760e11b81526001600160a01b0385166004820152602481018490526044015b60405180910390fd5b61032633338686866105a6565b6103e482826106d8565b5050565b60606004805461029890610ca0565b5f33610326818585610549565b5f610410858585610351565b61044757604051635ab42af360e11b81526001600160a01b03808716600483015285166024820152604481018490526064016103c4565b61036933868686866105a6565b5f61045f8484610319565b61048e57604051631439557160e21b81526001600160a01b0385166004820152602481018490526044016103c4565b6103263385858561070c565b5f6104b584848460405180602001604052805f815250610404565b949350505050565b6001600160a01b039182165f90815260016020908152604080832093909416825291909152205490565b6104f4838383600161082b565b505050565b5f61050484846104bd565b90505f198114610543578181101561053557828183604051637dc7a0d960e11b81526004016103c493929190610cd8565b61054384848484035f61082b565b50505050565b6001600160a01b038316610572575f604051634b637e8f60e11b81526004016103c49190610cf9565b6001600160a01b03821661059b575f60405163ec442f0560e01b81526004016103c49190610cf9565b6104f48383836108fd565b826001600160a01b03163b5f036105d257826040516322a5b36760e21b81526004016103c49190610cf9565b604051632229f29760e21b81526001600160a01b038416906388a7ca5c90610604908890889087908790600401610d0d565b6020604051808303815f875af192505050801561063e575060408051601f3d908101601f1916820190925261063b91810190610d49565b60015b61069c573d80801561066b576040519150601f19603f3d011682016040523d82523d5f602084013e610670565b606091505b5080515f0361069457836040516322a5b36760e21b81526004016103c49190610cf9565b805181602001fd5b6001600160e01b03198116632229f29760e21b146106cf57836040516322a5b36760e21b81526004016103c49190610cf9565b505b5050505050565b6001600160a01b038216610701575f60405163ec442f0560e01b81526004016103c49190610cf9565b6103e45f83836108fd565b826001600160a01b03163b5f03610738578260405163deb6d3ed60e01b81526004016103c49190610cf9565b6040516307b04a2d60e41b81526001600160a01b03841690637b04a2d09061076890879086908690600401610d64565b6020604051808303815f875af19250505080156107a2575060408051601f3d908101601f1916820190925261079f91810190610d49565b60015b6107f8573d8080156107cf576040519150601f19603f3d011682016040523d82523d5f602084013e6107d4565b606091505b5080515f03610694578360405163deb6d3ed60e01b81526004016103c49190610cf9565b6001600160e01b031981166307b04a2d60e41b146106d1578360405163deb6d3ed60e01b81526004016103c49190610cf9565b6001600160a01b038416610854575f60405163e602df0560e01b81526004016103c49190610cf9565b6001600160a01b03831661087d575f604051634a1406b160e11b81526004016103c49190610cf9565b6001600160a01b038085165f908152600160209081526040808320938716835292905220829055801561054357826001600160a01b0316846001600160a01b03167f8c5be1e5ebec7d5bd14f71427d1e84f3dd0314c0f7b2291e5b200ac8c7c3b925846040516108ef91815260200190565b60405180910390a350505050565b6001600160a01b038316610927578060025f82825461091c9190610d93565b909155506109849050565b6001600160a01b0383165f90815260208190526040902054818110156109665783818360405163391434e360e21b81526004016103c493929190610cd8565b6001600160a01b0384165f9081526020819052604090209082900390555b6001600160a01b0382166109a0576002805482900390556109be565b6001600160a01b0382165f9081526020819052604090208054820190555b816001600160a01b0316836001600160a01b03167fddf252ad1be2c89b69c2b068fc378daa952ba7f163c4a11628f55a4df523b3ef83604051610a0391815260200190565b60405180910390a3505050565b6001600160e01b031981168114610a25575f5ffd5b50565b5f60208284031215610a38575f5ffd5b813561034a81610a10565b5f81518084528060208401602086015e5f602082860101526020601f19601f83011685010191505092915050565b602081525f61034a6020830184610a43565b80356001600160a01b0381168114610a99575f5ffd5b919050565b5f5f60408385031215610aaf575f5ffd5b610ab883610a83565b946020939093013593505050565b5f5f5f60608486031215610ad8575f5ffd5b610ae184610a83565b9250610aef60208501610a83565b929592945050506040919091013590565b634e487b7160e01b5f52604160045260245ffd5b5f82601f830112610b23575f5ffd5b813567ffffffffffffffff811115610b3d57610b3d610b00565b604051601f8201601f19908116603f0116810167ffffffffffffffff81118282101715610b6c57610b6c610b00565b604052818152838201602001851015610b83575f5ffd5b816020850160208301375f918101602001919091529392505050565b5f5f5f60608486031215610bb1575f5ffd5b610bba84610a83565b925060208401359150604084013567ffffffffffffffff811115610bdc575f5ffd5b610be886828701610b14565b9150509250925092565b5f60208284031215610c02575f5ffd5b61034a82610a83565b5f5f5f5f60808587031215610c1e575f5ffd5b610c2785610a83565b9350610c3560208601610a83565b925060408501359150606085013567ffffffffffffffff811115610c57575f5ffd5b610c6387828801610b14565b91505092959194509250565b5f5f60408385031215610c80575f5ffd5b610c8983610a83565b9150610c9760208401610a83565b90509250929050565b600181811c90821680610cb457607f821691505b602082108103610cd257634e487b7160e01b5f52602260045260245ffd5b50919050565b6001600160a01b039390931683526020830191909152604082015260600190565b6001600160a01b0391909116815260200190565b6001600160a01b03858116825284166020820152604081018390526080606082018190525f90610d3f90830184610a43565b9695505050505050565b5f60208284031215610d59575f5ffd5b815161034a81610a10565b60018060a01b0384168152826020820152606060408201525f610d8a6060830184610a43565b95945050505050565b8082018082111561028357634e487b7160e01b5f52601160045260245ffdfea26469706673582212205ad19263c5d628308f1434e7007ce0a5147d11143bbf6a0a835638bd3744ad9064736f6c634300081b0033000000000000000000000000000000000000000000000000000000000000006000000000000000000000000000000000000000000000000000000000000000a00000000000000000000000000000000000000000000000000000000000000006000000000000000000000000000000000000000000000000000000000000000d4552433133363320546f6b656e0000000000000000000000000000000000000000000000000000000000000000000000000000000000000000000000000000074552433133363300000000000000000000000000000000000000000000000000",
        "nonce": "0x1d",
        "chainId": "0x7a69"
      },
      "additionalContracts": [],
      "isFixedGasLimit": false
    },
    {
      "hash": "0xe98a56b6e4dda318fb35db7068bd90bbe0a0725e8bc0aba542e2c170e848c855",
      "transactionType": "CREATE",
      "contractName": "ERC1967Proxy",
      "contractAddress": "0xe6e340d132b5f46d1e472debcd681b2abc16e57e",
      "function": null,
      "arguments": [
        "0xa85233C63b9Ee964Add6F2cffe00Fd84eb32338f",
        "0xd6d0faee00000000000000000000000000000000000000000000000000000000000000a000000000000000000000000000000000000000000000000000000000000000e0000000000000000000000000000000000000000000000000000000000000012000000000000000000000000067d269191c92caf3cd7723f116c85e6e9bf55933000000000000000000000000f39fd6e51aad88f6f4ce6ab8827279cfffb92266000000000000000000000000000000000000000000000000000000000000001a436f6e666964656e7469616c204552433133363320546f6b656e000000000000000000000000000000000000000000000000000000000000000000000000000863455243313336330000000000000000000000000000000000000000000000000000000000000000000000000000000000000000000000000000000000000054646174613a6170706c69636174696f6e2f6a736f6e3b757466382c7b226e616d65223a22436f6e666964656e7469616c204552433133363320546f6b656e222c2273796d626f6c223a226345524331333633227d000000000000000000000000"
      ],
      "transaction": {
        "from": "0xf39fd6e51aad88f6f4ce6ab8827279cfffb92266",
        "to": null,
        "value": "0x0",
        "input": "0x60806040526040516103d03803806103d08339810160408190526100229161023c565b61002c8282610033565b5050610321565b61003c82610091565b6040516001600160a01b038316907fbc7cd75a20ee27fd9adebab32041f755214dbc6bffa90cc0225b39da2e5c2d3b905f90a280511561008557610080828261010c565b505050565b61008d61017f565b5050565b806001600160a01b03163b5f036100cb57604051634c9c8ce360e01b81526001600160a01b03821660048201526024015b60405180910390fd5b7f360894a13ba1a3210667c828492db98dca3e2076cc3735a920a3ca505d382bbc80546001600160a01b0319166001600160a01b0392909216919091179055565b60605f5f846001600160a01b031684604051610128919061030b565b5f60405180830381855af49150503d805f8114610160576040519150601f19603f3d011682016040523d82523d5f602084013e610165565b606091505b5090925090506101768583836101a0565b95945050505050565b341561019e5760405163b398979f60e01b815260040160405180910390fd5b565b6060826101b5576101b0826101ff565b6101f8565b81511580156101cc57506001600160a01b0384163b155b156101f557604051639996b31560e01b81526001600160a01b03851660048201526024016100c2565b50805b9392505050565b80511561020f5780518082602001fd5b60405163d6bda27560e01b815260040160405180910390fd5b634e487b7160e01b5f52604160045260245ffd5b5f5f6040838503121561024d575f5ffd5b82516001600160a01b0381168114610263575f5ffd5b60208401519092506001600160401b0381111561027e575f5ffd5b8301601f8101851361028e575f5ffd5b80516001600160401b038111156102a7576102a7610228565b604051601f8201601f19908116603f011681016001600160401b03811182821017156102d5576102d5610228565b6040528181528282016020018710156102ec575f5ffd5b8160208401602083015e5f602083830101528093505050509250929050565b5f82518060208501845e5f920191825250919050565b60a38061032d5f395ff3fe6080604052600a600c565b005b60186014601a565b6050565b565b5f604b7f360894a13ba1a3210667c828492db98dca3e2076cc3735a920a3ca505d382bbc546001600160a01b031690565b905090565b365f5f375f5f365f845af43d5f5f3e8080156069573d5ff35b3d5ffdfea26469706673582212209592a4cfaff650a15bbf011408a9aa356fb215f69c30920d1bd9e629d57f69de64736f6c634300081b0033000000000000000000000000a85233c63b9ee964add6f2cffe00fd84eb32338f000000000000000000000000000000000000000000000000000000000000004000000000000000000000000000000000000000000000000000000000000001a4d6d0faee00000000000000000000000000000000000000000000000000000000000000a000000000000000000000000000000000000000000000000000000000000000e0000000000000000000000000000000000000000000000000000000000000012000000000000000000000000067d269191c92caf3cd7723f116c85e6e9bf55933000000000000000000000000f39fd6e51aad88f6f4ce6ab8827279cfffb92266000000000000000000000000000000000000000000000000000000000000001a436f6e666964656e7469616c204552433133363320546f6b656e000000000000000000000000000000000000000000000000000000000000000000000000000863455243313336330000000000000000000000000000000000000000000000000000000000000000000000000000000000000000000000000000000000000054646174613a6170706c69636174696f6e2f6a736f6e3b757466382c7b226e616d65223a22436f6e666964656e7469616c204552433133363320546f6b656e222c2273796d626f6c223a226345524331333633227d00000000000000000000000000000000000000000000000000000000000000000000000000000000",
        "nonce": "0x1e",
        "chainId": "0x7a69"
      },
      "additionalContracts": [],
      "isFixedGasLimit": false
    },
    {
      "hash": "0xc936f41cea7c4026925c86d294322c44f4bcfb4cc4c0281514177ca5ea873dfd",
      "transactionType": "CALL",
      "contractName": "TestERC20",
      "contractAddress": "0x4a679253410272dd5232b3ff7cf5dbb88f295319",
      "function": "mint(address,uint256)",
      "arguments": [
        "0xf39Fd6e51aad88F6F4ce6aB8827279cffFb92266",
        "10000000000"
      ],
      "transaction": {
        "from": "0xf39fd6e51aad88f6f4ce6ab8827279cfffb92266",
        "to": "0x4a679253410272dd5232b3ff7cf5dbb88f295319",
        "value": "0x0",
        "input": "0x40c10f19000000000000000000000000f39fd6e51aad88f6f4ce6ab8827279cfffb9226600000000000000000000000000000000000000000000000000000002540be400",
        "nonce": "0x1f",
        "chainId": "0x7a69"
      },
      "additionalContracts": [],
      "isFixedGasLimit": false
    },
    {
      "hash": "0x7318f0b7ec7a230069ff9ca7846923b6df863008a4c1a9b574224af046691c3c",
      "transactionType": "CALL",
      "contractName": "TestERC20",
      "contractAddress": "0x7a2088a1bfc9d81c55368ae168c2c02570cb814f",
      "function": "mint(address,uint256)",
      "arguments": [
        "0xf39Fd6e51aad88F6F4ce6aB8827279cffFb92266",
        "10000000000"
      ],
      "transaction": {
        "from": "0xf39fd6e51aad88f6f4ce6ab8827279cfffb92266",
        "to": "0x7a2088a1bfc9d81c55368ae168c2c02570cb814f",
        "value": "0x0",
        "input": "0x40c10f19000000000000000000000000f39fd6e51aad88f6f4ce6ab8827279cfffb9226600000000000000000000000000000000000000000000000000000002540be400",
        "nonce": "0x20",
        "chainId": "0x7a69"
      },
      "additionalContracts": [],
      "isFixedGasLimit": false
    },
    {
      "hash": "0xefcc63a6f8353488d03c85ca13537a66c921468dd1872c3125db788268d08736",
      "transactionType": "CALL",
      "contractName": "TestERC1363",
      "contractAddress": "0x67d269191c92caf3cd7723f116c85e6e9bf55933",
      "function": "mint(address,uint256)",
      "arguments": [
        "0xf39Fd6e51aad88F6F4ce6aB8827279cffFb92266",
        "10000000000"
      ],
      "transaction": {
        "from": "0xf39fd6e51aad88f6f4ce6ab8827279cfffb92266",
        "to": "0x67d269191c92caf3cd7723f116c85e6e9bf55933",
        "value": "0x0",
        "input": "0x40c10f19000000000000000000000000f39fd6e51aad88f6f4ce6ab8827279cfffb9226600000000000000000000000000000000000000000000000000000002540be400",
        "nonce": "0x21",
        "chainId": "0x7a69"
      },
      "additionalContracts": [],
      "isFixedGasLimit": false
    },
    {
      "hash": "0xc195cb3f55ce2b7f7d70cf81f27ce8a95d4058e1562d3d7302df62e46925c3cb",
      "transactionType": "CALL",
      "contractName": "TestERC20",
      "contractAddress": "0x4a679253410272dd5232b3ff7cf5dbb88f295319",
      "function": "approve(address,uint256)",
      "arguments": [
        "0x09635F643e140090A9A8Dcd712eD6285858ceBef",
        "1000000000"
      ],
      "transaction": {
        "from": "0xf39fd6e51aad88f6f4ce6ab8827279cfffb92266",
        "to": "0x4a679253410272dd5232b3ff7cf5dbb88f295319",
        "value": "0x0",
        "input": "0x095ea7b300000000000000000000000009635f643e140090a9a8dcd712ed6285858cebef000000000000000000000000000000000000000000000000000000003b9aca00",
        "nonce": "0x22",
        "chainId": "0x7a69"
      },
      "additionalContracts": [],
      "isFixedGasLimit": false
    },
    {
      "hash": "0x814ca45aaf44b0e3b87c16bd076ddfa73cb661b55039f129732be384eae385d6",
      "transactionType": "CALL",
      "contractName": "ERC1967Proxy",
      "contractAddress": "0x09635f643e140090a9a8dcd712ed6285858cebef",
      "function": null,
      "arguments": null,
      "transaction": {
        "from": "0xf39fd6e51aad88f6f4ce6ab8827279cfffb92266",
        "to": "0x09635f643e140090a9a8dcd712ed6285858cebef",
        "value": "0x0",
        "input": "0xbf376c7a000000000000000000000000f39fd6e51aad88f6f4ce6ab8827279cfffb92266000000000000000000000000000000000000000000000000000000003b9aca00",
        "nonce": "0x23",
        "chainId": "0x7a69"
      },
      "additionalContracts": [],
      "isFixedGasLimit": false
    },
    {
      "hash": "0x61243c8c8b006a57863aa424b32184af65c63d7c441665872fd743fdc8d2423d",
      "transactionType": "CALL",
      "contractName": "TestERC20",
      "contractAddress": "0x7a2088a1bfc9d81c55368ae168c2c02570cb814f",
      "function": "approve(address,uint256)",
      "arguments": [
        "0xc5a5C42992dECbae36851359345FE25997F5C42d",
        "1000000000"
      ],
      "transaction": {
        "from": "0xf39fd6e51aad88f6f4ce6ab8827279cfffb92266",
        "to": "0x7a2088a1bfc9d81c55368ae168c2c02570cb814f",
        "value": "0x0",
        "input": "0x095ea7b3000000000000000000000000c5a5c42992decbae36851359345fe25997f5c42d000000000000000000000000000000000000000000000000000000003b9aca00",
        "nonce": "0x24",
        "chainId": "0x7a69"
      },
      "additionalContracts": [],
      "isFixedGasLimit": false
    },
    {
      "hash": "0xc41146d0274f75aa4562fb2d9fd119ed8c706f211d5b85acd4b60c2c942a2c1a",
      "transactionType": "CALL",
      "contractName": "ERC1967Proxy",
      "contractAddress": "0xc5a5c42992decbae36851359345fe25997f5c42d",
      "function": null,
      "arguments": null,
      "transaction": {
        "from": "0xf39fd6e51aad88f6f4ce6ab8827279cfffb92266",
        "to": "0xc5a5c42992decbae36851359345fe25997f5c42d",
        "value": "0x0",
        "input": "0xbf376c7a000000000000000000000000f39fd6e51aad88f6f4ce6ab8827279cfffb92266000000000000000000000000000000000000000000000000000000003b9aca00",
        "nonce": "0x25",
        "chainId": "0x7a69"
      },
      "additionalContracts": [],
      "isFixedGasLimit": false
    },
    {
      "hash": "0xb40dad3f9c41808a3fc502d4bfee68bc6d279ca7727e3742c7108755210fc57e",
      "transactionType": "CALL",
      "contractName": "TestERC1363",
      "contractAddress": "0x67d269191c92caf3cd7723f116c85e6e9bf55933",
      "function": "approve(address,uint256)",
      "arguments": [
        "0xE6E340D132b5f46d1e472DebcD681B2aBc16e57E",
        "1000000000"
      ],
      "transaction": {
        "from": "0xf39fd6e51aad88f6f4ce6ab8827279cfffb92266",
        "to": "0x67d269191c92caf3cd7723f116c85e6e9bf55933",
        "value": "0x0",
        "input": "0x095ea7b3000000000000000000000000e6e340d132b5f46d1e472debcd681b2abc16e57e000000000000000000000000000000000000000000000000000000003b9aca00",
        "nonce": "0x26",
        "chainId": "0x7a69"
      },
      "additionalContracts": [],
      "isFixedGasLimit": false
    },
    {
      "hash": "0x48010d59fb826f6a49f3403d9d7821469f6ba3e5e8b5fdcbb4a44d051dfdec1a",
      "transactionType": "CALL",
      "contractName": "ERC1967Proxy",
      "contractAddress": "0xe6e340d132b5f46d1e472debcd681b2abc16e57e",
      "function": null,
      "arguments": null,
      "transaction": {
        "from": "0xf39fd6e51aad88f6f4ce6ab8827279cfffb92266",
        "to": "0xe6e340d132b5f46d1e472debcd681b2abc16e57e",
        "value": "0x0",
        "input": "0xbf376c7a000000000000000000000000f39fd6e51aad88f6f4ce6ab8827279cfffb92266000000000000000000000000000000000000000000000000000000003b9aca00",
        "nonce": "0x27",
        "chainId": "0x7a69"
      },
      "additionalContracts": [],
      "isFixedGasLimit": false
    },
    {
      "hash": "0x3d3050e2f0280477b22969783a90114ea5f25ae7ac10027b265bd56582edb3be",
      "transactionType": "CREATE",
      "contractName": "ConfidentialTokenWrappersRegistry",
      "contractAddress": "0x70e0ba845a1a0f2da3359c97e0285013525ffc49",
      "function": null,
      "arguments": null,
      "transaction": {
        "from": "0xf39fd6e51aad88f6f4ce6ab8827279cfffb92266",
        "to": null,
        "value": "0x0",
        "input": "0x60a060405230608052348015610013575f5ffd5b5061001c610021565b6100d3565b7ff0c57e16840df040f15088dc2f81fe391c3923bec73e23a9662efc9c229c6a00805468010000000000000000900460ff16156100715760405163f92ee8a960e01b815260040160405180910390fd5b80546001600160401b03908116146100d05780546001600160401b0319166001600160401b0390811782556040519081527fc7f505b2f371ae2175ee4913f4499e1f2633a7b5936321eed1cdaeb6115181d29060200160405180910390a15b50565b60805161162c6100f95f395f8181610d2001528181610d490152610e84015261162c5ff3fe608060405260043610610101575f3560e01c8063975df1041161009d578063da7c231d11610062578063da7c231d146102f1578063dd5ab62914610320578063e30c39781461033f578063f2fde38b14610353578063f63a098014610372575f5ffd5b8063975df10414610219578063ad3cb1cc14610238578063b8d7b66914610275578063c43db057146102b3578063c4d66de8146102d2575f5ffd5b80633790f83214610105578063483cdcf41461013a5780634f1ef2861461015c57806352d1902d1461017157806366c0bd2414610185578063715018a6146101a457806379ba5097146101b85780638da5cb5b146101cc57806390c60535146101ed575b5f5ffd5b348015610110575f5ffd5b5061012461011f3660046112fb565b610386565b604051610131919061133b565b60405180910390f35b348015610145575f5ffd5b5061014e610414565b604051908152602001610131565b61016f61016a366004611378565b610426565b005b34801561017c575f5ffd5b5061014e610445565b348015610190575f5ffd5b5061014e61019f36600461143c565b610460565b3480156101af575f5ffd5b5061016f6104ce565b3480156101c3575f5ffd5b5061016f6104e1565b3480156101d7575f5ffd5b506101e0610520565b6040516101319190611455565b3480156101f8575f5ffd5b5061020c610207366004611469565b610554565b6040516101319190611489565b348015610224575f5ffd5b5061016f61023336600461143c565b6106ae565b348015610243575f5ffd5b50610268604051806040016040528060058152602001640352e302e360dc1b81525081565b60405161013191906114d6565b348015610280575f5ffd5b5061029461028f36600461143c565b6107fb565b6040805192151583526001600160a01b03909116602083015201610131565b3480156102be575f5ffd5b5061016f6102cd36600461150b565b61083c565b3480156102dd575f5ffd5b5061016f6102ec36600461143c565b610a6c565b3480156102fc575f5ffd5b5061031061030b36600461143c565b610b7a565b6040519015158152602001610131565b34801561032b575f5ffd5b5061029461033a36600461143c565b610ba7565b34801561034a575f5ffd5b506101e0610be3565b34801561035e575f5ffd5b5061016f61036d36600461143c565b610bed565b34801561037d575f5ffd5b5061020c610c5d565b604080516060810182525f80825260208201819052918101919091526103aa610cf1565b60040182815481106103be576103be61153c565b5f9182526020918290206040805160608101825260029390930290910180546001600160a01b03908116845260019091015490811693830193909352600160a01b90920460ff1615159181019190915292915050565b5f61041d610cf1565b60040154919050565b61042e610d15565b61043782610db9565b6104418282610dc1565b5050565b5f61044e610e79565b505f5160206115d75f395f51905f5290565b5f5f61046b83610ba7565b9150506001600160a01b0381166104a0578260405163ddef98d760e01b81526004016104979190611455565b60405180910390fd5b5f6104a9610cf1565b6001600160a01b039094165f9081526003949094016020525050604090912054919050565b6104d6610ec2565b6104df5f610ef4565b565b33806104eb610be3565b6001600160a01b031614610514578060405163118cdaa760e01b81526004016104979190611455565b61051d81610ef4565b50565b5f807f9016d09d72d40fdae2fd8ceac6b6234c7706214fd39c1cd1e609a0528c1993005b546001600160a01b031692915050565b6060828211610580576040516332da11f960e11b81526004810184905260248101839052604401610497565b5f61058b8484611564565b67ffffffffffffffff8111156105a3576105a3611364565b6040519080825280602002602001820160405280156105ec57816020015b604080516060810182525f80825260208083018290529282015282525f199092019101816105c15790505b5090505f6105fa8585611564565b90505f5b818110156106a25761060e610cf1565b60040161061b8288611577565b8154811061062b5761062b61153c565b5f9182526020918290206040805160608101825260029390930290910180546001600160a01b03908116845260019091015490811693830193909352600160a01b90920460ff16151591810191909152835184908390811061068f5761068f61153c565b60209081029190910101526001016105fe565b50909150505b92915050565b6106b6610ec2565b6001600160a01b0381166106dd5760405163296b281160e01b815260040160405180910390fd5b5f5f6106e8836107fb565b90925090506001600160a01b03811661071657826040516325810ab360e01b81526004016104979190611455565b816107365782604051633da332b560e11b81526004016104979190611455565b5f61073f610cf1565b6001600160a01b038086165f9081526002830160209081526040808320805460ff1916905592861682526003840190529081205460048301805493945090928390811061078e5761078e61153c565b905f5260205f20906002020160010160146101000a81548160ff021916908315150217905550846001600160a01b0316836001600160a01b03167f9ad1148ea3c1565ed31fe78bfac14e54ac5d04fb74b22e47780055b92df6387060405160405180910390a35050505050565b5f5f5f61080784610b7a565b90505f610812610cf1565b6001600160a01b039586165f90815260019190910160205260409020549195919094169350915050565b610844610ec2565b6001600160a01b03821661086b57604051635d1a467d60e11b815260040160405180910390fd5b6001600160a01b0381166108925760405163296b281160e01b815260040160405180910390fd5b806001600160a01b0316826001600160a01b0316036108c55781604051620470ab60e21b81526004016104979190611455565b6108ce81610f16565b5f6108d8826107fb565b9150506001600160a01b03811615610916576040516312a731e760e11b81526001600160a01b03808416600483015282166024820152604401610497565b5f61092084610ba7565b9150506001600160a01b0381161561095d57604051620cb28f60e21b81526001600160a01b03808616600483015282166024820152604401610497565b5f610966610cf1565b6001600160a01b038087165f818152602084815260408083208054868c166001600160a01b0319918216811790925581855260018089018552838620805483168817905560048901805488885260038b01875285882081905585516060810187528981528088018681528188018581528386018555938a52888a20915160029384029092018054928d169290961691909117855551938301805492511515600160a01b026001600160a81b031990931694909a1693909317179097558185528701909252808320805460ff19169095179094559251939450919290917f42eed8e4b72463654392a0121509ef6828270926d399388ed06fa11c6708754491a35050505050565b7ff0c57e16840df040f15088dc2f81fe391c3923bec73e23a9662efc9c229c6a008054600160401b810460ff16159067ffffffffffffffff165f81158015610ab15750825b90505f8267ffffffffffffffff166001148015610acd5750303b155b905081158015610adb575080155b15610af95760405163f92ee8a960e01b815260040160405180910390fd5b845467ffffffffffffffff191660011785558315610b2357845460ff60401b1916600160401b1785555b610b2c8661101d565b8315610b7257845460ff60401b19168555604051600181527fc7f505b2f371ae2175ee4913f4499e1f2633a7b5936321eed1cdaeb6115181d29060200160405180910390a15b505050505050565b5f610b83610cf1565b6001600160a01b039092165f90815260029290920160205250604090205460ff1690565b5f5f5f610bb2610cf1565b6001600160a01b038086165f9081526020929092526040822054169150610bd882610b7a565b959194509092505050565b5f5f61054461102e565b610bf5610ec2565b5f610bfe61102e565b80546001600160a01b0319166001600160a01b0384169081178255909150610c24610520565b6001600160a01b03167f38d16b8cac22d99fc7c124b9cd0de2d3fa1faef420bfe791d8c362d765e2270060405160405180910390a35050565b6060610c67610cf1565b600401805480602002602001604051908101604052809291908181526020015f905b82821015610ce8575f848152602090819020604080516060810182526002860290920180546001600160a01b03908116845260019182015490811684860152600160a01b900460ff161515918301919091529083529092019101610c89565b50505050905090565b7fc361bd0b1d7584416623b46edb98317525b8de8e557ab49cee21f14d6752da0090565b306001600160a01b037f0000000000000000000000000000000000000000000000000000000000000000161480610d9b57507f00000000000000000000000000000000000000000000000000000000000000006001600160a01b0316610d8f5f5160206115d75f395f51905f52546001600160a01b031690565b6001600160a01b031614155b156104df5760405163703e46dd60e11b815260040160405180910390fd5b61051d610ec2565b816001600160a01b03166352d1902d6040518163ffffffff1660e01b8152600401602060405180830381865afa925050508015610e1b575060408051601f3d908101601f19168201909252610e189181019061158a565b60015b610e3a5781604051634c9c8ce360e01b81526004016104979190611455565b5f5160206115d75f395f51905f528114610e6a57604051632a87526960e21b815260048101829052602401610497565b610e748383611052565b505050565b306001600160a01b037f000000000000000000000000000000000000000000000000000000000000000016146104df5760405163703e46dd60e11b815260040160405180910390fd5b33610ecb610520565b6001600160a01b0316146104df573360405163118cdaa760e01b81526004016104979190611455565b5f610efd61102e565b80546001600160a01b03191681559050610441826110a7565b604080516312563ca960e21b60248083019190915282518083039091018152604490910182526020810180516001600160e01b03166301ffc9a760e01b17905290515f9182916001600160a01b03851691610f70916115a1565b5f60405180830381855afa9150503d805f8114610fa8576040519150601f19603f3d011682016040523d82523d5f602084013e610fad565b606091505b5091509150811580610fc0575060208151105b15610fe0578260405163082807d360e31b81526004016104979190611455565b5f81806020019051810190610ff591906115b7565b905080611017578360405163688194f560e11b81526004016104979190611455565b50505050565b611025611117565b61051d81611160565b7f237e158222e3e6968b72b9db0d8043aacf074ad9f650f0d1606b4d82ee432c0090565b61105b82611191565b6040516001600160a01b038316907fbc7cd75a20ee27fd9adebab32041f755214dbc6bffa90cc0225b39da2e5c2d3b905f90a280511561109f57610e7482826111eb565b61044161125d565b7f9016d09d72d40fdae2fd8ceac6b6234c7706214fd39c1cd1e609a0528c19930080546001600160a01b031981166001600160a01b03848116918217845560405192169182907f8be0079c531659141344cd1fd0a4f28419497f9722a3daafe3b4186f6b6457e0905f90a3505050565b7ff0c57e16840df040f15088dc2f81fe391c3923bec73e23a9662efc9c229c6a0054600160401b900460ff166104df57604051631afcd79f60e31b815260040160405180910390fd5b611168611117565b6001600160a01b038116610514575f604051631e4fbdf760e01b81526004016104979190611455565b806001600160a01b03163b5f036111bd5780604051634c9c8ce360e01b81526004016104979190611455565b5f5160206115d75f395f51905f5280546001600160a01b0319166001600160a01b0392909216919091179055565b60605f5f846001600160a01b03168460405161120791906115a1565b5f60405180830381855af49150503d805f811461123f576040519150601f19603f3d011682016040523d82523d5f602084013e611244565b606091505b509150915061125485838361127c565b95945050505050565b34156104df5760405163b398979f60e01b815260040160405180910390fd5b6060826112915761128c826112d2565b6112cb565b81511580156112a857506001600160a01b0384163b155b156112c85783604051639996b31560e01b81526004016104979190611455565b50805b9392505050565b8051156112e25780518082602001fd5b60405163d6bda27560e01b815260040160405180910390fd5b5f6020828403121561130b575f5ffd5b5035919050565b80516001600160a01b039081168352602080830151909116908301526040908101511515910152565b606081016106a88284611312565b80356001600160a01b038116811461135f575f5ffd5b919050565b634e487b7160e01b5f52604160045260245ffd5b5f5f60408385031215611389575f5ffd5b61139283611349565b9150602083013567ffffffffffffffff8111156113ad575f5ffd5b8301601f810185136113bd575f5ffd5b803567ffffffffffffffff8111156113d7576113d7611364565b604051601f8201601f19908116603f0116810167ffffffffffffffff8111828210171561140657611406611364565b60405281815282820160200187101561141d575f5ffd5b816020840160208301375f602083830101528093505050509250929050565b5f6020828403121561144c575f5ffd5b6112cb82611349565b6001600160a01b0391909116815260200190565b5f5f6040838503121561147a575f5ffd5b50508035926020909101359150565b602080825282518282018190525f918401906040840190835b818110156114cb576114b5838551611312565b60209390930192606092909201916001016114a2565b509095945050505050565b602081525f82518060208401528060208501604085015e5f604082850101526040601f19601f83011684010191505092915050565b5f5f6040838503121561151c575f5ffd5b61152583611349565b915061153360208401611349565b90509250929050565b634e487b7160e01b5f52603260045260245ffd5b634e487b7160e01b5f52601160045260245ffd5b818103818111156106a8576106a8611550565b808201808211156106a8576106a8611550565b5f6020828403121561159a575f5ffd5b5051919050565b5f82518060208501845e5f920191825250919050565b5f602082840312156115c7575f5ffd5b815180151581146112cb575f5ffdfe360894a13ba1a3210667c828492db98dca3e2076cc3735a920a3ca505d382bbca2646970667358221220c114a7df4823f47134ef4532bcabaf2bfb15a1c541772addb987892e757c64aa64736f6c634300081b0033",
        "nonce": "0x28",
        "chainId": "0x7a69"
      },
      "additionalContracts": [],
      "isFixedGasLimit": false
    },
    {
      "hash": "0x7aae97d21eebfc08e918338a80b96c157c5165986e9538e966453f12990c3640",
      "transactionType": "CREATE",
      "contractName": "ERC1967Proxy",
      "contractAddress": "0x4826533b4897376654bb4d4ad88b7fafd0c98528",
      "function": null,
      "arguments": [
        "0x70e0bA845a1A0F2DA3359C97E0285013525FFC49",
        "0xc4d66de8000000000000000000000000f39fd6e51aad88f6f4ce6ab8827279cfffb92266"
      ],
      "transaction": {
        "from": "0xf39fd6e51aad88f6f4ce6ab8827279cfffb92266",
        "to": null,
        "value": "0x0",
        "input": "0x60806040526040516103d03803806103d08339810160408190526100229161023c565b61002c8282610033565b5050610321565b61003c82610091565b6040516001600160a01b038316907fbc7cd75a20ee27fd9adebab32041f755214dbc6bffa90cc0225b39da2e5c2d3b905f90a280511561008557610080828261010c565b505050565b61008d61017f565b5050565b806001600160a01b03163b5f036100cb57604051634c9c8ce360e01b81526001600160a01b03821660048201526024015b60405180910390fd5b7f360894a13ba1a3210667c828492db98dca3e2076cc3735a920a3ca505d382bbc80546001600160a01b0319166001600160a01b0392909216919091179055565b60605f5f846001600160a01b031684604051610128919061030b565b5f60405180830381855af49150503d805f8114610160576040519150601f19603f3d011682016040523d82523d5f602084013e610165565b606091505b5090925090506101768583836101a0565b95945050505050565b341561019e5760405163b398979f60e01b815260040160405180910390fd5b565b6060826101b5576101b0826101ff565b6101f8565b81511580156101cc57506001600160a01b0384163b155b156101f557604051639996b31560e01b81526001600160a01b03851660048201526024016100c2565b50805b9392505050565b80511561020f5780518082602001fd5b60405163d6bda27560e01b815260040160405180910390fd5b634e487b7160e01b5f52604160045260245ffd5b5f5f6040838503121561024d575f5ffd5b82516001600160a01b0381168114610263575f5ffd5b60208401519092506001600160401b0381111561027e575f5ffd5b8301601f8101851361028e575f5ffd5b80516001600160401b038111156102a7576102a7610228565b604051601f8201601f19908116603f011681016001600160401b03811182821017156102d5576102d5610228565b6040528181528282016020018710156102ec575f5ffd5b8160208401602083015e5f602083830101528093505050509250929050565b5f82518060208501845e5f920191825250919050565b60a38061032d5f395ff3fe6080604052600a600c565b005b60186014601a565b6050565b565b5f604b7f360894a13ba1a3210667c828492db98dca3e2076cc3735a920a3ca505d382bbc546001600160a01b031690565b905090565b365f5f375f5f365f845af43d5f5f3e8080156069573d5ff35b3d5ffdfea26469706673582212209592a4cfaff650a15bbf011408a9aa356fb215f69c30920d1bd9e629d57f69de64736f6c634300081b003300000000000000000000000070e0ba845a1a0f2da3359c97e0285013525ffc4900000000000000000000000000000000000000000000000000000000000000400000000000000000000000000000000000000000000000000000000000000024c4d66de8000000000000000000000000f39fd6e51aad88f6f4ce6ab8827279cfffb9226600000000000000000000000000000000000000000000000000000000",
        "nonce": "0x29",
        "chainId": "0x7a69"
      },
      "additionalContracts": [],
      "isFixedGasLimit": false
    },
    {
      "hash": "0x60f8610811fe41b17cb3ddfc48018e13261436f939ea20e4248b21332cf2e0e7",
      "transactionType": "CALL",
      "contractName": "ERC1967Proxy",
      "contractAddress": "0x4826533b4897376654bb4d4ad88b7fafd0c98528",
      "function": null,
      "arguments": null,
      "transaction": {
        "from": "0xf39fd6e51aad88f6f4ce6ab8827279cfffb92266",
        "to": "0x4826533b4897376654bb4d4ad88b7fafd0c98528",
        "value": "0x0",
        "input": "0xc43db0570000000000000000000000004a679253410272dd5232b3ff7cf5dbb88f29531900000000000000000000000009635f643e140090a9a8dcd712ed6285858cebef",
        "nonce": "0x2a",
        "chainId": "0x7a69"
      },
      "additionalContracts": [],
      "isFixedGasLimit": false
    },
    {
      "hash": "0x6b6ba3eacd70fb2dfb3bd1a7046b92192a02d6eaa0202694c64b627b0123adaa",
      "transactionType": "CALL",
      "contractName": "ERC1967Proxy",
      "contractAddress": "0x4826533b4897376654bb4d4ad88b7fafd0c98528",
      "function": null,
      "arguments": null,
      "transaction": {
        "from": "0xf39fd6e51aad88f6f4ce6ab8827279cfffb92266",
        "to": "0x4826533b4897376654bb4d4ad88b7fafd0c98528",
        "value": "0x0",
        "input": "0xc43db0570000000000000000000000007a2088a1bfc9d81c55368ae168c2c02570cb814f000000000000000000000000c5a5c42992decbae36851359345fe25997f5c42d",
        "nonce": "0x2b",
        "chainId": "0x7a69"
      },
      "additionalContracts": [],
      "isFixedGasLimit": false
    },
    {
      "hash": "0x3c263701c510eb3725a719f2c8178991c6866197769ea3761848b0ea8806abb2",
      "transactionType": "CALL",
      "contractName": "ERC1967Proxy",
      "contractAddress": "0x4826533b4897376654bb4d4ad88b7fafd0c98528",
      "function": null,
      "arguments": null,
      "transaction": {
        "from": "0xf39fd6e51aad88f6f4ce6ab8827279cfffb92266",
        "to": "0x4826533b4897376654bb4d4ad88b7fafd0c98528",
        "value": "0x0",
        "input": "0xc43db05700000000000000000000000067d269191c92caf3cd7723f116c85e6e9bf55933000000000000000000000000e6e340d132b5f46d1e472debcd681b2abc16e57e",
        "nonce": "0x2c",
        "chainId": "0x7a69"
      },
      "additionalContracts": [],
      "isFixedGasLimit": false
    },
    {
      "hash": "0xd2854d47ac73d790aa04f8342c9deba7bb3721a991357451a2460000787f2fb1",
      "transactionType": "CALL",
      "contractName": "ERC1967Proxy",
      "contractAddress": "0x09635f643e140090a9a8dcd712ed6285858cebef",
      "function": null,
      "arguments": null,
      "transaction": {
        "from": "0xf39fd6e51aad88f6f4ce6ab8827279cfffb92266",
        "to": "0x09635f643e140090a9a8dcd712ed6285858cebef",
        "value": "0x0",
        "input": "0x722199980000000000000000000000000000000000000000000000000000000000000060000000000000000000000000000000000000000000000000000000000000000000000000000000000000000000000000000000000000000000000000000000000000000000000000000000000000000000000000000000000000000000000000",
        "nonce": "0x2d",
        "chainId": "0x7a69"
      },
      "additionalContracts": [],
      "isFixedGasLimit": false
    },
    {
      "hash": "0x5dfeb95d0aa0e62d8fe6b8b7100fdcbf2034257b2ffb2868af408261f2afae36",
      "transactionType": "CALL",
      "contractName": "ERC1967Proxy",
      "contractAddress": "0xc5a5c42992decbae36851359345fe25997f5c42d",
      "function": null,
      "arguments": null,
      "transaction": {
        "from": "0xf39fd6e51aad88f6f4ce6ab8827279cfffb92266",
        "to": "0xc5a5c42992decbae36851359345fe25997f5c42d",
        "value": "0x0",
        "input": "0x722199980000000000000000000000000000000000000000000000000000000000000060000000000000000000000000000000000000000000000000000000000000000000000000000000000000000000000000000000000000000000000000000000000000000000000000000000000000000000000000000000000000000000000000",
        "nonce": "0x2e",
        "chainId": "0x7a69"
      },
      "additionalContracts": [],
      "isFixedGasLimit": false
    },
    {
      "hash": "0x325cd41d96e1421c74e654f1083de9e0feb42de9526616cd9ac128bb54aa16f7",
      "transactionType": "CALL",
      "contractName": "ERC1967Proxy",
      "contractAddress": "0xe6e340d132b5f46d1e472debcd681b2abc16e57e",
      "function": null,
      "arguments": null,
      "transaction": {
        "from": "0xf39fd6e51aad88f6f4ce6ab8827279cfffb92266",
        "to": "0xe6e340d132b5f46d1e472debcd681b2abc16e57e",
        "value": "0x0",
        "input": "0x722199980000000000000000000000000000000000000000000000000000000000000060000000000000000000000000000000000000000000000000000000000000000000000000000000000000000000000000000000000000000000000000000000000000000000000000000000000000000000000000000000000000000000000000",
        "nonce": "0x2f",
        "chainId": "0x7a69"
      },
      "additionalContracts": [],
      "isFixedGasLimit": false
    }
  ],
  "receipts": [
    {
      "type": "0x2",
      "status": "0x1",
      "cumulativeGasUsed": "0x393cfa",
      "logs": [
        {
          "address": "0xa85233c63b9ee964add6f2cffe00fd84eb32338f",
          "topics": [
            "0xc7f505b2f371ae2175ee4913f4499e1f2633a7b5936321eed1cdaeb6115181d2"
          ],
          "data": "0x000000000000000000000000000000000000000000000000ffffffffffffffff",
          "blockHash": "0x40d9538db40cb93c35fa5783842003984353de503acaff563579d5205de5db2a",
          "blockNumber": "0x19",
          "blockTimestamp": "0x6a37b0f5",
          "transactionHash": "0xd8d115a4db56a74fc7ee96569eab806bbd88ea3007bb23076fcee65d02cf3a1c",
          "transactionIndex": "0x0",
          "logIndex": "0x0",
          "removed": false
        }
      ],
      "logsBloom": "0x00000000000000000000000000000000000000000000000000000000000000000000000000000000080000000000000000000000000000000000000000000000000000000000000000000000000000000000000000000000000000000040000000000000000000000000000000000000000000000000000000000000000000000000000000000000000800000000000000000000000080000000000000000000000000000000000000000000000000000000000008000000000000000000000000000000000000000000000000000000000000000004000000000000000000000000000000000000000000000000000000000000000000000000000000000000",
      "transactionHash": "0xd8d115a4db56a74fc7ee96569eab806bbd88ea3007bb23076fcee65d02cf3a1c",
      "transactionIndex": "0x0",
      "blockHash": "0x40d9538db40cb93c35fa5783842003984353de503acaff563579d5205de5db2a",
      "blockNumber": "0x19",
      "gasUsed": "0x393cfa",
      "effectiveGasPrice": "0x3554dff",
      "blobGasPrice": "0x1",
      "from": "0xf39fd6e51aad88f6f4ce6ab8827279cfffb92266",
      "to": null,
      "contractAddress": "0xa85233c63b9ee964add6f2cffe00fd84eb32338f"
    },
    {
      "type": "0x2",
      "status": "0x1",
      "cumulativeGasUsed": "0x849f9",
      "logs": [],
      "logsBloom": "0x00000000000000000000000000000000000000000000000000000000000000000000000000000000000000000000000000000000000000000000000000000000000000000000000000000000000000000000000000000000000000000000000000000000000000000000000000000000000000000000000000000000000000000000000000000000000000000000000000000000000000000000000000000000000000000000000000000000000000000000000000000000000000000000000000000000000000000000000000000000000000000000000000000000000000000000000000000000000000000000000000000000000000000000000000000000",
      "transactionHash": "0xe2065d331df24feddf23a78a4f4ce2920eeff3b70c1bfc2ce14acc21035322d8",
      "transactionIndex": "0x0",
      "blockHash": "0x2e5477111e07943da8e3121b204ea5e95fb3ad6ba9ccd47a79c057a327ffb929",
      "blockNumber": "0x1a",
      "gasUsed": "0x849f9",
      "effectiveGasPrice": "0x30550cd",
      "blobGasPrice": "0x1",
      "from": "0xf39fd6e51aad88f6f4ce6ab8827279cfffb92266",
      "to": null,
      "contractAddress": "0x4a679253410272dd5232b3ff7cf5dbb88f295319"
    },
    {
      "type": "0x2",
      "status": "0x1",
      "cumulativeGasUsed": "0x849e1",
      "logs": [],
      "logsBloom": "0x00000000000000000000000000000000000000000000000000000000000000000000000000000000000000000000000000000000000000000000000000000000000000000000000000000000000000000000000000000000000000000000000000000000000000000000000000000000000000000000000000000000000000000000000000000000000000000000000000000000000000000000000000000000000000000000000000000000000000000000000000000000000000000000000000000000000000000000000000000000000000000000000000000000000000000000000000000000000000000000000000000000000000000000000000000000",
      "transactionHash": "0x2126a334705071e37db950ef627dd144bdbc3b971ea45fa68ad212f163f0efdd",
      "transactionIndex": "0x0",
      "blockHash": "0xff5ca0ea2860ea4cefe4d20c2f1d6c14f9caa13d46e1f98e1e13be2f70cedec0",
      "blockNumber": "0x1b",
      "gasUsed": "0x849e1",
      "effectiveGasPrice": "0x2a826e2",
      "blobGasPrice": "0x1",
      "from": "0xf39fd6e51aad88f6f4ce6ab8827279cfffb92266",
      "to": null,
      "contractAddress": "0x7a2088a1bfc9d81c55368ae168c2c02570cb814f"
    },
    {
      "type": "0x2",
      "status": "0x1",
      "cumulativeGasUsed": "0x6b1cb",
      "logs": [
        {
          "address": "0x09635f643e140090a9a8dcd712ed6285858cebef",
          "topics": [
            "0xbc7cd75a20ee27fd9adebab32041f755214dbc6bffa90cc0225b39da2e5c2d3b",
            "0x000000000000000000000000a85233c63b9ee964add6f2cffe00fd84eb32338f"
          ],
          "data": "0x",
          "blockHash": "0x1782d7eac5d5514c63e58bbeead8bbb33b5177dae6e376ffdbb9b08514cf41ea",
          "blockNumber": "0x1c",
          "blockTimestamp": "0x6a37b0f5",
          "transactionHash": "0x26ff69a4c5ae5f2220aec30eab5b057538047fbd153d2cf0a4fed8cb694add4e",
          "transactionIndex": "0x0",
          "logIndex": "0x0",
          "removed": false
        },
        {
          "address": "0x09635f643e140090a9a8dcd712ed6285858cebef",
          "topics": [
            "0x8be0079c531659141344cd1fd0a4f28419497f9722a3daafe3b4186f6b6457e0",
            "0x0000000000000000000000000000000000000000000000000000000000000000",
            "0x000000000000000000000000f39fd6e51aad88f6f4ce6ab8827279cfffb92266"
          ],
          "data": "0x",
          "blockHash": "0x1782d7eac5d5514c63e58bbeead8bbb33b5177dae6e376ffdbb9b08514cf41ea",
          "blockNumber": "0x1c",
          "blockTimestamp": "0x6a37b0f5",
          "transactionHash": "0x26ff69a4c5ae5f2220aec30eab5b057538047fbd153d2cf0a4fed8cb694add4e",
          "transactionIndex": "0x0",
          "logIndex": "0x1",
          "removed": false
        },
        {
          "address": "0x09635f643e140090a9a8dcd712ed6285858cebef",
          "topics": [
            "0xc7f505b2f371ae2175ee4913f4499e1f2633a7b5936321eed1cdaeb6115181d2"
          ],
          "data": "0x0000000000000000000000000000000000000000000000000000000000000001",
          "blockHash": "0x1782d7eac5d5514c63e58bbeead8bbb33b5177dae6e376ffdbb9b08514cf41ea",
          "blockNumber": "0x1c",
          "blockTimestamp": "0x6a37b0f5",
          "transactionHash": "0x26ff69a4c5ae5f2220aec30eab5b057538047fbd153d2cf0a4fed8cb694add4e",
          "transactionIndex": "0x0",
          "logIndex": "0x2",
          "removed": false
        }
      ],
      "logsBloom": "0x00000000000000000000000000000000400000000000000000800000000000000000000000000000200000000000000000000000000000000000000000200000000000000000020000000000000002000001000000000000000000000010000000000000020000000010000100000800000000000000000000000000000000400000000000000000000800000000000000000000000080000000000000000000000000000000000000000000000000000000000000000000000000000000000000000020000000200000000000000000000000002004000000000000000020000000000080000000000000000000000000000000000000000000000000000000",
      "transactionHash": "0x26ff69a4c5ae5f2220aec30eab5b057538047fbd153d2cf0a4fed8cb694add4e",
      "transactionIndex": "0x0",
      "blockHash": "0x1782d7eac5d5514c63e58bbeead8bbb33b5177dae6e376ffdbb9b08514cf41ea",
      "blockNumber": "0x1c",
      "gasUsed": "0x6b1cb",
      "effectiveGasPrice": "0x2563634",
      "blobGasPrice": "0x1",
      "from": "0xf39fd6e51aad88f6f4ce6ab8827279cfffb92266",
      "to": null,
      "contractAddress": "0x09635f643e140090a9a8dcd712ed6285858cebef"
    },
    {
      "type": "0x2",
      "status": "0x1",
      "cumulativeGasUsed": "0x6b19b",
      "logs": [
        {
          "address": "0xc5a5c42992decbae36851359345fe25997f5c42d",
          "topics": [
            "0xbc7cd75a20ee27fd9adebab32041f755214dbc6bffa90cc0225b39da2e5c2d3b",
            "0x000000000000000000000000a85233c63b9ee964add6f2cffe00fd84eb32338f"
          ],
          "data": "0x",
          "blockHash": "0x7a111f0e7d7aa25d132d795afd6a136097327905bcea3a334d002c0c5ac82dbf",
          "blockNumber": "0x1d",
          "blockTimestamp": "0x6a37b0f5",
          "transactionHash": "0x8f712e8f2b42d75eb7cc98c31462a0993413fb33fc0506df02f054f68d8fc591",
          "transactionIndex": "0x0",
          "logIndex": "0x0",
          "removed": false
        },
        {
          "address": "0xc5a5c42992decbae36851359345fe25997f5c42d",
          "topics": [
            "0x8be0079c531659141344cd1fd0a4f28419497f9722a3daafe3b4186f6b6457e0",
            "0x0000000000000000000000000000000000000000000000000000000000000000",
            "0x000000000000000000000000f39fd6e51aad88f6f4ce6ab8827279cfffb92266"
          ],
          "data": "0x",
          "blockHash": "0x7a111f0e7d7aa25d132d795afd6a136097327905bcea3a334d002c0c5ac82dbf",
          "blockNumber": "0x1d",
          "blockTimestamp": "0x6a37b0f5",
          "transactionHash": "0x8f712e8f2b42d75eb7cc98c31462a0993413fb33fc0506df02f054f68d8fc591",
          "transactionIndex": "0x0",
          "logIndex": "0x1",
          "removed": false
        },
        {
          "address": "0xc5a5c42992decbae36851359345fe25997f5c42d",
          "topics": [
            "0xc7f505b2f371ae2175ee4913f4499e1f2633a7b5936321eed1cdaeb6115181d2"
          ],
          "data": "0x0000000000000000000000000000000000000000000000000000000000000001",
          "blockHash": "0x7a111f0e7d7aa25d132d795afd6a136097327905bcea3a334d002c0c5ac82dbf",
          "blockNumber": "0x1d",
          "blockTimestamp": "0x6a37b0f5",
          "transactionHash": "0x8f712e8f2b42d75eb7cc98c31462a0993413fb33fc0506df02f054f68d8fc591",
          "transactionIndex": "0x0",
          "logIndex": "0x2",
          "removed": false
        }
      ],
      "logsBloom": "0x00000000000000000000000000000000400004000000000000800000000000000000000000000000000000000000000000000000000000000004000000000000000000000000020000000000000002000001000000000000000000000010000000000000020000000000000100000800000000000000000000000000000000400000000000000000000800000000000000000000000080000000000000000000000000000000000000000000000000000000000000000000000000000000000000000020080000200000000000000000000000002004000000000000000020000000000080000000000000000000000000000000000000000000000000000000",
      "transactionHash": "0x8f712e8f2b42d75eb7cc98c31462a0993413fb33fc0506df02f054f68d8fc591",
      "transactionIndex": "0x0",
      "blockHash": "0x7a111f0e7d7aa25d132d795afd6a136097327905bcea3a334d002c0c5ac82dbf",
      "blockNumber": "0x1d",
      "gasUsed": "0x6b19b",
      "effectiveGasPrice": "0x20d9f55",
      "blobGasPrice": "0x1",
      "from": "0xf39fd6e51aad88f6f4ce6ab8827279cfffb92266",
      "to": null,
      "contractAddress": "0xc5a5c42992decbae36851359345fe25997f5c42d"
    },
    {
      "type": "0x2",
      "status": "0x1",
      "cumulativeGasUsed": "0xdc8a6",
      "logs": [],
      "logsBloom": "0x00000000000000000000000000000000000000000000000000000000000000000000000000000000000000000000000000000000000000000000000000000000000000000000000000000000000000000000000000000000000000000000000000000000000000000000000000000000000000000000000000000000000000000000000000000000000000000000000000000000000000000000000000000000000000000000000000000000000000000000000000000000000000000000000000000000000000000000000000000000000000000000000000000000000000000000000000000000000000000000000000000000000000000000000000000000",
      "transactionHash": "0xadc49948fb8e0ead03240d088b7b78ea0bc722628880394c3858860fc730ca21",
      "transactionIndex": "0x0",
      "blockHash": "0xda431c51d0c950b2a164967c138737a4937c969bbaa65395ab29482d73d837bf",
      "blockNumber": "0x1e",
      "gasUsed": "0xdc8a6",
      "effectiveGasPrice": "0x1cdd753",
      "blobGasPrice": "0x1",
      "from": "0xf39fd6e51aad88f6f4ce6ab8827279cfffb92266",
      "to": null,
      "contractAddress": "0x67d269191c92caf3cd7723f116c85e6e9bf55933"
    },
    {
      "type": "0x2",
      "status": "0x1",
      "cumulativeGasUsed": "0x6b250",
      "logs": [
        {
          "address": "0xe6e340d132b5f46d1e472debcd681b2abc16e57e",
          "topics": [
            "0xbc7cd75a20ee27fd9adebab32041f755214dbc6bffa90cc0225b39da2e5c2d3b",
            "0x000000000000000000000000a85233c63b9ee964add6f2cffe00fd84eb32338f"
          ],
          "data": "0x",
          "blockHash": "0xda7b41528c8ab5873c3374fc2e9b965f2c2dbf8a55c01b946b508b65e91646f5",
          "blockNumber": "0x1f",
          "blockTimestamp": "0x6a37b0f5",
          "transactionHash": "0xe98a56b6e4dda318fb35db7068bd90bbe0a0725e8bc0aba542e2c170e848c855",
          "transactionIndex": "0x0",
          "logIndex": "0x0",
          "removed": false
        },
        {
          "address": "0xe6e340d132b5f46d1e472debcd681b2abc16e57e",
          "topics": [
            "0x8be0079c531659141344cd1fd0a4f28419497f9722a3daafe3b4186f6b6457e0",
            "0x0000000000000000000000000000000000000000000000000000000000000000",
            "0x000000000000000000000000f39fd6e51aad88f6f4ce6ab8827279cfffb92266"
          ],
          "data": "0x",
          "blockHash": "0xda7b41528c8ab5873c3374fc2e9b965f2c2dbf8a55c01b946b508b65e91646f5",
          "blockNumber": "0x1f",
          "blockTimestamp": "0x6a37b0f5",
          "transactionHash": "0xe98a56b6e4dda318fb35db7068bd90bbe0a0725e8bc0aba542e2c170e848c855",
          "transactionIndex": "0x0",
          "logIndex": "0x1",
          "removed": false
        },
        {
          "address": "0xe6e340d132b5f46d1e472debcd681b2abc16e57e",
          "topics": [
            "0xc7f505b2f371ae2175ee4913f4499e1f2633a7b5936321eed1cdaeb6115181d2"
          ],
          "data": "0x0000000000000000000000000000000000000000000000000000000000000001",
          "blockHash": "0xda7b41528c8ab5873c3374fc2e9b965f2c2dbf8a55c01b946b508b65e91646f5",
          "blockNumber": "0x1f",
          "blockTimestamp": "0x6a37b0f5",
          "transactionHash": "0xe98a56b6e4dda318fb35db7068bd90bbe0a0725e8bc0aba542e2c170e848c855",
          "transactionIndex": "0x0",
          "logIndex": "0x2",
          "removed": false
        }
      ],
      "logsBloom": "0x00000000000000000000000000000000400000000000000000800000000000000000000000000000000000000000000000000000000000000000000000000000000000000000020080000000000002000001000000000000000000000010000000000000020000000000000100000800000000000000000000000000080000400000000000000000000800000000000000000000000080000000000000000000000000000000000000000000000000000000000000000000000000000000000000000020000000200000000000000000000000002004000000000200000020000000000080000000000000000000000000000000000000000000000000000000",
      "transactionHash": "0xe98a56b6e4dda318fb35db7068bd90bbe0a0725e8bc0aba542e2c170e848c855",
      "transactionIndex": "0x0",
      "blockHash": "0xda7b41528c8ab5873c3374fc2e9b965f2c2dbf8a55c01b946b508b65e91646f5",
      "blockNumber": "0x1f",
      "gasUsed": "0x6b250",
      "effectiveGasPrice": "0x197966e",
      "blobGasPrice": "0x1",
      "from": "0xf39fd6e51aad88f6f4ce6ab8827279cfffb92266",
      "to": null,
      "contractAddress": "0xe6e340d132b5f46d1e472debcd681b2abc16e57e"
    },
    {
      "type": "0x2",
      "status": "0x1",
      "cumulativeGasUsed": "0x10b3d",
      "logs": [
        {
          "address": "0x4a679253410272dd5232b3ff7cf5dbb88f295319",
          "topics": [
            "0xddf252ad1be2c89b69c2b068fc378daa952ba7f163c4a11628f55a4df523b3ef",
            "0x0000000000000000000000000000000000000000000000000000000000000000",
            "0x000000000000000000000000f39fd6e51aad88f6f4ce6ab8827279cfffb92266"
          ],
          "data": "0x00000000000000000000000000000000000000000000000000000002540be400",
          "blockHash": "0xd4152f518542836e1502cb12dab2a88af32097bdb02a70c76b87409c3572720c",
          "blockNumber": "0x20",
          "blockTimestamp": "0x6a37b0f5",
          "transactionHash": "0xc936f41cea7c4026925c86d294322c44f4bcfb4cc4c0281514177ca5ea873dfd",
          "transactionIndex": "0x0",
          "logIndex": "0x0",
          "removed": false
        }
      ],
      "logsBloom": "0x00000000000000000000000000000000000000000000000000000000000000000000000000000000000000000000000000000000000000000000000000000000000000000000000000000008000000000000000000000000000000000000000000000000020000000000000100000800000000000000000000000010000000000000000000000000000000000000000000000000000000000000000000000000000000000000000000000000000000000000000000000000000000000000000100000002000000300000000000000000000000002100000000000000000020000000000000000000000000000000000000000000000000000000000000000000",
      "transactionHash": "0xc936f41cea7c4026925c86d294322c44f4bcfb4cc4c0281514177ca5ea873dfd",
      "transactionIndex": "0x0",
      "blockHash": "0xd4152f518542836e1502cb12dab2a88af32097bdb02a70c76b87409c3572720c",
      "blockNumber": "0x20",
      "gasUsed": "0x10b3d",
      "effectiveGasPrice": "0x166213b",
      "blobGasPrice": "0x1",
      "from": "0xf39fd6e51aad88f6f4ce6ab8827279cfffb92266",
      "to": "0x4a679253410272dd5232b3ff7cf5dbb88f295319",
      "contractAddress": null
    },
    {
      "type": "0x2",
      "status": "0x1",
      "cumulativeGasUsed": "0x10b3d",
      "logs": [
        {
          "address": "0x7a2088a1bfc9d81c55368ae168c2c02570cb814f",
          "topics": [
            "0xddf252ad1be2c89b69c2b068fc378daa952ba7f163c4a11628f55a4df523b3ef",
            "0x0000000000000000000000000000000000000000000000000000000000000000",
            "0x000000000000000000000000f39fd6e51aad88f6f4ce6ab8827279cfffb92266"
          ],
          "data": "0x00000000000000000000000000000000000000000000000000000002540be400",
          "blockHash": "0xf8df11fc70a8f1bce797f73c1824549a82044126477054717781e32584cbb362",
          "blockNumber": "0x21",
          "blockTimestamp": "0x6a37b0f5",
          "transactionHash": "0x7318f0b7ec7a230069ff9ca7846923b6df863008a4c1a9b574224af046691c3c",
          "transactionIndex": "0x0",
          "logIndex": "0x0",
          "removed": false
        }
      ],
      "logsBloom": "0x00000000001000000000000000000000000000000000000200000000000000000000000000000000000000000000000000000000000000000000000000000000000000000000000000000008000000000000000000000000000000000000000000000000020000000000000100000800000000000000000000000010000000000000000000000000000000000000000000000000000000000200000000000000000000000000000000000000000000000000000000000000000000000000000000000002000000200000000000000000000000002000000000000000000020000000000000000000000000000000000000000000000000000000000000000000",
      "transactionHash": "0x7318f0b7ec7a230069ff9ca7846923b6df863008a4c1a9b574224af046691c3c",
      "transactionIndex": "0x0",
      "blockHash": "0xf8df11fc70a8f1bce797f73c1824549a82044126477054717781e32584cbb362",
      "blockNumber": "0x21",
      "gasUsed": "0x10b3d",
      "effectiveGasPrice": "0x1399159",
      "blobGasPrice": "0x1",
      "from": "0xf39fd6e51aad88f6f4ce6ab8827279cfffb92266",
      "to": "0x7a2088a1bfc9d81c55368ae168c2c02570cb814f",
      "contractAddress": null
    },
    {
      "type": "0x2",
      "status": "0x1",
      "cumulativeGasUsed": "0x10b3d",
      "logs": [
        {
          "address": "0x67d269191c92caf3cd7723f116c85e6e9bf55933",
          "topics": [
            "0xddf252ad1be2c89b69c2b068fc378daa952ba7f163c4a11628f55a4df523b3ef",
            "0x0000000000000000000000000000000000000000000000000000000000000000",
            "0x000000000000000000000000f39fd6e51aad88f6f4ce6ab8827279cfffb92266"
          ],
          "data": "0x00000000000000000000000000000000000000000000000000000002540be400",
          "blockHash": "0x4dde897f3a6edc4b24dea60d9b296ccb61b60f3d0b0ec2b1ff62c7ef7e2b7299",
          "blockNumber": "0x22",
          "blockTimestamp": "0x6a37b0f5",
          "transactionHash": "0xefcc63a6f8353488d03c85ca13537a66c921468dd1872c3125db788268d08736",
          "transactionIndex": "0x0",
          "logIndex": "0x0",
          "removed": false
        }
      ],
      "logsBloom": "0x00000000000000000000000000000000000000000000000000000000000000000000000000000000000000000000000000000000000000000000000000000000000000000000000200000008000000000000000000000000000000000000000000000000020000000000000100000800000000000000000000000010000000100000000000000000000000000000000000000000000000000000000000000000000000000000000000000000000000000000000000000000000000000000000000000002000000200000000000000000000000002000000000000000000020000000000000000000000000000000000000000000000000004000000000000000",
      "transactionHash": "0xefcc63a6f8353488d03c85ca13537a66c921468dd1872c3125db788268d08736",
      "transactionIndex": "0x0",
      "blockHash": "0x4dde897f3a6edc4b24dea60d9b296ccb61b60f3d0b0ec2b1ff62c7ef7e2b7299",
      "blockNumber": "0x22",
      "gasUsed": "0x10b3d",
      "effectiveGasPrice": "0x1128cf2",
      "blobGasPrice": "0x1",
      "from": "0xf39fd6e51aad88f6f4ce6ab8827279cfffb92266",
      "to": "0x67d269191c92caf3cd7723f116c85e6e9bf55933",
      "contractAddress": null
    },
    {
      "type": "0x2",
      "status": "0x1",
      "cumulativeGasUsed": "0xb4ee",
      "logs": [
        {
          "address": "0x4a679253410272dd5232b3ff7cf5dbb88f295319",
          "topics": [
            "0x8c5be1e5ebec7d5bd14f71427d1e84f3dd0314c0f7b2291e5b200ac8c7c3b925",
            "0x000000000000000000000000f39fd6e51aad88f6f4ce6ab8827279cfffb92266",
            "0x00000000000000000000000009635f643e140090a9a8dcd712ed6285858cebef"
          ],
          "data": "0x000000000000000000000000000000000000000000000000000000003b9aca00",
          "blockHash": "0x85fb557c91b2e835e9392cff2c77d8067f3658e11ed19a952b48c99ebd219f16",
          "blockNumber": "0x23",
          "blockTimestamp": "0x6a37b0f5",
          "transactionHash": "0xc195cb3f55ce2b7f7d70cf81f27ce8a95d4058e1562d3d7302df62e46925c3cb",
          "transactionIndex": "0x0",
          "logIndex": "0x0",
          "removed": false
        }
      ],
      "logsBloom": "0x00000000000000000000000000000000000000000000000000000000000000000000000000000000100000000000000000000000000000000000000000200000000000000000000000000000000000000000000000000000000000000000000000000000000000000000000100000000000000000000000000000000000000000000000000000000000000000000000000000000000000000000000000000000020000000000000000000000000000000000000000000000000000000000000100000000000000300000000000000000000000002100000000000000000000000010000000000008000000000000000000000000000000008000000000000000",
      "transactionHash": "0xc195cb3f55ce2b7f7d70cf81f27ce8a95d4058e1562d3d7302df62e46925c3cb",
      "transactionIndex": "0x0",
      "blockHash": "0x85fb557c91b2e835e9392cff2c77d8067f3658e11ed19a952b48c99ebd219f16",
      "blockNumber": "0x23",
      "gasUsed": "0xb4ee",
      "effectiveGasPrice": "0xf06366",
      "blobGasPrice": "0x1",
      "from": "0xf39fd6e51aad88f6f4ce6ab8827279cfffb92266",
      "to": "0x4a679253410272dd5232b3ff7cf5dbb88f295319",
      "contractAddress": null
    },
    {
      "type": "0x2",
      "status": "0x1",
      "cumulativeGasUsed": "0x71a41",
      "logs": [
        {
          "address": "0x4a679253410272dd5232b3ff7cf5dbb88f295319",
          "topics": [
            "0xddf252ad1be2c89b69c2b068fc378daa952ba7f163c4a11628f55a4df523b3ef",
            "0x000000000000000000000000f39fd6e51aad88f6f4ce6ab8827279cfffb92266",
            "0x00000000000000000000000009635f643e140090a9a8dcd712ed6285858cebef"
          ],
          "data": "0x000000000000000000000000000000000000000000000000000000003b9aca00",
          "blockHash": "0x7722a835a63e7e21c5f39530764cdec6cd52e702a1255404361eec7bb35a1bc8",
          "blockNumber": "0x24",
          "blockTimestamp": "0x6a37b0f5",
          "transactionHash": "0x814ca45aaf44b0e3b87c16bd076ddfa73cb661b55039f129732be384eae385d6",
          "transactionIndex": "0x0",
          "logIndex": "0x0",
          "removed": false
        },
        {
          "address": "0xe3a9105a3a932253a70f126eb1e3b589c643dd24",
          "topics": [
            "0x063ccd1bba45151d91f6a418065047a3d048d058a922535747bb2b575a01d236",
            "0x00000000000000000000000009635f643e140090a9a8dcd712ed6285858cebef"
          ],
          "data": "0x000000000000000000000000000000000000000000000000000000003b9aca0000000000000000000000000000000000000000000000000000000000000000054ed0594b13c81fdbe531df13d304ad68628a8dccf2ff0000000000007a690500",
          "blockHash": "0x7722a835a63e7e21c5f39530764cdec6cd52e702a1255404361eec7bb35a1bc8",
          "blockNumber": "0x24",
          "blockTimestamp": "0x6a37b0f5",
          "transactionHash": "0x814ca45aaf44b0e3b87c16bd076ddfa73cb661b55039f129732be384eae385d6",
          "transactionIndex": "0x0",
          "logIndex": "0x1",
          "removed": false
        },
        {
          "address": "0xe3a9105a3a932253a70f126eb1e3b589c643dd24",
          "topics": [
            "0x063ccd1bba45151d91f6a418065047a3d048d058a922535747bb2b575a01d236",
            "0x00000000000000000000000009635f643e140090a9a8dcd712ed6285858cebef"
          ],
          "data": "0x000000000000000000000000000000000000000000000000000000000000000100000000000000000000000000000000000000000000000000000000000000005d6c8f1cd4e8d6a58dc9ca37ab673e139bb70945f1ff0000000000007a690000",
          "blockHash": "0x7722a835a63e7e21c5f39530764cdec6cd52e702a1255404361eec7bb35a1bc8",
          "blockNumber": "0x24",
          "blockTimestamp": "0x6a37b0f5",
          "transactionHash": "0x814ca45aaf44b0e3b87c16bd076ddfa73cb661b55039f129732be384eae385d6",
          "transactionIndex": "0x0",
          "logIndex": "0x2",
          "removed": false
        },
        {
          "address": "0x50157cffd6bbfa2dece204a89ec419c23ef5755d",
          "topics": [
            "0xe2e1decee6e05ee246cd7c7f1337d25cdfd41dcbdcf8c57b61630be56cc7366a",
            "0x00000000000000000000000009635f643e140090a9a8dcd712ed6285858cebef",
            "0x00000000000000000000000009635f643e140090a9a8dcd712ed6285858cebef"
          ],
          "data": "0x4ed0594b13c81fdbe531df13d304ad68628a8dccf2ff0000000000007a690500",
          "blockHash": "0x7722a835a63e7e21c5f39530764cdec6cd52e702a1255404361eec7bb35a1bc8",
          "blockNumber": "0x24",
          "blockTimestamp": "0x6a37b0f5",
          "transactionHash": "0x814ca45aaf44b0e3b87c16bd076ddfa73cb661b55039f129732be384eae385d6",
          "transactionIndex": "0x0",
          "logIndex": "0x3",
          "removed": false
        },
        {
          "address": "0xe3a9105a3a932253a70f126eb1e3b589c643dd24",
          "topics": [
            "0x063ccd1bba45151d91f6a418065047a3d048d058a922535747bb2b575a01d236",
            "0x00000000000000000000000009635f643e140090a9a8dcd712ed6285858cebef"
          ],
          "data": "0x000000000000000000000000000000000000000000000000000000000000000000000000000000000000000000000000000000000000000000000000000000053bb3e65f1d9129960d8ab47d745843b10ae20c19d2ff0000000000007a690500",
          "blockHash": "0x7722a835a63e7e21c5f39530764cdec6cd52e702a1255404361eec7bb35a1bc8",
          "blockNumber": "0x24",
          "blockTimestamp": "0x6a37b0f5",
          "transactionHash": "0x814ca45aaf44b0e3b87c16bd076ddfa73cb661b55039f129732be384eae385d6",
          "transactionIndex": "0x0",
          "logIndex": "0x4",
          "removed": false
        },
        {
          "address": "0xe3a9105a3a932253a70f126eb1e3b589c643dd24",
          "topics": [
            "0x60be9d61aad849facc28c38b048cb5c4be3420b8fa2233e08cfa06be1b6d1c3e",
            "0x00000000000000000000000009635f643e140090a9a8dcd712ed6285858cebef"
          ],
          "data": "0x5d6c8f1cd4e8d6a58dc9ca37ab673e139bb70945f1ff0000000000007a6900004ed0594b13c81fdbe531df13d304ad68628a8dccf2ff0000000000007a6905003bb3e65f1d9129960d8ab47d745843b10ae20c19d2ff0000000000007a6905005af99934839cbf2b93e804ccd80267df564c4519d1ff0000000000007a690500",
          "blockHash": "0x7722a835a63e7e21c5f39530764cdec6cd52e702a1255404361eec7bb35a1bc8",
          "blockNumber": "0x24",
          "blockTimestamp": "0x6a37b0f5",
          "transactionHash": "0x814ca45aaf44b0e3b87c16bd076ddfa73cb661b55039f129732be384eae385d6",
          "transactionIndex": "0x0",
          "logIndex": "0x5",
          "removed": false
        },
        {
          "address": "0xe3a9105a3a932253a70f126eb1e3b589c643dd24",
          "topics": [
            "0x063ccd1bba45151d91f6a418065047a3d048d058a922535747bb2b575a01d236",
            "0x00000000000000000000000009635f643e140090a9a8dcd712ed6285858cebef"
          ],
          "data": "0x000000000000000000000000000000000000000000000000000000000000000000000000000000000000000000000000000000000000000000000000000000053bb3e65f1d9129960d8ab47d745843b10ae20c19d2ff0000000000007a690500",
          "blockHash": "0x7722a835a63e7e21c5f39530764cdec6cd52e702a1255404361eec7bb35a1bc8",
          "blockNumber": "0x24",
          "blockTimestamp": "0x6a37b0f5",
          "transactionHash": "0x814ca45aaf44b0e3b87c16bd076ddfa73cb661b55039f129732be384eae385d6",
          "transactionIndex": "0x0",
          "logIndex": "0x6",
          "removed": false
        },
        {
          "address": "0xe3a9105a3a932253a70f126eb1e3b589c643dd24",
          "topics": [
            "0xdb9050d65240431621d61d6f94b970e63f53a67a5766614ee6e5c5bbd41c8e2e",
            "0x00000000000000000000000009635f643e140090a9a8dcd712ed6285858cebef"
          ],
          "data": "0x3bb3e65f1d9129960d8ab47d745843b10ae20c19d2ff0000000000007a6905005af99934839cbf2b93e804ccd80267df564c4519d1ff0000000000007a69050000000000000000000000000000000000000000000000000000000000000000007b1e77591fbd20d7586def73a7d9b0ad16a796c8b3ff0000000000007a690500",
          "blockHash": "0x7722a835a63e7e21c5f39530764cdec6cd52e702a1255404361eec7bb35a1bc8",
          "blockNumber": "0x24",
          "blockTimestamp": "0x6a37b0f5",
          "transactionHash": "0x814ca45aaf44b0e3b87c16bd076ddfa73cb661b55039f129732be384eae385d6",
          "transactionIndex": "0x0",
          "logIndex": "0x7",
          "removed": false
        },
        {
          "address": "0x50157cffd6bbfa2dece204a89ec419c23ef5755d",
          "topics": [
            "0xe2e1decee6e05ee246cd7c7f1337d25cdfd41dcbdcf8c57b61630be56cc7366a",
            "0x00000000000000000000000009635f643e140090a9a8dcd712ed6285858cebef",
            "0x00000000000000000000000009635f643e140090a9a8dcd712ed6285858cebef"
          ],
          "data": "0x7b1e77591fbd20d7586def73a7d9b0ad16a796c8b3ff0000000000007a690500",
          "blockHash": "0x7722a835a63e7e21c5f39530764cdec6cd52e702a1255404361eec7bb35a1bc8",
          "blockNumber": "0x24",
          "blockTimestamp": "0x6a37b0f5",
          "transactionHash": "0x814ca45aaf44b0e3b87c16bd076ddfa73cb661b55039f129732be384eae385d6",
          "transactionIndex": "0x0",
          "logIndex": "0x8",
          "removed": false
        },
        {
          "address": "0x50157cffd6bbfa2dece204a89ec419c23ef5755d",
          "topics": [
            "0xe2e1decee6e05ee246cd7c7f1337d25cdfd41dcbdcf8c57b61630be56cc7366a",
            "0x00000000000000000000000009635f643e140090a9a8dcd712ed6285858cebef",
            "0x000000000000000000000000f39fd6e51aad88f6f4ce6ab8827279cfffb92266"
          ],
          "data": "0x7b1e77591fbd20d7586def73a7d9b0ad16a796c8b3ff0000000000007a690500",
          "blockHash": "0x7722a835a63e7e21c5f39530764cdec6cd52e702a1255404361eec7bb35a1bc8",
          "blockNumber": "0x24",
          "blockTimestamp": "0x6a37b0f5",
          "transactionHash": "0x814ca45aaf44b0e3b87c16bd076ddfa73cb661b55039f129732be384eae385d6",
          "transactionIndex": "0x0",
          "logIndex": "0x9",
          "removed": false
        },
        {
          "address": "0x50157cffd6bbfa2dece204a89ec419c23ef5755d",
          "topics": [
            "0xe2e1decee6e05ee246cd7c7f1337d25cdfd41dcbdcf8c57b61630be56cc7366a",
            "0x00000000000000000000000009635f643e140090a9a8dcd712ed6285858cebef",
            "0x000000000000000000000000f39fd6e51aad88f6f4ce6ab8827279cfffb92266"
          ],
          "data": "0x5af99934839cbf2b93e804ccd80267df564c4519d1ff0000000000007a690500",
          "blockHash": "0x7722a835a63e7e21c5f39530764cdec6cd52e702a1255404361eec7bb35a1bc8",
          "blockNumber": "0x24",
          "blockTimestamp": "0x6a37b0f5",
          "transactionHash": "0x814ca45aaf44b0e3b87c16bd076ddfa73cb661b55039f129732be384eae385d6",
          "transactionIndex": "0x0",
          "logIndex": "0xa",
          "removed": false
        },
        {
          "address": "0x50157cffd6bbfa2dece204a89ec419c23ef5755d",
          "topics": [
            "0xe2e1decee6e05ee246cd7c7f1337d25cdfd41dcbdcf8c57b61630be56cc7366a",
            "0x00000000000000000000000009635f643e140090a9a8dcd712ed6285858cebef",
            "0x00000000000000000000000009635f643e140090a9a8dcd712ed6285858cebef"
          ],
          "data": "0x5af99934839cbf2b93e804ccd80267df564c4519d1ff0000000000007a690500",
          "blockHash": "0x7722a835a63e7e21c5f39530764cdec6cd52e702a1255404361eec7bb35a1bc8",
          "blockNumber": "0x24",
          "blockTimestamp": "0x6a37b0f5",
          "transactionHash": "0x814ca45aaf44b0e3b87c16bd076ddfa73cb661b55039f129732be384eae385d6",
          "transactionIndex": "0x0",
          "logIndex": "0xb",
          "removed": false
        },
        {
          "address": "0x09635f643e140090a9a8dcd712ed6285858cebef",
          "topics": [
            "0x67500e8d0ed826d2194f514dd0d8124f35648ab6e3fb5e6ed867134cffe661e9",
            "0x0000000000000000000000000000000000000000000000000000000000000000",
            "0x000000000000000000000000f39fd6e51aad88f6f4ce6ab8827279cfffb92266",
            "0x5af99934839cbf2b93e804ccd80267df564c4519d1ff0000000000007a690500"
          ],
          "data": "0x",
          "blockHash": "0x7722a835a63e7e21c5f39530764cdec6cd52e702a1255404361eec7bb35a1bc8",
          "blockNumber": "0x24",
          "blockTimestamp": "0x6a37b0f5",
          "transactionHash": "0x814ca45aaf44b0e3b87c16bd076ddfa73cb661b55039f129732be384eae385d6",
          "transactionIndex": "0x0",
          "logIndex": "0xc",
          "removed": false
        },
        {
          "address": "0x09635f643e140090a9a8dcd712ed6285858cebef",
          "topics": [
            "0xcda691c81d2fd787d8c209adb4ae8b138f857d7575adf7669195ed05482e701b",
            "0x000000000000000000000000f39fd6e51aad88f6f4ce6ab8827279cfffb92266"
          ],
          "data": "0x000000000000000000000000000000000000000000000000000000003b9aca005af99934839cbf2b93e804ccd80267df564c4519d1ff0000000000007a690500",
          "blockHash": "0x7722a835a63e7e21c5f39530764cdec6cd52e702a1255404361eec7bb35a1bc8",
          "blockNumber": "0x24",
          "blockTimestamp": "0x6a37b0f5",
          "transactionHash": "0x814ca45aaf44b0e3b87c16bd076ddfa73cb661b55039f129732be384eae385d6",
          "transactionIndex": "0x0",
          "logIndex": "0xd",
          "removed": false
        }
      ],
      "logsBloom": "0x00800000000000000000000000000000100000000000000000000000000000000000000000000000301002000000000000000000000000000000080800200000000000000000000000000008000000000000000000000000000200000004000400004000020000000010000100000800000000000000000000004010002000000000000001000000000000000000400000000800000000000000000000000000000000000000000000000000000000000000000000020000004100000000000100000002000000308000000008000408000000002100000000004000000020000000002000000008010000000000000000000004000000088000000000000000",
      "transactionHash": "0x814ca45aaf44b0e3b87c16bd076ddfa73cb661b55039f129732be384eae385d6",
      "transactionIndex": "0x0",
      "blockHash": "0x7722a835a63e7e21c5f39530764cdec6cd52e702a1255404361eec7bb35a1bc8",
      "blockNumber": "0x24",
      "gasUsed": "0x71a41",
      "effectiveGasPrice": "0xd26ebb",
      "blobGasPrice": "0x1",
      "from": "0xf39fd6e51aad88f6f4ce6ab8827279cfffb92266",
      "to": "0x09635f643e140090a9a8dcd712ed6285858cebef",
      "contractAddress": null
    },
    {
      "type": "0x2",
      "status": "0x1",
      "cumulativeGasUsed": "0xb4fa",
      "logs": [
        {
          "address": "0x7a2088a1bfc9d81c55368ae168c2c02570cb814f",
          "topics": [
            "0x8c5be1e5ebec7d5bd14f71427d1e84f3dd0314c0f7b2291e5b200ac8c7c3b925",
            "0x000000000000000000000000f39fd6e51aad88f6f4ce6ab8827279cfffb92266",
            "0x000000000000000000000000c5a5c42992decbae36851359345fe25997f5c42d"
          ],
          "data": "0x000000000000000000000000000000000000000000000000000000003b9aca00",
          "blockHash": "0x1e0cd47c600a1fa3d4776cbf0f3c9661996a27ef5f617ec7ac32ed44b38ef4c5",
          "blockNumber": "0x25",
          "blockTimestamp": "0x6a37b0f5",
          "transactionHash": "0x61243c8c8b006a57863aa424b32184af65c63d7c441665872fd743fdc8d2423d",
          "transactionIndex": "0x0",
          "logIndex": "0x0",
          "removed": false
        }
      ],
      "logsBloom": "0x00000000001000000000000000000000000000000000000200000000000000000000000000000000000000000000800000000000000000000000000000200000000000000000000000000000000000000000000000000000000000000000000000000000000000000000000100000000000000000000000000000000000000000000000000000000000000000000000000000000000000001200000000000000020000000000000000000000000000000000000000000000000000000000000000000000000000200000000000000000000000002000000000000000400000000010000000000000000000000000000000000000000000000000000000000000",
      "transactionHash": "0x61243c8c8b006a57863aa424b32184af65c63d7c441665872fd743fdc8d2423d",
      "transactionIndex": "0x0",
      "blockHash": "0x1e0cd47c600a1fa3d4776cbf0f3c9661996a27ef5f617ec7ac32ed44b38ef4c5",
      "blockNumber": "0x25",
      "gasUsed": "0xb4fa",
      "effectiveGasPrice": "0xb8f1da",
      "blobGasPrice": "0x1",
      "from": "0xf39fd6e51aad88f6f4ce6ab8827279cfffb92266",
      "to": "0x7a2088a1bfc9d81c55368ae168c2c02570cb814f",
      "contractAddress": null
    },
    {
      "type": "0x2",
      "status": "0x1",
      "cumulativeGasUsed": "0x71a41",
      "logs": [
        {
          "address": "0x7a2088a1bfc9d81c55368ae168c2c02570cb814f",
          "topics": [
            "0xddf252ad1be2c89b69c2b068fc378daa952ba7f163c4a11628f55a4df523b3ef",
            "0x000000000000000000000000f39fd6e51aad88f6f4ce6ab8827279cfffb92266",
            "0x000000000000000000000000c5a5c42992decbae36851359345fe25997f5c42d"
          ],
          "data": "0x000000000000000000000000000000000000000000000000000000003b9aca00",
          "blockHash": "0x4d00fbc410ba14f0ac233c6dd042b53c940d086082dc988fe690c010ee6bcedc",
          "blockNumber": "0x26",
          "blockTimestamp": "0x6a37b0f5",
          "transactionHash": "0xc41146d0274f75aa4562fb2d9fd119ed8c706f211d5b85acd4b60c2c942a2c1a",
          "transactionIndex": "0x0",
          "logIndex": "0x0",
          "removed": false
        },
        {
          "address": "0xe3a9105a3a932253a70f126eb1e3b589c643dd24",
          "topics": [
            "0x063ccd1bba45151d91f6a418065047a3d048d058a922535747bb2b575a01d236",
            "0x000000000000000000000000c5a5c42992decbae36851359345fe25997f5c42d"
          ],
          "data": "0x000000000000000000000000000000000000000000000000000000003b9aca0000000000000000000000000000000000000000000000000000000000000000050cc93f724237ea58ecaf72d7e7da9bb02fb2aa7e22ff0000000000007a690500",
          "blockHash": "0x4d00fbc410ba14f0ac233c6dd042b53c940d086082dc988fe690c010ee6bcedc",
          "blockNumber": "0x26",
          "blockTimestamp": "0x6a37b0f5",
          "transactionHash": "0xc41146d0274f75aa4562fb2d9fd119ed8c706f211d5b85acd4b60c2c942a2c1a",
          "transactionIndex": "0x0",
          "logIndex": "0x1",
          "removed": false
        },
        {
          "address": "0xe3a9105a3a932253a70f126eb1e3b589c643dd24",
          "topics": [
            "0x063ccd1bba45151d91f6a418065047a3d048d058a922535747bb2b575a01d236",
            "0x000000000000000000000000c5a5c42992decbae36851359345fe25997f5c42d"
          ],
          "data": "0x00000000000000000000000000000000000000000000000000000000000000010000000000000000000000000000000000000000000000000000000000000000b357606d3ba2b93eaba968490eb053c7c61887eeefff0000000000007a690000",
          "blockHash": "0x4d00fbc410ba14f0ac233c6dd042b53c940d086082dc988fe690c010ee6bcedc",
          "blockNumber": "0x26",
          "blockTimestamp": "0x6a37b0f5",
          "transactionHash": "0xc41146d0274f75aa4562fb2d9fd119ed8c706f211d5b85acd4b60c2c942a2c1a",
          "transactionIndex": "0x0",
          "logIndex": "0x2",
          "removed": false
        },
        {
          "address": "0x50157cffd6bbfa2dece204a89ec419c23ef5755d",
          "topics": [
            "0xe2e1decee6e05ee246cd7c7f1337d25cdfd41dcbdcf8c57b61630be56cc7366a",
            "0x000000000000000000000000c5a5c42992decbae36851359345fe25997f5c42d",
            "0x000000000000000000000000c5a5c42992decbae36851359345fe25997f5c42d"
          ],
          "data": "0x0cc93f724237ea58ecaf72d7e7da9bb02fb2aa7e22ff0000000000007a690500",
          "blockHash": "0x4d00fbc410ba14f0ac233c6dd042b53c940d086082dc988fe690c010ee6bcedc",
          "blockNumber": "0x26",
          "blockTimestamp": "0x6a37b0f5",
          "transactionHash": "0xc41146d0274f75aa4562fb2d9fd119ed8c706f211d5b85acd4b60c2c942a2c1a",
          "transactionIndex": "0x0",
          "logIndex": "0x3",
          "removed": false
        },
        {
          "address": "0xe3a9105a3a932253a70f126eb1e3b589c643dd24",
          "topics": [
            "0x063ccd1bba45151d91f6a418065047a3d048d058a922535747bb2b575a01d236",
            "0x000000000000000000000000c5a5c42992decbae36851359345fe25997f5c42d"
          ],
          "data": "0x0000000000000000000000000000000000000000000000000000000000000000000000000000000000000000000000000000000000000000000000000000000558077127a0c827e08b0e70fa5b4d7563e27f72e9aeff0000000000007a690500",
          "blockHash": "0x4d00fbc410ba14f0ac233c6dd042b53c940d086082dc988fe690c010ee6bcedc",
          "blockNumber": "0x26",
          "blockTimestamp": "0x6a37b0f5",
          "transactionHash": "0xc41146d0274f75aa4562fb2d9fd119ed8c706f211d5b85acd4b60c2c942a2c1a",
          "transactionIndex": "0x0",
          "logIndex": "0x4",
          "removed": false
        },
        {
          "address": "0xe3a9105a3a932253a70f126eb1e3b589c643dd24",
          "topics": [
            "0x60be9d61aad849facc28c38b048cb5c4be3420b8fa2233e08cfa06be1b6d1c3e",
            "0x000000000000000000000000c5a5c42992decbae36851359345fe25997f5c42d"
          ],
          "data": "0xb357606d3ba2b93eaba968490eb053c7c61887eeefff0000000000007a6900000cc93f724237ea58ecaf72d7e7da9bb02fb2aa7e22ff0000000000007a69050058077127a0c827e08b0e70fa5b4d7563e27f72e9aeff0000000000007a690500ffda847fb582ae48ad30d3a96f1fcfde2e3aad8fdaff0000000000007a690500",
          "blockHash": "0x4d00fbc410ba14f0ac233c6dd042b53c940d086082dc988fe690c010ee6bcedc",
          "blockNumber": "0x26",
          "blockTimestamp": "0x6a37b0f5",
          "transactionHash": "0xc41146d0274f75aa4562fb2d9fd119ed8c706f211d5b85acd4b60c2c942a2c1a",
          "transactionIndex": "0x0",
          "logIndex": "0x5",
          "removed": false
        },
        {
          "address": "0xe3a9105a3a932253a70f126eb1e3b589c643dd24",
          "topics": [
            "0x063ccd1bba45151d91f6a418065047a3d048d058a922535747bb2b575a01d236",
            "0x000000000000000000000000c5a5c42992decbae36851359345fe25997f5c42d"
          ],
          "data": "0x0000000000000000000000000000000000000000000000000000000000000000000000000000000000000000000000000000000000000000000000000000000558077127a0c827e08b0e70fa5b4d7563e27f72e9aeff0000000000007a690500",
          "blockHash": "0x4d00fbc410ba14f0ac233c6dd042b53c940d086082dc988fe690c010ee6bcedc",
          "blockNumber": "0x26",
          "blockTimestamp": "0x6a37b0f5",
          "transactionHash": "0xc41146d0274f75aa4562fb2d9fd119ed8c706f211d5b85acd4b60c2c942a2c1a",
          "transactionIndex": "0x0",
          "logIndex": "0x6",
          "removed": false
        },
        {
          "address": "0xe3a9105a3a932253a70f126eb1e3b589c643dd24",
          "topics": [
            "0xdb9050d65240431621d61d6f94b970e63f53a67a5766614ee6e5c5bbd41c8e2e",
            "0x000000000000000000000000c5a5c42992decbae36851359345fe25997f5c42d"
          ],
          "data": "0x58077127a0c827e08b0e70fa5b4d7563e27f72e9aeff0000000000007a690500ffda847fb582ae48ad30d3a96f1fcfde2e3aad8fdaff0000000000007a6905000000000000000000000000000000000000000000000000000000000000000000bf52e3e141cd2c6f2327c33d5a545c99bb5418892eff0000000000007a690500",
          "blockHash": "0x4d00fbc410ba14f0ac233c6dd042b53c940d086082dc988fe690c010ee6bcedc",
          "blockNumber": "0x26",
          "blockTimestamp": "0x6a37b0f5",
          "transactionHash": "0xc41146d0274f75aa4562fb2d9fd119ed8c706f211d5b85acd4b60c2c942a2c1a",
          "transactionIndex": "0x0",
          "logIndex": "0x7",
          "removed": false
        },
        {
          "address": "0x50157cffd6bbfa2dece204a89ec419c23ef5755d",
          "topics": [
            "0xe2e1decee6e05ee246cd7c7f1337d25cdfd41dcbdcf8c57b61630be56cc7366a",
            "0x000000000000000000000000c5a5c42992decbae36851359345fe25997f5c42d",
            "0x000000000000000000000000c5a5c42992decbae36851359345fe25997f5c42d"
          ],
          "data": "0xbf52e3e141cd2c6f2327c33d5a545c99bb5418892eff0000000000007a690500",
          "blockHash": "0x4d00fbc410ba14f0ac233c6dd042b53c940d086082dc988fe690c010ee6bcedc",
          "blockNumber": "0x26",
          "blockTimestamp": "0x6a37b0f5",
          "transactionHash": "0xc41146d0274f75aa4562fb2d9fd119ed8c706f211d5b85acd4b60c2c942a2c1a",
          "transactionIndex": "0x0",
          "logIndex": "0x8",
          "removed": false
        },
        {
          "address": "0x50157cffd6bbfa2dece204a89ec419c23ef5755d",
          "topics": [
            "0xe2e1decee6e05ee246cd7c7f1337d25cdfd41dcbdcf8c57b61630be56cc7366a",
            "0x000000000000000000000000c5a5c42992decbae36851359345fe25997f5c42d",
            "0x000000000000000000000000f39fd6e51aad88f6f4ce6ab8827279cfffb92266"
          ],
          "data": "0xbf52e3e141cd2c6f2327c33d5a545c99bb5418892eff0000000000007a690500",
          "blockHash": "0x4d00fbc410ba14f0ac233c6dd042b53c940d086082dc988fe690c010ee6bcedc",
          "blockNumber": "0x26",
          "blockTimestamp": "0x6a37b0f5",
          "transactionHash": "0xc41146d0274f75aa4562fb2d9fd119ed8c706f211d5b85acd4b60c2c942a2c1a",
          "transactionIndex": "0x0",
          "logIndex": "0x9",
          "removed": false
        },
        {
          "address": "0x50157cffd6bbfa2dece204a89ec419c23ef5755d",
          "topics": [
            "0xe2e1decee6e05ee246cd7c7f1337d25cdfd41dcbdcf8c57b61630be56cc7366a",
            "0x000000000000000000000000c5a5c42992decbae36851359345fe25997f5c42d",
            "0x000000000000000000000000f39fd6e51aad88f6f4ce6ab8827279cfffb92266"
          ],
          "data": "0xffda847fb582ae48ad30d3a96f1fcfde2e3aad8fdaff0000000000007a690500",
          "blockHash": "0x4d00fbc410ba14f0ac233c6dd042b53c940d086082dc988fe690c010ee6bcedc",
          "blockNumber": "0x26",
          "blockTimestamp": "0x6a37b0f5",
          "transactionHash": "0xc41146d0274f75aa4562fb2d9fd119ed8c706f211d5b85acd4b60c2c942a2c1a",
          "transactionIndex": "0x0",
          "logIndex": "0xa",
          "removed": false
        },
        {
          "address": "0x50157cffd6bbfa2dece204a89ec419c23ef5755d",
          "topics": [
            "0xe2e1decee6e05ee246cd7c7f1337d25cdfd41dcbdcf8c57b61630be56cc7366a",
            "0x000000000000000000000000c5a5c42992decbae36851359345fe25997f5c42d",
            "0x000000000000000000000000c5a5c42992decbae36851359345fe25997f5c42d"
          ],
          "data": "0xffda847fb582ae48ad30d3a96f1fcfde2e3aad8fdaff0000000000007a690500",
          "blockHash": "0x4d00fbc410ba14f0ac233c6dd042b53c940d086082dc988fe690c010ee6bcedc",
          "blockNumber": "0x26",
          "blockTimestamp": "0x6a37b0f5",
          "transactionHash": "0xc41146d0274f75aa4562fb2d9fd119ed8c706f211d5b85acd4b60c2c942a2c1a",
          "transactionIndex": "0x0",
          "logIndex": "0xb",
          "removed": false
        },
        {
          "address": "0xc5a5c42992decbae36851359345fe25997f5c42d",
          "topics": [
            "0x67500e8d0ed826d2194f514dd0d8124f35648ab6e3fb5e6ed867134cffe661e9",
            "0x0000000000000000000000000000000000000000000000000000000000000000",
            "0x000000000000000000000000f39fd6e51aad88f6f4ce6ab8827279cfffb92266",
            "0xffda847fb582ae48ad30d3a96f1fcfde2e3aad8fdaff0000000000007a690500"
          ],
          "data": "0x",
          "blockHash": "0x4d00fbc410ba14f0ac233c6dd042b53c940d086082dc988fe690c010ee6bcedc",
          "blockNumber": "0x26",
          "blockTimestamp": "0x6a37b0f5",
          "transactionHash": "0xc41146d0274f75aa4562fb2d9fd119ed8c706f211d5b85acd4b60c2c942a2c1a",
          "transactionIndex": "0x0",
          "logIndex": "0xc",
          "removed": false
        },
        {
          "address": "0xc5a5c42992decbae36851359345fe25997f5c42d",
          "topics": [
            "0xcda691c81d2fd787d8c209adb4ae8b138f857d7575adf7669195ed05482e701b",
            "0x000000000000000000000000f39fd6e51aad88f6f4ce6ab8827279cfffb92266"
          ],
          "data": "0x000000000000000000000000000000000000000000000000000000003b9aca00ffda847fb582ae48ad30d3a96f1fcfde2e3aad8fdaff0000000000007a690500",
          "blockHash": "0x4d00fbc410ba14f0ac233c6dd042b53c940d086082dc988fe690c010ee6bcedc",
          "blockNumber": "0x26",
          "blockTimestamp": "0x6a37b0f5",
          "transactionHash": "0xc41146d0274f75aa4562fb2d9fd119ed8c706f211d5b85acd4b60c2c942a2c1a",
          "transactionIndex": "0x0",
          "logIndex": "0xd",
          "removed": false
        }
      ],
      "logsBloom": "0x00800000001800000000000000000000100004000000000200000000000000000000000000000000000002000000800000000000000000000004080800000000000000000000000000000008000000000000000000000000000200000004000000004000020000000000000100000800000000000000000000004010002000000000000001000000000040000000000000000800000000001200000000000000000000000000000000000000000000000000000000020000004100000000000000000002080000208000000008000428000000002000000000004000400020000000002000000000010000000000000000000004000000080000000000000000",
      "transactionHash": "0xc41146d0274f75aa4562fb2d9fd119ed8c706f211d5b85acd4b60c2c942a2c1a",
      "transactionIndex": "0x0",
      "blockHash": "0x4d00fbc410ba14f0ac233c6dd042b53c940d086082dc988fe690c010ee6bcedc",
      "blockNumber": "0x26",
      "gasUsed": "0x71a41",
      "effectiveGasPrice": "0xa1e5e7",
      "blobGasPrice": "0x1",
      "from": "0xf39fd6e51aad88f6f4ce6ab8827279cfffb92266",
      "to": "0xc5a5c42992decbae36851359345fe25997f5c42d",
      "contractAddress": null
    },
    {
      "type": "0x2",
      "status": "0x1",
      "cumulativeGasUsed": "0xb501",
      "logs": [
        {
          "address": "0x67d269191c92caf3cd7723f116c85e6e9bf55933",
          "topics": [
            "0x8c5be1e5ebec7d5bd14f71427d1e84f3dd0314c0f7b2291e5b200ac8c7c3b925",
            "0x000000000000000000000000f39fd6e51aad88f6f4ce6ab8827279cfffb92266",
            "0x000000000000000000000000e6e340d132b5f46d1e472debcd681b2abc16e57e"
          ],
          "data": "0x000000000000000000000000000000000000000000000000000000003b9aca00",
          "blockHash": "0x602902b88d9bab82aae0aa4dbd4e65c7a09cd527e8f99ce53a3bfd05e616a55b",
          "blockNumber": "0x27",
          "blockTimestamp": "0x6a37b0f5",
          "transactionHash": "0xb40dad3f9c41808a3fc502d4bfee68bc6d279ca7727e3742c7108755210fc57e",
          "transactionIndex": "0x0",
          "logIndex": "0x0",
          "removed": false
        }
      ],
      "logsBloom": "0x00000000000000000000000000000000000000000000000000000000000000000000000000000000000000000000000000000000000000000000000000200000000000000000000200000000000000800000000000002000000000000000000000000000000000000000000100000000000000000000000000000000000000100000000000000000000000000000000000000000000000000000000000000000020000000000000000000000000000000020000000000000000000000000000000000000000000200000000000000000000000002000000000000000000000000010000000000000000000000000000000000000000000004000000000000000",
      "transactionHash": "0xb40dad3f9c41808a3fc502d4bfee68bc6d279ca7727e3742c7108755210fc57e",
      "transactionIndex": "0x0",
      "blockHash": "0x602902b88d9bab82aae0aa4dbd4e65c7a09cd527e8f99ce53a3bfd05e616a55b",
      "blockNumber": "0x27",
      "gasUsed": "0xb501",
      "effectiveGasPrice": "0x8e49ef",
      "blobGasPrice": "0x1",
      "from": "0xf39fd6e51aad88f6f4ce6ab8827279cfffb92266",
      "to": "0x67d269191c92caf3cd7723f116c85e6e9bf55933",
      "contractAddress": null
    },
    {
      "type": "0x2",
      "status": "0x1",
      "cumulativeGasUsed": "0x71a62",
      "logs": [
        {
          "address": "0x67d269191c92caf3cd7723f116c85e6e9bf55933",
          "topics": [
            "0xddf252ad1be2c89b69c2b068fc378daa952ba7f163c4a11628f55a4df523b3ef",
            "0x000000000000000000000000f39fd6e51aad88f6f4ce6ab8827279cfffb92266",
            "0x000000000000000000000000e6e340d132b5f46d1e472debcd681b2abc16e57e"
          ],
          "data": "0x000000000000000000000000000000000000000000000000000000003b9aca00",
          "blockHash": "0x95c0d7a76f75bdcad898bb544adc9a51e909abcfd79c18fe2eb9511f65d1c014",
          "blockNumber": "0x28",
          "blockTimestamp": "0x6a37b0f5",
          "transactionHash": "0x48010d59fb826f6a49f3403d9d7821469f6ba3e5e8b5fdcbb4a44d051dfdec1a",
          "transactionIndex": "0x0",
          "logIndex": "0x0",
          "removed": false
        },
        {
          "address": "0xe3a9105a3a932253a70f126eb1e3b589c643dd24",
          "topics": [
            "0x063ccd1bba45151d91f6a418065047a3d048d058a922535747bb2b575a01d236",
            "0x000000000000000000000000e6e340d132b5f46d1e472debcd681b2abc16e57e"
          ],
          "data": "0x000000000000000000000000000000000000000000000000000000003b9aca0000000000000000000000000000000000000000000000000000000000000000058bd617d42158221c9c2219e7efabff8fa7bd106c9bff0000000000007a690500",
          "blockHash": "0x95c0d7a76f75bdcad898bb544adc9a51e909abcfd79c18fe2eb9511f65d1c014",
          "blockNumber": "0x28",
          "blockTimestamp": "0x6a37b0f5",
          "transactionHash": "0x48010d59fb826f6a49f3403d9d7821469f6ba3e5e8b5fdcbb4a44d051dfdec1a",
          "transactionIndex": "0x0",
          "logIndex": "0x1",
          "removed": false
        },
        {
          "address": "0xe3a9105a3a932253a70f126eb1e3b589c643dd24",
          "topics": [
            "0x063ccd1bba45151d91f6a418065047a3d048d058a922535747bb2b575a01d236",
            "0x000000000000000000000000e6e340d132b5f46d1e472debcd681b2abc16e57e"
          ],
          "data": "0x00000000000000000000000000000000000000000000000000000000000000010000000000000000000000000000000000000000000000000000000000000000bf19387a0893df14e88cdb125dd440890cc3295d69ff0000000000007a690000",
          "blockHash": "0x95c0d7a76f75bdcad898bb544adc9a51e909abcfd79c18fe2eb9511f65d1c014",
          "blockNumber": "0x28",
          "blockTimestamp": "0x6a37b0f5",
          "transactionHash": "0x48010d59fb826f6a49f3403d9d7821469f6ba3e5e8b5fdcbb4a44d051dfdec1a",
          "transactionIndex": "0x0",
          "logIndex": "0x2",
          "removed": false
        },
        {
          "address": "0x50157cffd6bbfa2dece204a89ec419c23ef5755d",
          "topics": [
            "0xe2e1decee6e05ee246cd7c7f1337d25cdfd41dcbdcf8c57b61630be56cc7366a",
            "0x000000000000000000000000e6e340d132b5f46d1e472debcd681b2abc16e57e",
            "0x000000000000000000000000e6e340d132b5f46d1e472debcd681b2abc16e57e"
          ],
          "data": "0x8bd617d42158221c9c2219e7efabff8fa7bd106c9bff0000000000007a690500",
          "blockHash": "0x95c0d7a76f75bdcad898bb544adc9a51e909abcfd79c18fe2eb9511f65d1c014",
          "blockNumber": "0x28",
          "blockTimestamp": "0x6a37b0f5",
          "transactionHash": "0x48010d59fb826f6a49f3403d9d7821469f6ba3e5e8b5fdcbb4a44d051dfdec1a",
          "transactionIndex": "0x0",
          "logIndex": "0x3",
          "removed": false
        },
        {
          "address": "0xe3a9105a3a932253a70f126eb1e3b589c643dd24",
          "topics": [
            "0x063ccd1bba45151d91f6a418065047a3d048d058a922535747bb2b575a01d236",
            "0x000000000000000000000000e6e340d132b5f46d1e472debcd681b2abc16e57e"
          ],
          "data": "0x000000000000000000000000000000000000000000000000000000000000000000000000000000000000000000000000000000000000000000000000000000051037f1c0b16793bb838ab2bc71c99600304672ba5aff0000000000007a690500",
          "blockHash": "0x95c0d7a76f75bdcad898bb544adc9a51e909abcfd79c18fe2eb9511f65d1c014",
          "blockNumber": "0x28",
          "blockTimestamp": "0x6a37b0f5",
          "transactionHash": "0x48010d59fb826f6a49f3403d9d7821469f6ba3e5e8b5fdcbb4a44d051dfdec1a",
          "transactionIndex": "0x0",
          "logIndex": "0x4",
          "removed": false
        },
        {
          "address": "0xe3a9105a3a932253a70f126eb1e3b589c643dd24",
          "topics": [
            "0x60be9d61aad849facc28c38b048cb5c4be3420b8fa2233e08cfa06be1b6d1c3e",
            "0x000000000000000000000000e6e340d132b5f46d1e472debcd681b2abc16e57e"
          ],
          "data": "0xbf19387a0893df14e88cdb125dd440890cc3295d69ff0000000000007a6900008bd617d42158221c9c2219e7efabff8fa7bd106c9bff0000000000007a6905001037f1c0b16793bb838ab2bc71c99600304672ba5aff0000000000007a6905004a20e46191108a704ff59e19354981fb6db6689aceff0000000000007a690500",
          "blockHash": "0x95c0d7a76f75bdcad898bb544adc9a51e909abcfd79c18fe2eb9511f65d1c014",
          "blockNumber": "0x28",
          "blockTimestamp": "0x6a37b0f5",
          "transactionHash": "0x48010d59fb826f6a49f3403d9d7821469f6ba3e5e8b5fdcbb4a44d051dfdec1a",
          "transactionIndex": "0x0",
          "logIndex": "0x5",
          "removed": false
        },
        {
          "address": "0xe3a9105a3a932253a70f126eb1e3b589c643dd24",
          "topics": [
            "0x063ccd1bba45151d91f6a418065047a3d048d058a922535747bb2b575a01d236",
            "0x000000000000000000000000e6e340d132b5f46d1e472debcd681b2abc16e57e"
          ],
          "data": "0x000000000000000000000000000000000000000000000000000000000000000000000000000000000000000000000000000000000000000000000000000000051037f1c0b16793bb838ab2bc71c99600304672ba5aff0000000000007a690500",
          "blockHash": "0x95c0d7a76f75bdcad898bb544adc9a51e909abcfd79c18fe2eb9511f65d1c014",
          "blockNumber": "0x28",
          "blockTimestamp": "0x6a37b0f5",
          "transactionHash": "0x48010d59fb826f6a49f3403d9d7821469f6ba3e5e8b5fdcbb4a44d051dfdec1a",
          "transactionIndex": "0x0",
          "logIndex": "0x6",
          "removed": false
        },
        {
          "address": "0xe3a9105a3a932253a70f126eb1e3b589c643dd24",
          "topics": [
            "0xdb9050d65240431621d61d6f94b970e63f53a67a5766614ee6e5c5bbd41c8e2e",
            "0x000000000000000000000000e6e340d132b5f46d1e472debcd681b2abc16e57e"
          ],
          "data": "0x1037f1c0b16793bb838ab2bc71c99600304672ba5aff0000000000007a6905004a20e46191108a704ff59e19354981fb6db6689aceff0000000000007a69050000000000000000000000000000000000000000000000000000000000000000007e211db0a37df3d4a931275b0b124a185d4e874937ff0000000000007a690500",
          "blockHash": "0x95c0d7a76f75bdcad898bb544adc9a51e909abcfd79c18fe2eb9511f65d1c014",
          "blockNumber": "0x28",
          "blockTimestamp": "0x6a37b0f5",
          "transactionHash": "0x48010d59fb826f6a49f3403d9d7821469f6ba3e5e8b5fdcbb4a44d051dfdec1a",
          "transactionIndex": "0x0",
          "logIndex": "0x7",
          "removed": false
        },
        {
          "address": "0x50157cffd6bbfa2dece204a89ec419c23ef5755d",
          "topics": [
            "0xe2e1decee6e05ee246cd7c7f1337d25cdfd41dcbdcf8c57b61630be56cc7366a",
            "0x000000000000000000000000e6e340d132b5f46d1e472debcd681b2abc16e57e",
            "0x000000000000000000000000e6e340d132b5f46d1e472debcd681b2abc16e57e"
          ],
          "data": "0x7e211db0a37df3d4a931275b0b124a185d4e874937ff0000000000007a690500",
          "blockHash": "0x95c0d7a76f75bdcad898bb544adc9a51e909abcfd79c18fe2eb9511f65d1c014",
          "blockNumber": "0x28",
          "blockTimestamp": "0x6a37b0f5",
          "transactionHash": "0x48010d59fb826f6a49f3403d9d7821469f6ba3e5e8b5fdcbb4a44d051dfdec1a",
          "transactionIndex": "0x0",
          "logIndex": "0x8",
          "removed": false
        },
        {
          "address": "0x50157cffd6bbfa2dece204a89ec419c23ef5755d",
          "topics": [
            "0xe2e1decee6e05ee246cd7c7f1337d25cdfd41dcbdcf8c57b61630be56cc7366a",
            "0x000000000000000000000000e6e340d132b5f46d1e472debcd681b2abc16e57e",
            "0x000000000000000000000000f39fd6e51aad88f6f4ce6ab8827279cfffb92266"
          ],
          "data": "0x7e211db0a37df3d4a931275b0b124a185d4e874937ff0000000000007a690500",
          "blockHash": "0x95c0d7a76f75bdcad898bb544adc9a51e909abcfd79c18fe2eb9511f65d1c014",
          "blockNumber": "0x28",
          "blockTimestamp": "0x6a37b0f5",
          "transactionHash": "0x48010d59fb826f6a49f3403d9d7821469f6ba3e5e8b5fdcbb4a44d051dfdec1a",
          "transactionIndex": "0x0",
          "logIndex": "0x9",
          "removed": false
        },
        {
          "address": "0x50157cffd6bbfa2dece204a89ec419c23ef5755d",
          "topics": [
            "0xe2e1decee6e05ee246cd7c7f1337d25cdfd41dcbdcf8c57b61630be56cc7366a",
            "0x000000000000000000000000e6e340d132b5f46d1e472debcd681b2abc16e57e",
            "0x000000000000000000000000f39fd6e51aad88f6f4ce6ab8827279cfffb92266"
          ],
          "data": "0x4a20e46191108a704ff59e19354981fb6db6689aceff0000000000007a690500",
          "blockHash": "0x95c0d7a76f75bdcad898bb544adc9a51e909abcfd79c18fe2eb9511f65d1c014",
          "blockNumber": "0x28",
          "blockTimestamp": "0x6a37b0f5",
          "transactionHash": "0x48010d59fb826f6a49f3403d9d7821469f6ba3e5e8b5fdcbb4a44d051dfdec1a",
          "transactionIndex": "0x0",
          "logIndex": "0xa",
          "removed": false
        },
        {
          "address": "0x50157cffd6bbfa2dece204a89ec419c23ef5755d",
          "topics": [
            "0xe2e1decee6e05ee246cd7c7f1337d25cdfd41dcbdcf8c57b61630be56cc7366a",
            "0x000000000000000000000000e6e340d132b5f46d1e472debcd681b2abc16e57e",
            "0x000000000000000000000000e6e340d132b5f46d1e472debcd681b2abc16e57e"
          ],
          "data": "0x4a20e46191108a704ff59e19354981fb6db6689aceff0000000000007a690500",
          "blockHash": "0x95c0d7a76f75bdcad898bb544adc9a51e909abcfd79c18fe2eb9511f65d1c014",
          "blockNumber": "0x28",
          "blockTimestamp": "0x6a37b0f5",
          "transactionHash": "0x48010d59fb826f6a49f3403d9d7821469f6ba3e5e8b5fdcbb4a44d051dfdec1a",
          "transactionIndex": "0x0",
          "logIndex": "0xb",
          "removed": false
        },
        {
          "address": "0xe6e340d132b5f46d1e472debcd681b2abc16e57e",
          "topics": [
            "0x67500e8d0ed826d2194f514dd0d8124f35648ab6e3fb5e6ed867134cffe661e9",
            "0x0000000000000000000000000000000000000000000000000000000000000000",
            "0x000000000000000000000000f39fd6e51aad88f6f4ce6ab8827279cfffb92266",
            "0x4a20e46191108a704ff59e19354981fb6db6689aceff0000000000007a690500"
          ],
          "data": "0x",
          "blockHash": "0x95c0d7a76f75bdcad898bb544adc9a51e909abcfd79c18fe2eb9511f65d1c014",
          "blockNumber": "0x28",
          "blockTimestamp": "0x6a37b0f5",
          "transactionHash": "0x48010d59fb826f6a49f3403d9d7821469f6ba3e5e8b5fdcbb4a44d051dfdec1a",
          "transactionIndex": "0x0",
          "logIndex": "0xc",
          "removed": false
        },
        {
          "address": "0xe6e340d132b5f46d1e472debcd681b2abc16e57e",
          "topics": [
            "0xcda691c81d2fd787d8c209adb4ae8b138f857d7575adf7669195ed05482e701b",
            "0x000000000000000000000000f39fd6e51aad88f6f4ce6ab8827279cfffb92266"
          ],
          "data": "0x000000000000000000000000000000000000000000000000000000003b9aca004a20e46191108a704ff59e19354981fb6db6689aceff0000000000007a690500",
          "blockHash": "0x95c0d7a76f75bdcad898bb544adc9a51e909abcfd79c18fe2eb9511f65d1c014",
          "blockNumber": "0x28",
          "blockTimestamp": "0x6a37b0f5",
          "transactionHash": "0x48010d59fb826f6a49f3403d9d7821469f6ba3e5e8b5fdcbb4a44d051dfdec1a",
          "transactionIndex": "0x0",
          "logIndex": "0xd",
          "removed": false
        }
      ],
      "logsBloom": "0x00800000000000000000000000000000100000000000000000040000000000000000000000000000000002000000000000000000000000000000080800000000000000000000000280000008000000800000000000002000000200000004200000004000020000000000000100000c00000000000000000000004010082000100000000001000000000000000000000000000800000000000000000000000000000000000000000000000000000000000020000000020000004100000000000000000002000000208000000008000408000000002000000000004200000020000000002000000000010000000000000000000004000000084000000000000000",
      "transactionHash": "0x48010d59fb826f6a49f3403d9d7821469f6ba3e5e8b5fdcbb4a44d051dfdec1a",
      "transactionIndex": "0x0",
      "blockHash": "0x95c0d7a76f75bdcad898bb544adc9a51e909abcfd79c18fe2eb9511f65d1c014",
      "blockNumber": "0x28",
      "gasUsed": "0x71a62",
      "effectiveGasPrice": "0x7c8ec3",
      "blobGasPrice": "0x1",
      "from": "0xf39fd6e51aad88f6f4ce6ab8827279cfffb92266",
      "to": "0xe6e340d132b5f46d1e472debcd681b2abc16e57e",
      "contractAddress": null
    },
    {
      "type": "0x2",
      "status": "0x1",
      "cumulativeGasUsed": "0x13eff9",
      "logs": [
        {
          "address": "0x70e0ba845a1a0f2da3359c97e0285013525ffc49",
          "topics": [
            "0xc7f505b2f371ae2175ee4913f4499e1f2633a7b5936321eed1cdaeb6115181d2"
          ],
          "data": "0x000000000000000000000000000000000000000000000000ffffffffffffffff",
          "blockHash": "0x96f868f93a139b7fcdc90e9154530da7d64ab8ddb4dc2e43fd1b44944679936f",
          "blockNumber": "0x29",
          "blockTimestamp": "0x6a37b0f5",
          "transactionHash": "0x3d3050e2f0280477b22969783a90114ea5f25ae7ac10027b265bd56582edb3be",
          "transactionIndex": "0x0",
          "logIndex": "0x0",
          "removed": false
        }
      ],
      "logsBloom": "0x00000000000000000000000000000000000000000000000000000000000000000000000000000000000000000000000000000000000000000000000000000000000000000000000000000000000000200000000000000000000000000000000000000000000000000040004000000000000000000000000000000000000000000000000000000000000800000000000000000000000080000000000000000000000000000000000000000000000000000000000000000000000000000000000000000000000000000000000000000000000000000004000000000000000000000000000000000000000000000000000000000000000000000000000000000000",
      "transactionHash": "0x3d3050e2f0280477b22969783a90114ea5f25ae7ac10027b265bd56582edb3be",
      "transactionIndex": "0x0",
      "blockHash": "0x96f868f93a139b7fcdc90e9154530da7d64ab8ddb4dc2e43fd1b44944679936f",
      "blockNumber": "0x29",
      "gasUsed": "0x13eff9",
      "effectiveGasPrice": "0x6d789d",
      "blobGasPrice": "0x1",
      "from": "0xf39fd6e51aad88f6f4ce6ab8827279cfffb92266",
      "to": null,
      "contractAddress": "0x70e0ba845a1a0f2da3359c97e0285013525ffc49"
    },
    {
      "type": "0x2",
      "status": "0x1",
      "cumulativeGasUsed": "0x2c0c7",
      "logs": [
        {
          "address": "0x4826533b4897376654bb4d4ad88b7fafd0c98528",
          "topics": [
            "0xbc7cd75a20ee27fd9adebab32041f755214dbc6bffa90cc0225b39da2e5c2d3b",
            "0x00000000000000000000000070e0ba845a1a0f2da3359c97e0285013525ffc49"
          ],
          "data": "0x",
          "blockHash": "0x0a83d07f75239d7081d2456ebbfe8cb687f4cff2d285d5e4f7c5723496867bc1",
          "blockNumber": "0x2a",
          "blockTimestamp": "0x6a37b0f5",
          "transactionHash": "0x7aae97d21eebfc08e918338a80b96c157c5165986e9538e966453f12990c3640",
          "transactionIndex": "0x0",
          "logIndex": "0x0",
          "removed": false
        },
        {
          "address": "0x4826533b4897376654bb4d4ad88b7fafd0c98528",
          "topics": [
            "0x8be0079c531659141344cd1fd0a4f28419497f9722a3daafe3b4186f6b6457e0",
            "0x0000000000000000000000000000000000000000000000000000000000000000",
            "0x000000000000000000000000f39fd6e51aad88f6f4ce6ab8827279cfffb92266"
          ],
          "data": "0x",
          "blockHash": "0x0a83d07f75239d7081d2456ebbfe8cb687f4cff2d285d5e4f7c5723496867bc1",
          "blockNumber": "0x2a",
          "blockTimestamp": "0x6a37b0f5",
          "transactionHash": "0x7aae97d21eebfc08e918338a80b96c157c5165986e9538e966453f12990c3640",
          "transactionIndex": "0x0",
          "logIndex": "0x1",
          "removed": false
        },
        {
          "address": "0x4826533b4897376654bb4d4ad88b7fafd0c98528",
          "topics": [
            "0xc7f505b2f371ae2175ee4913f4499e1f2633a7b5936321eed1cdaeb6115181d2"
          ],
          "data": "0x0000000000000000000000000000000000000000000000000000000000000001",
          "blockHash": "0x0a83d07f75239d7081d2456ebbfe8cb687f4cff2d285d5e4f7c5723496867bc1",
          "blockNumber": "0x2a",
          "blockTimestamp": "0x6a37b0f5",
          "transactionHash": "0x7aae97d21eebfc08e918338a80b96c157c5165986e9538e966453f12990c3640",
          "transactionIndex": "0x0",
          "logIndex": "0x2",
          "removed": false
        }
      ],
      "logsBloom": "0x00000000000000000000000000000000400000000000000000800000000000000000000000000000000000000000000000000000000000000000000000000000400000000000000000000000000002000001000000000000000000000000000000000000020000000000000100000a00000000000000000000000000000000400000000000000000000800000000000000000000000080000040000000000080000000000000000000000000000000000000000000000000000000000000000000000020000000200000000000000000000000002004001000000000000020000000000000000080000000000000000000000000000000000000000000000000",
      "transactionHash": "0x7aae97d21eebfc08e918338a80b96c157c5165986e9538e966453f12990c3640",
      "transactionIndex": "0x0",
      "blockHash": "0x0a83d07f75239d7081d2456ebbfe8cb687f4cff2d285d5e4f7c5723496867bc1",
      "blockNumber": "0x2a",
      "gasUsed": "0x2c0c7",
      "effectiveGasPrice": "0x60faaf",
      "blobGasPrice": "0x1",
      "from": "0xf39fd6e51aad88f6f4ce6ab8827279cfffb92266",
      "to": null,
      "contractAddress": "0x4826533b4897376654bb4d4ad88b7fafd0c98528"
    },
    {
      "type": "0x2",
      "status": "0x1",
      "cumulativeGasUsed": "0x2b9d8",
      "logs": [
        {
          "address": "0x4826533b4897376654bb4d4ad88b7fafd0c98528",
          "topics": [
            "0x42eed8e4b72463654392a0121509ef6828270926d399388ed06fa11c67087544",
            "0x0000000000000000000000004a679253410272dd5232b3ff7cf5dbb88f295319",
            "0x00000000000000000000000009635f643e140090a9a8dcd712ed6285858cebef"
          ],
          "data": "0x",
          "blockHash": "0xfde0cee5be1ce691045d827143a1b1270fa8d2f16db4f4bf4675607356bcdbe4",
          "blockNumber": "0x2b",
          "blockTimestamp": "0x6a37b0f5",
          "transactionHash": "0x60f8610811fe41b17cb3ddfc48018e13261436f939ea20e4248b21332cf2e0e7",
          "transactionIndex": "0x0",
          "logIndex": "0x0",
          "removed": false
        }
      ],
      "logsBloom": "0x00000100000000000000000000000000000000000000000000000000000000000000000000000000100000000000000080000000000000000000000000000008400000000000000000000000000000000000000000000000000100000000000000000000000000000000000000000000000000000000000000000000000000000000000000000001000000000000000000000000000000000000000000000080000000000000000000000000000000000000000000000000000000000000000000000000000000000000000000000000000000000000000000000000080000000000000000000088000000000000000000000000000000008000000000000000",
      "transactionHash": "0x60f8610811fe41b17cb3ddfc48018e13261436f939ea20e4248b21332cf2e0e7",
      "transactionIndex": "0x0",
      "blockHash": "0xfde0cee5be1ce691045d827143a1b1270fa8d2f16db4f4bf4675607356bcdbe4",
      "blockNumber": "0x2b",
      "gasUsed": "0x2b9d8",
      "effectiveGasPrice": "0x5500ae",
      "blobGasPrice": "0x1",
      "from": "0xf39fd6e51aad88f6f4ce6ab8827279cfffb92266",
      "to": "0x4826533b4897376654bb4d4ad88b7fafd0c98528",
      "contractAddress": null
    },
    {
      "type": "0x2",
      "status": "0x1",
      "cumulativeGasUsed": "0x2c4d4",
      "logs": [
        {
          "address": "0x4826533b4897376654bb4d4ad88b7fafd0c98528",
          "topics": [
            "0x42eed8e4b72463654392a0121509ef6828270926d399388ed06fa11c67087544",
            "0x0000000000000000000000007a2088a1bfc9d81c55368ae168c2c02570cb814f",
            "0x000000000000000000000000c5a5c42992decbae36851359345fe25997f5c42d"
          ],
          "data": "0x",
          "blockHash": "0xc4cced5e955f198de8d29a7de1ea3fa0e9a192216f4f88df1f38e020d78e58be",
          "blockNumber": "0x2c",
          "blockTimestamp": "0x6a37b0f5",
          "transactionHash": "0x6b6ba3eacd70fb2dfb3bd1a7046b92192a02d6eaa0202694c64b627b0123adaa",
          "transactionIndex": "0x0",
          "logIndex": "0x0",
          "removed": false
        }
      ],
      "logsBloom": "0x00000100000000000000000000000000000000000000000000000000000000000400000000000000000000000000800080000000000000000000000000000000400000000000000000000000000000000000000000000000000100000000040000000000000000000000000004000000000000000000000000000000000000000000000000000000000000000000000000000000000000001000000000000080000000000000000000000000000000000000000000000000000000000000000000000000000000000000000000000000000000000000000000000000400000000000000000000080000000000000000000000000000000000000000000000000",
      "transactionHash": "0x6b6ba3eacd70fb2dfb3bd1a7046b92192a02d6eaa0202694c64b627b0123adaa",
      "transactionIndex": "0x0",
      "blockHash": "0xc4cced5e955f198de8d29a7de1ea3fa0e9a192216f4f88df1f38e020d78e58be",
      "blockNumber": "0x2c",
      "gasUsed": "0x2c4d4",
      "effectiveGasPrice": "0x4a80fe",
      "blobGasPrice": "0x1",
      "from": "0xf39fd6e51aad88f6f4ce6ab8827279cfffb92266",
      "to": "0x4826533b4897376654bb4d4ad88b7fafd0c98528",
      "contractAddress": null
    },
    {
      "type": "0x2",
      "status": "0x1",
      "cumulativeGasUsed": "0x2c4d4",
      "logs": [
        {
          "address": "0x4826533b4897376654bb4d4ad88b7fafd0c98528",
          "topics": [
            "0x42eed8e4b72463654392a0121509ef6828270926d399388ed06fa11c67087544",
            "0x00000000000000000000000067d269191c92caf3cd7723f116c85e6e9bf55933",
            "0x000000000000000000000000e6e340d132b5f46d1e472debcd681b2abc16e57e"
          ],
          "data": "0x",
          "blockHash": "0x745e2f3f3b9a8a045a07538b55c5cd0475caced66b457f17d9ebea4546e626d0",
          "blockNumber": "0x2d",
          "blockTimestamp": "0x6a37b0f5",
          "transactionHash": "0x3c263701c510eb3725a719f2c8178991c6866197769ea3761848b0ea8806abb2",
          "transactionIndex": "0x0",
          "logIndex": "0x0",
          "removed": false
        }
      ],
      "logsBloom": "0x00000100000000000000000000000000000000000000000000000000000000000000000000000000000000000000000080000000000000000000000000000000400000000000000000000000000000801000000000002000000100000000000000000002000000000000000000000000000000000000000000000000000000000000000000000000000000000000000000000000000000000000000000000080000000000000000000000000000000000020000000000000000000010000000000000000000000000000000000000000000000000000000000000000000000000000000000000080000000000000000000000000000000000000000000000000",
      "transactionHash": "0x3c263701c510eb3725a719f2c8178991c6866197769ea3761848b0ea8806abb2",
      "transactionIndex": "0x0",
      "blockHash": "0x745e2f3f3b9a8a045a07538b55c5cd0475caced66b457f17d9ebea4546e626d0",
      "blockNumber": "0x2d",
      "gasUsed": "0x2c4d4",
      "effectiveGasPrice": "0x414db6",
      "blobGasPrice": "0x1",
      "from": "0xf39fd6e51aad88f6f4ce6ab8827279cfffb92266",
      "to": "0x4826533b4897376654bb4d4ad88b7fafd0c98528",
      "contractAddress": null
    },
    {
      "type": "0x2",
      "status": "0x1",
      "cumulativeGasUsed": "0x8e7e",
      "logs": [
        {
          "address": "0x09635f643e140090a9a8dcd712ed6285858cebef",
          "topics": [
            "0xc7f505b2f371ae2175ee4913f4499e1f2633a7b5936321eed1cdaeb6115181d2"
          ],
          "data": "0x0000000000000000000000000000000000000000000000000000000000000003",
          "blockHash": "0xa788a6b6dbd3b5443007f88ee290a1f41702cde64006e9b479e2fe2aaef974ff",
          "blockNumber": "0x2e",
          "blockTimestamp": "0x6a37b0f5",
          "transactionHash": "0xd2854d47ac73d790aa04f8342c9deba7bb3721a991357451a2460000787f2fb1",
          "transactionIndex": "0x0",
          "logIndex": "0x0",
          "removed": false
        }
      ],
      "logsBloom": "0x00000000000000000000000000000000000000000000000000000000000000000000000000000000200000000000000000000000000000000000000000200000000000000000000000000000000000000000000000000000000000000000000000000000000000000010000000000000000000000000000000000000000000000000000000000000000800000000000000000000000080000000000000000000000000000000000000000000000000000000000000000000000000000000000000000000000000000000000000000000000000000004000000000000000000000000000000000000000000000000000000000000000000000000000000000000",
      "transactionHash": "0xd2854d47ac73d790aa04f8342c9deba7bb3721a991357451a2460000787f2fb1",
      "transactionIndex": "0x0",
      "blockHash": "0xa788a6b6dbd3b5443007f88ee290a1f41702cde64006e9b479e2fe2aaef974ff",
      "blockNumber": "0x2e",
      "gasUsed": "0x8e7e",
      "effectiveGasPrice": "0x393d48",
      "blobGasPrice": "0x1",
      "from": "0xf39fd6e51aad88f6f4ce6ab8827279cfffb92266",
      "to": "0x09635f643e140090a9a8dcd712ed6285858cebef",
      "contractAddress": null
    },
    {
      "type": "0x2",
      "status": "0x1",
      "cumulativeGasUsed": "0x8e7e",
      "logs": [
        {
          "address": "0xc5a5c42992decbae36851359345fe25997f5c42d",
          "topics": [
            "0xc7f505b2f371ae2175ee4913f4499e1f2633a7b5936321eed1cdaeb6115181d2"
          ],
          "data": "0x0000000000000000000000000000000000000000000000000000000000000003",
          "blockHash": "0x56ac1d693cb4861fffe6e241794a15e87d9c2f0369b7747359ecc872c6f9a4db",
          "blockNumber": "0x2f",
          "blockTimestamp": "0x6a37b0f5",
          "transactionHash": "0x5dfeb95d0aa0e62d8fe6b8b7100fdcbf2034257b2ffb2868af408261f2afae36",
          "transactionIndex": "0x0",
          "logIndex": "0x0",
          "removed": false
        }
      ],
      "logsBloom": "0x00000000000000000000000000000000000004000000000000000000000000000000000000000000000000000000000000000000000000000004000000000000000000000000000000000000000000000000000000000000000000000000000000000000000000000000000000000000000000000000000000000000000000000000000000000000000800000000000000000000000080000000000000000000000000000000000000000000000000000000000000000000000000000000000000000000080000000000000000000000000000000004000000000000000000000000000000000000000000000000000000000000000000000000000000000000",
      "transactionHash": "0x5dfeb95d0aa0e62d8fe6b8b7100fdcbf2034257b2ffb2868af408261f2afae36",
      "transactionIndex": "0x0",
      "blockHash": "0x56ac1d693cb4861fffe6e241794a15e87d9c2f0369b7747359ecc872c6f9a4db",
      "blockNumber": "0x2f",
      "gasUsed": "0x8e7e",
      "effectiveGasPrice": "0x321a14",
      "blobGasPrice": "0x1",
      "from": "0xf39fd6e51aad88f6f4ce6ab8827279cfffb92266",
      "to": "0xc5a5c42992decbae36851359345fe25997f5c42d",
      "contractAddress": null
    },
    {
      "type": "0x2",
      "status": "0x1",
      "cumulativeGasUsed": "0x8e7e",
      "logs": [
        {
          "address": "0xe6e340d132b5f46d1e472debcd681b2abc16e57e",
          "topics": [
            "0xc7f505b2f371ae2175ee4913f4499e1f2633a7b5936321eed1cdaeb6115181d2"
          ],
          "data": "0x0000000000000000000000000000000000000000000000000000000000000003",
          "blockHash": "0x4440016fe960d8fc09d9bcb8bffbb7638b094bdcbf976531a49d48312953ad00",
          "blockNumber": "0x30",
          "blockTimestamp": "0x6a37b0f5",
          "transactionHash": "0x325cd41d96e1421c74e654f1083de9e0feb42de9526616cd9ac128bb54aa16f7",
          "transactionIndex": "0x0",
          "logIndex": "0x0",
          "removed": false
        }
      ],
      "logsBloom": "0x00000000000000000000000000000000000000000000000000000000000000000000000000000000000000000000000000000000000000000000000000000000000000000000000080000000000000000000000000000000000000000000000000000000000000000000000000000000000000000000000000000000080000000000000000000000000800000000000000000000000080000000000000000000000000000000000000000000000000000000000000000000000000000000000000000000000000000000000000000000000000000004000000000200000000000000000000000000000000000000000000000000000000000000000000000000",
      "transactionHash": "0x325cd41d96e1421c74e654f1083de9e0feb42de9526616cd9ac128bb54aa16f7",
      "transactionIndex": "0x0",
      "blockHash": "0x4440016fe960d8fc09d9bcb8bffbb7638b094bdcbf976531a49d48312953ad00",
      "blockNumber": "0x30",
      "gasUsed": "0x8e7e",
      "effectiveGasPrice": "0x2bdab8",
      "blobGasPrice": "0x1",
      "from": "0xf39fd6e51aad88f6f4ce6ab8827279cfffb92266",
      "to": "0xe6e340d132b5f46d1e472debcd681b2abc16e57e",
      "contractAddress": null
    }
  ],
  "libraries": [],
  "pending": [],
  "returns": {},
  "timestamp": 1782034677905,
  "chain": 31337,
  "commit": "c67d3260"
}